:100000000C9446000C9458000C9458000C94580022
:100010000C9458000C9458000C9458000C94580000
:100020000C9458000C9458000C9458000C945800F0
:100030000C9458000C9458000C9466000C945800D2
:100040000C9458000C9458000C9458000C945800D0
:100050000C9458000C9458000C9458000C945800C0
:100060000C9458000C9458000C9458000C945800B0
:100070000C9458000C9458000C9458000C945800A0
:100080000C9458000C9458000C94580011241FBE76
:10009000CFEFD0E1DEBFCDBF21E0A0E0B1E001C0F5
:1000A0001D92A130B207E1F70E9480000C948300FA
:1000B0000C9400008EB582608EBD1DBC1CBC87B741
:1000C000846087BF78941092000108951F920F9268
:1000D0000FB60F9211248F93809100018F5F809350
:1000E0000001809100018F3028F08BB380958BBB8D
:1000F000109200018F910F900FBE0F901F901895D6
:0A0100000E945A00FFCFF894FFCFD1
:00000001FF
