:100000000C94DB030C94FA030C94FA030C94FA039B
:100010000C94FA030C94FA030C94FA030C94FA036C
:100020000C94FA030C94FA030C94FA030C94FA035C
:100030000C94FA030C94FA030C9408040C94FA033D
:100040000C94FA030C94FA030C942A040C94FA030B
:100050000C94FA030C94FA030C94FA030C94FA032C
:100060000C94FA030C94FA030C94FA030C94FA031C
:100070000C94FA030C94FA030C94FA030C94FA030C
:100080000C94FA030C94FA030C94FA03036EDB3617
:100090003D9A9999993DABAAAA2A3E000000803F5B
:1000A000084AD73B3BCE016E84BCBFFDC12F3D6CDF
:1000B00074319ABD56833DDA3D00C77F11BED9E445
:1000C000BB4C3E916BAAAABE000000803F072C7A71
:1000D000A5BA6CC590DA3B9365FC8BBC53F810FD58
:1000E0003C5692834DBD879D3AB63DCBC9BF5BBEA2
:1000F00073DA0FC93F05A84CCDB2D44EB93836A932
:10010000020C50B9918688083CA6AAAA2ABE000013
:1001100000803F07634236B79BD8A71A3968561844
:10012000AEBAAB558C1D3CB7CC5763BD6DEDFD75BC
:100130003EF6177231BF000000803F08000000BE8D
:10014000922449123EABAAAA2ABECDCCCC4C3E008A
:10015000000080BEABAAAAAA3E00000000BF0000BB
:1001600000803F0000000000084178D3BB4387D1E6
:10017000133D190E3CC3BD4282AD2B3E68EC827626
:10018000BED98FE1A93E4C80EFFFBE01C4FF7F3F87
:1001900000000000000000000000666636419A99E9
:1001A00085416666E6C1CDCC34C19A9979C000001C
:1001B000B8C1CDCC2C4066664EC16666A63F9A9902
:1001C00079C09A9909419A9939C09A9939C09A99EE
:1001D00001C1666606C03333B3BF00000040CDCC1A
:1001E000CC3E66660EC1CDCC4C40CDCC8C40666614
:1001F0006640333313C0CDCC4CBF000000BF0000BD
:10020000003F0000003F0000C0BF0000C03F33338C
:1002100033BF6666663F6666A63FCDCC6C4033331F
:10022000B33F9A9919BF9A9999BE9A9999BECDCC24
:10023000CCBD9A9999BE666606C03333F33FCDCCE8
:10024000CCBECDCCCCBF000000BFCDCC4CBECDCC05
:100250004C3F6666E63F0000003FCDCC4C3ECDCC27
:10026000CCBD9A99193F9A9919BF9A99993E3333FF
:10027000B33FCDCC4CBE9A99993ECDCCCCBDCDCC24
:10028000CC3DCDCC4CBFCDCC4CBF9A9999BECDCCFA
:10029000CC3ECDCC4C3ECDCCCCBDCDCCCC3D00006D
:1002A0000000000000BFCDCC4C3E9A99993E000062
:1002B000003F9A9999BECDCCCC3E9A99993ECDCC2F
:1002C000CC3DCDCC4C3ECDCCCCBD000000BFCDCC88
:1002D000CC3ECDCC4C3ECDCCCC3E0000000000004E
:1002E000000000000000000000000000000000000E
:1002F00000000000000000000000000000000000FE
:1003000000000000000000000000000000000000ED
:1003100000000000000000000000000000000000DD
:1003200000000000000000000000000000000000CD
:1003300000000000000000000000000000000000BD
:1003400000000000000000000000000000000000AD
:10035000000000000000000000000000000000009D
:10036000000000000000000000000000000000008D
:10037000000000000000000000000000000000007D
:10038000000000000000000000000000000000006D
:10039000000000000000000000000000000000005D
:1003A000000000000000000000000000000000004D
:1003B000000000000000000000000000000000003D
:1003C000000000000000000000000000000000002D
:1003D000000000000000000000000000000000001D
:1003E000000000000000000000000000000000000D
:1003F00000000000000000000000000000000000FD
:1004000000000000000000000000000000000000EC
:1004100000000000000000000000000000000000DC
:1004200000000000000000000000000000000000CC
:1004300000000000000000000000000000000000BC
:1004400000000000000000000000000000000000AC
:10045000000000000000000000000000000000009C
:10046000000000000000000000000000000000008C
:10047000000000000000000000000000000000007C
:10048000000000000000000000000000000000006C
:10049000000000000000000000000000000000005C
:1004A000000000000000000000000071E6C6CD3C26
:1004B000C6C4CD889A459AC915C500203D45333B31
:1004C00029C53393D0449AD90FC46676A744CD6426
:1004D00011C5008020C366F6994433B37B43CD8CAD
:1004E0001E44333306C46626644400404A44333312
:1004F0008F439A992643333353C3CD8CB2C3666678
:1005000024436666B3429A999AC39A1967C39A9923
:10051000B243CDCC3242CD4C484366E63C43333304
:100520000DC33333ECC29A1923C3CDCCCC3D6666E0
:10053000F6C0CDCCC9429A9991423333894266665E
:10054000A6C100009842CDCC304266660DC30000C3
:1005500076423333B7C19A9984C29A9951416666FB
:100560004640CDCC9BC29A995B42CDCCA0420000C4
:1005700096C2333367C2666696C09A99A9C133336F
:1005800035423333D340000060413333C7416666A0
:1005900026410000E040CDCCCC3F9A99DDC1CDCCC6
:1005A0009C409A9959C06666C241333303416666DE
:1005B0002E41000068C10000A0C16666B6C0666634
:1005C0003E4166669AC133338BC19A9939419A99F3
:1005D000854166662E413333E3409A9961C1CDCCA3
:1005E0002CC1CDCC6CC09A99D93FCDCCAC406666BD
:1005F00016410000A4C19A9959409A9939419A9993
:10060000A9C0CDCC4C41666646406666E6C06666CB
:1006100046C1CDCCECC0CDCC4CBF000000416666DD
:100620000641CDCC0C40666606C13333C3C09A99EF
:1006300021C10000E040000000C09A99C9C03333D6
:1006400033406666663FCDCCCCBDCDCC8CBF6666F4
:100650009640CDCC4CBECDCC8C4000002040666690
:10066000E6C09A9999BE000080BFCDCC0C40000036
:1006700080C066664640000000C0000080BF0000E9
:1006800000C0333333C0CDCC04C100004040000073
:10069000C0BFCDCCCC3D666606C09A99D93FCDCCC3
:1006A000CC3F9A9919BF000000BF6666E6BF000004
:1006B000003F6666663FCDCC4CBFCDCCCCBECDCC2A
:1006C000CC3E000020C06666E63F6666A6BFCDCC85
:1006D0004C3E666606C0CDCC4C3F3333F3BF33335C
:1006E00073406666E6BF666606C0CDCC4CBECDCC18
:1006F0004CBF9A99993E9A99993E0000803FCDCC83
:100700000C40333333BF000020C06666663F0000F4
:10071000003FCDCCCCBD9A99193F0000003F0000AE
:100720000000CDCCCCBECDCCCC3DCDCCCCBE9A99AE
:10073000993ECDCC4C3E666666BFCDCC4CBFCDCC91
:100740004CBE00000000CDCC4C3FCDCC4CBE66660C
:1007500066BFCDCC4CBF9A99993E9A99993ECDCC23
:10076000CC3E9A99D93FCDCCCCBE9A9919BFCDCC6D
:100770008C3F9A9999BF9A9999BECDCCCCBDCDCCDE
:100780004C3F0000003FCDCC4CBECDCCCC3DCDCCC1
:10079000CC3E0000003F00000000CDCCCC3ECDCCD4
:1007A000CC3ECDCC4CBE9A9999BE000000BF9A9920
:1007B00099BECDCC4CBF11241FBECFEFD0E1DEBF20
:1007C000CDBF11E0A0E0B1E0EEECFDE400E00BBF36
:1007D00002C007900D92A63CB107D9F724E0A6EC21
:1007E000B1E001C01D92AC3EB207E1F70E94561D78
:1007F0000C94E5260C9400008EB582608EBD1DBC65
:100800001CBC87B7846087BF7894109287040895D2
:100810001F920F920FB60F9211248F93809187042D
:100820008F5F809387048F910F900FBE0F901F9062
:1008300018951BB81AB8E5E9F0E01082599A8AB108
:1008400088618AB980818E60808387E689B9109239
:10085000900008951F920F920FB60F9211240BB6BD
:100860000F922F938F939F93AF93BF93EF93FF9329
:100870008CB18093C9018091CA019091CB01A09164
:10088000CC01B091CD01BA2FA92F982F8827809342
:10089000CA019093CB01A093CC01B093CD0180917C
:1008A000CA019091CB01A091CC01B091CD018827D4
:1008B0008093CA019093CB01A093CC01B093CD015A
:1008C0008091CA019091CB01A091CC01B091CD0152
:1008D0002091C901822B8093CA019093CB01A093F0
:1008E000CC01B093CD01809108018C30A0F4E0914F
:1008F00008018091C901F0E0ED55FB4F80838091A4
:1009000008018F5F80930801809108018C3019F4F1
:100910008FEF80930801809107018C30A0F4E09163
:1009200007018091C901F0E0E155FB4F8083809180
:1009300007018F5F80930701809107018C3019F4C4
:100940008FEF80930701809106018430C0F480917D
:100950000601823040F0E09106018091C901F0E08B
:10096000E050FF4F8083809106018F5F80930601E6
:1009700080910601843019F48FEF809306018091F5
:1009800005018031C0F480910501843040F0E09190
:1009900005018091C901F0E0E954FB4F808380910B
:1009A00005018F5F8093050180910501803119F465
:1009B0008FEF80930501809104018730B8F4E091B6
:1009C00004018091C901F0E0E953FB4F80838091DD
:1009D00004018F5F8093040180910401873031F41A
:1009E0008FEF8093040181E08093C8018091CA0158
:1009F0009091CB01A091CC01B091CD018C3A944063
:100A0000AF43BF4329F41092C801109208013FC0C0
:100A10008091CA019091CB01A091CC01B091CD0100
:100A20008C3A9540AF43BF4319F4109207012FC091
:100A30008091CA019091CB01A091CC01B091CD01E0
:100A40008C3A9B40AF43BF4319F4109206011FC07C
:100A50008091CA019091CB01A091CC01B091CD01C0
:100A60008C3A9E40AF43BF4319F4109205010FC06A
:100A70008091CA019091CB01A091CC01B091CD01A0
:100A80008C3A9F40AF43BF4311F410920401809110
:100A9000020190910301843F9140F0F480910201A2
:100AA00090910301892BC1F08091C8018823A1F0A6
:100AB00081E08093830457988FEF9FEF9093030119
:100AC000809302011092C8011092CA011092CB01CA
:100AD0001092CC011092CD01FF91EF91BF91AF9197
:100AE0009F918F912F910F900BBE0F900FBE0F9083
:100AF0001F901895CF93DF93CBE6D4E0BE0182E23E
:100B00000E94E107219684E0C237D807B9F7DF9148
:100B1000CF91089560916B0482E20C943608CF93D4
:100B2000DF93CBE9D0E01882AAE9B0E01C92EDE9AE
:100B3000F0E010828881826088838C9188618C9338
:100B400080818E60808387E6809399001092980060
:100B5000DF91CF91089580919B0087FFFCCF80911A
:100B60009C000895FC012191CF01222339F030919E
:100B70009B0035FFFCCF20939C00F4CF0895AF92EB
:100B8000BF92CF92DF92EF92FF920F931F93CF937A
:100B9000DF93CDB7DEB7C456D1090FB6F894DEBFE8
:100BA0000FBECDBF86EB91E00E94B2050E94AB055F
:100BB000C82ED12CDC2CCC240E94AB05C82A0E9464
:100BC000AB05E82EF12CFE2CEE240E94AB05E82AA2
:100BD0000E94AB05082F10E0102F00270E94AB05E4
:100BE000082B0E94AB051F930F93FF92EF92DF92A9
:100BF000CF928CEB91E09F938F93CE0101965C0195
:100C0000BF928F930E940524F50101900020E9F71F
:100C1000BF01615071096A197B09C5010E948706ED
:100C2000B601882777FD8095982F0E94682020E0E4
:100C300030E64AE656E40E94CD1F60935F0470934D
:100C400060048093610490936204B701882777FD64
:100C50008095982F0E94682020E030E64AE656E40E
:100C60000E94CD1F609363047093640480936504B5
:100C700090936604B801882777FD8095982F0E948D
:100C8000682020E030E64AE656E40E94CD1F6093DB
:100C90006704709368048093690490936A040FB6A4
:100CA000F894DEBF0FBECDBFCC59DF4F0FB6F8941E
:100CB000DEBF0FBECDBFDF91CF911F910F91FF908F
:100CC000EF90DF90CF90BF90AF900895EBE6F4E007
:100CD000908121E030E001C0220F8A95EAF7922B43
:100CE00090830C948A05EBE6F4E0908121E030E0FB
:100CF00001C0220F8A95EAF72095292320830C94BE
:100D00008A05579A08950E9475070C947807680F12
:100D1000791F8617970739F05D9BFECFFC01219163
:100D2000CF012CB9F6CF089584B3886384BB82B118
:100D3000886382B9ABE8B0E01C92EAE8F0E0108288
:100D400010928C008C918A6A8C938081816180835F
:100D50008FEF9FEF9093810080938000E4E8F0E0B4
:100D600011821082118210821182108285B3877CD9
:100D700085BB0895CF93DF9300D000D000D0CDB7CE
:100D8000DEB780917804882311F0AD9A01C0AD9848
:100D900080917904882311F0AC9A01C0AC988091BD
:100DA0007A04882311F0AB9A01C0AB988091720449
:100DB000909173044AE0BE016F5F7F4F0E94E02371
:100DC000CE0101960E94D70889E00E94BB0880915D
:100DD0007404909175044AE0BE016F5F7F4F0E94DA
:100DE000E023CE0101960E94D70889E00E94BB084B
:100DF00080917604909177044AE0BE016F5F7F4F47
:100E00000E94E023CE0101960E94D7088DE00E9447
:100E1000BB088AE00E94BB08809172049091730421
:100E2000909387008093860080917404909175045C
:100E3000909385008093840080917604909177044C
:100E4000909383008093820026960FB6F894DEBFBD
:100E50000FBECDBFDF91CF91089510927304109211
:100E60007204109275041092740410927704109218
:100E70007604109278041092790410927A040C94FB
:100E8000BA0687B3807F87BBBB9A80EC8DB9089583
:100E900017BA86E087BB87B3816387BB88B381635A
:100EA00088BB83E58DB9089598B3916398BB98B3D7
:100EB00021E030E0082E01C0220F0A94EAF72095C5
:100EC000292328BB0895680F791F8617970739F0E3
:100ED000FC012191CF012FB9779BFECFF6CF08956A
:100EE0008FB9779BFECF8FB10895BE9AC69A0895A9
:100EF000DF92EF92FF920F931F93CF93DF9300E067
:100F000010E0C598C02FC695C8618C2F0E9470074D
:100F100098013695322F222737952795822F8064A6
:100F2000D82E0E947007C59A82E08A95F1F700C01A
:100F3000C5988C2F0E9470078D2D0E947007C59A4E
:100F400082E08A95F1F700C0C5988C2F0E94700747
:100F5000282F30E0E801CC0FDD1FCA5DDB4F3EA734
:100F60002DA72DA53EA5322F22273EA72DA72DA5C3
:100F70003EA522273F703EA72DA7EDA4FEA48D2DF0
:100F80000E947007E82AFEA6EDA6C59A82E08A951F
:100F9000F1F700C00F5F1F4F0630110509F0B1CF08
:100FA000C698DF91CF911F910F91FF90EF90DF9046
:100FB0000895109271001092740088E4809370007C
:100FC000089524EA209374009091740097FFFCCF59
:100FD00090917100987F9833A9F390917100987F58
:100FE000903129F090917100987F9830C9F5880F61
:100FF0008F5F8093730084E8809374008091740005
:1010000087FFFCCF80917100887F883401F1809147
:101010007100887F883339F180917100887F803436
:10102000E1F485E88A95F1F7000084E88093740084
:101030008091740087FFFCCF80917100887F80359C
:1010400011F0883551F480917300FB01808384E9AD
:101050008093740081E090E0089584E980937400A7
:101060008FEF9FEF08958EEF9FEF089524EA20936E
:1010700074009091740097FFFCCF90917100987F5D
:101080009833A9F390917100987F903129F0909155
:101090007100987F9830A9F5880F8093730084E8D9
:1010A000809374008091740087FFFCCF8091710061
:1010B000887F803201F180917100887F883321F12F
:1010C00080917100887F883191F485E88A95F1F7E5
:1010D00000006093730084E8809374008091740032
:1010E00087FFFCCF80917100887F883221F084E9EE
:1010F0008093740006C084E98093740081E090E0DE
:1011000008958FEF9FEF08958EEF9FEF08951BB81E
:101110001AB8E5E9F0E01082599A8AB188618AB973
:1011200080818E60808387E689B91092900008954F
:10113000CF93DF93CBE9D0E01882AAE9B0E01C920C
:10114000EDE9F0E010828881826088838C9188616B
:101150008C9380818E60808387E6809399001092C3
:101160009800DF91CF91089590919B0095FFFCCF5F
:1011700080939C0008955D9BFECF8CB9089580916B
:101180009B0087FFFCCF80919C0008955F9BFECF62
:101190008CB10895FC012191CF01222339F03091C7
:1011A0009B0035FFFCCF20939C00F4CF0895FC01F9
:1011B0002191CF01222321F05D9BFECF2CB9F7CFE7
:1011C00008958DE2E3EAF4E0A6E2B4E001900D9226
:1011D0008A95E1F71092520410925104609126040E
:1011E0007091270480912804909129040E9468201E
:1011F00020E030E04AE754E40E94CD1F6093DC0118
:101200007093DD018093DE019093DF0160912A04E9
:1012100070912B0480912C0490912D040E946820E1
:1012200020E030E04AE754E40E94CD1F6093E001E3
:101230007093E1018093E2019093E30160912E04A9
:1012400070912F0480913004909131040E946820A5
:1012500020E030E04AE754E40E94CD1F6093E401AF
:101260007093E5018093E6019093E7016091320469
:101270007091330480913404909135040E94682069
:1012800020E030E04AE754E40E94CD1F6093D00193
:101290007093D1018093D2019093D3016091360471
:1012A0007091370480913804909139040E9468202D
:1012B00020E030E04AE754E40E94CD1F6093D4015F
:1012C0007093D5018093D6019093D70160913A0431
:1012D00070913B0480913C0490913D040E946820F1
:1012E00020E030E04AE754E40E94CD1F6093D8012B
:1012F0007093D9018093DA019093DB010E94F40D81
:1013000064EF71E08CED91E00E94210E68EE71E0D7
:1013100080ED91E00E94210E60913E0470913F04A7
:1013200080914004909141040E94682020E836E9B1
:1013300048E15BE40E94CD1F25E33AEF4EE85CE311
:101340000E94EB216093D0047093D1048093D20467
:101350009093D304609142047091430480914404BB
:10136000909145040E94682020E836E948E15BE45A
:101370000E94CD1F25E33AEF4EE85CE30E94EB218B
:101380006093D4047093D5048093D6049093D704CB
:101390001092830408954F925F926F927F928F9282
:1013A0009F92AF92BF92CF92DF92EF92FF920F93F4
:1013B0001F93CF93DF93CDB7DEB7A0970FB6F89406
:1013C000DEBF0FBECDBF8C01BE01635F7F4F84EFD8
:1013D00091E00E94A80ECE010D960E947F182B016D
:1013E0003C019B01AC010E94EB219B01AC0161EB34
:1013F0007AE186E791E50E94CD1F4B015C0120E078
:1014000030E040E450E4C301B2010E944E226B017F
:101410007C0120E030E040E850E4C301B2010E94CA
:101420004E222B013C018D899E89AF89B88D898F11
:101430009A8FAB8FBC8F28E938E045E05CE3BC01B4
:10144000CD010E94EB212AEC3EEF43E156E50E94DC
:10145000EB21A30192010E94CD1F6D8F7E8F8F8F94
:1014600098A320E030E040E85FE3C501B4010E94AA
:10147000E91E2D8D3E8D4F8D58A10E94E91E2B0136
:101480003C0121EF39E445EB57ED6D857E858F8575
:1014900098890E94EB21A30192010E94EB21A701F0
:1014A00096010E94CD1F69837A838B839C8321EFF1
:1014B00039E445EB57ED69897A898B899C890E94CB
:1014C000EB21A30192010E94EB21A70196010E944A
:1014D000CD1F6D837E838F83988721EF39E445EBA1
:1014E00057ED698D7A8D8B8D9C8D0E94EB212B01A0
:1014F0003C0120E030E040E450E4C501B4010E942A
:10150000EB2120E030E040E85FE30E94E91E2D8DF2
:101510003E8D4F8D58A10E94E91E9B01AC01C30175
:10152000B2010E94EB21A70196010E94CD1F69879D
:101530007A878B879C87B801CE0101960E94210E85
:10154000A0960FB6F894DEBF0FBECDBFDF91CF914E
:101550001F910F91FF90EF90DF90CF90BF90AF90D1
:101560009F908F907F906F905F904F9008959F9283
:10157000AF92BF92CF92DF92EF92FF920F931F93A1
:10158000CF93DF93CDB7DEB768970FB6F894DEBF81
:101590000FBECDBF2AE0922E5E0189E1A80EB11CDC
:1015A000CE010D960E94CB09BE016F5F7F4F88EE82
:1015B00091E00E9451188E01035F1F4F98EEE92EB3
:1015C00091E0F92EF80161917191819191918F01D2
:1015D0002DEC3CEC4CE45EE30E94EB219B01AC0162
:1015E000F70160817181828193810E94E91EF70178
:1015F00061937193819391937F010A151B0511F7F4
:10160000CE0101966C0184EFE82E81E0F82E08EE01
:1016100011E0F80161917191819191918F01F60131
:1016200021913191419151916F010E94E91E20E079
:1016300030E040E05FE30E94EB212DEC3CEC4CE419
:101640005EE30E94EB219B01AC01F7016081718197
:10165000828193810E94E91EF701619371938193C6
:1016600091937F01F1E0043F1F0799F69A9409F0E6
:1016700097CF68960FB6F894DEBF0FBECDBFDF914F
:10168000CF911F910F91FF90EF90DF90CF90BF907F
:10169000AF909F9008954F925F926F927F928F923A
:1016A0009F92AF92BF92CF92DF92EF92FF920F93F1
:1016B0001F93CF93DF93CDB7DEB72C970FB6F89477
:1016C000DEBF0FBECDBF8C012091E4043091E50454
:1016D0004091E6045091E7046091E8047091E904B8
:1016E0008091EA049091EB040E94A32020E030EC6A
:1016F00048EA57E40E94CD1F2BED3FE049EC50E44F
:101700000E94EB2121ED30EA46EB53E40E94CD1F0D
:101710002B013C010E949A224B015C0120E93EE230
:101720004CEC5EE30E94EB210E944D1F6B017C019B
:10173000C301B2010E94CA1F2B013C0124E333EC18
:101740004AE65FE3C501B4010E94EB21A3019201C7
:101750000E94731F2B013C01C701B6010E94CA1FE2
:101760004B015C01C301B2010E94CA1F9B01AC0185
:10177000C501B4010E94EB2169837A838B839C832A
:10178000C301B2010E949A229B01AC01C501B401C0
:101790000E94EB216D837E838F839887C701B601FA
:1017A0000E949A2269877A878B879C879801AE016D
:1017B0004F5F5F4F68EE71E084EF91E00E94320F5F
:1017C0002C960FB6F894DEBF0FBECDBFDF91CF9140
:1017D0001F910F91FF90EF90DF90CF90BF90AF904F
:1017E0009F908F907F906F905F904F900895AF92F1
:1017F000BF92CF92DF92EF92FF920F931F93CF93FE
:10180000DF93CDB7DEB7E0970FB6F894DEBF0FBE1B
:10181000CDBF5C012091DC043091DD044091DE04F9
:101820005091DF046091E0047091E1048091E20442
:101830009091E3040E94A32020EC39E940EF5BE49F
:101840000E94CD1F20E030E44BEF54E40E94E91EDB
:101850006B017C01BE016B5D7F4F84EF91E00E94C4
:10186000A80EBE01675E7F4FCE0185960E94E40FF1
:1018700060ED74E0CE0149960E9451188E01035F1D
:101880001F4F28E0B701A601CE0149960E94D11151
:10189000AE014B5D5F4FBE01675E7F4FC8010E9486
:1018A0001C11BE016F5F7F4FCE0185960E94210EF5
:1018B0009501AE014F5F5F4F68EE71E084EF91E0FC
:1018C0000E94320F4FE550E769E870E3C5010E94BE
:1018D000751AE0960FB6F894DEBF0FBECDBFDF914C
:1018E000CF911F910F91FF90EF90DF90CF90BF901D
:1018F000AF900895CF93DF9382508B3050F4E82F50
:10190000F0E0EE0FFF1FE65FFE4F808191819C01AA
:1019100002C020E030E040E050E060E070E080E0B5
:1019200090E0DF91CF9108952F923F924F925F9276
:101930006F927F928F929F92AF92BF92CF92DF92DF
:10194000EF92FF920F931F93CF93DF93CDB7DEB744
:101950002B970FB6F894DEBF0FBECDBF6A874D83BD
:101960002C830E83EF821C019C0140E050E060E07C
:1019700070E080E090E003E00E94991EF9014B8343
:101980005B876887B72FA82F99870E94991E5901F6
:101990006A017B018C019F014B815B8568857B2FF0
:1019A0008A2F99850E94B21E5101C12CD12CE12CA5
:1019B000F12C00E010E00E94B21E59016A017B0187
:1019C000F82F192F04E00E94991E0F2F0E94C71EA6
:1019D00059016A017B01F82F192F04E00E94991E1A
:1019E0000F2F0E94C71E59016A017B01F82F192F82
:1019F00004E00E94991E0F2F0E94C71E07E00E945C
:101A0000991E422E332E242E59836A837B83888726
:101A10009987AA85A250AB3058F4EA2FF0E0EE0F78
:101A2000FF1FE65FFE4F008111810A87512E02C021
:101A30001A86512C2F8130E040E050E060E070E0E9
:101A400080E090E03B554E42524C6E407109810956
:101A500091096901E42E652E762E872E982E9F839C
:101A6000BE816B2F70E080E090E02CE330E040E03E
:101A700050E00E946E1E5901A42FF52FE62FF72E7D
:101A80008C0196014E2D562D672D782D892D9F8125
:101A9000CA2EDF2EEE2E0E94B21E39014A01F62F09
:101AA000B72FA82F9E832C8130E040E050E060E00B
:101AB00070E080E090E004E00E94991EAC80B12CC0
:101AC000C12CD12CE12CF12C00E010E00E94C71EAB
:101AD00059016A017B01E82F192F04E00E94991E29
:101AE0000E2F0E94C71E04E00E94991E59016A0130
:101AF0007B018C019301A4016F2F7B2F8A2F9E8184
:101B00000E94B21EA42CB32CC22CD980EA80FB8088
:101B1000088519850E94B21E422E632E742E852ED2
:101B2000962EF72FB82F392E2D8130E040E050E06F
:101B300060E070E080E090E0AFEF0E94BB1EAA84FE
:101B4000B52CC12CD12CE12CF12C00E010E00E942E
:101B5000B21E59016A017B01E82F192F02E00E9491
:101B6000991E0E2F0E94C71E59016A017B01E82FA2
:101B7000192F04E00E94991E0E2F0E94C71E5901C2
:101B80006A017B01E82F192F04E00E94991E0E2F95
:101B90000E94C71E07E00E94991E59016A017B013D
:101BA0008C01242D362D472D582D692D7F2F8B2FFD
:101BB000932D0E94B21E2B960FB6F894DEBF0FBE77
:101BC000CDBFDF91CF911F910F91FF90EF90DF90EC
:101BD000CF90BF90AF909F908F907F906F905F90CD
:101BE0004F903F902F900895EF920F9380914F0464
:101BF00090915004E0904C0400914B0420914A04D1
:101C000040914D0460914E040E94940C20593B4C2D
:101C10004746510961097109810991092093E4043A
:101C20003093E5044093E6045093E7046093E8049E
:101C30007093E9048093EA049093EB040F91EF9082
:101C400008954F925F926F927F92AF92BF92CF9220
:101C5000DF92EF92FF920F931F93CF93DF93CDB755
:101C6000DEB7A4970FB6F894DEBF0FBECDBF8C01D0
:101C70005B012091E4043091E5044091E604509129
:101C8000E7046091E8047091E9048091EA0490917E
:101C9000EB040E94A32027EB39E540E85FE30E94B4
:101CA000EB2124E532E848E958E30E94EB212B01BF
:101CB0003C010E94CA1F6B017C0169837A838B837C
:101CC0009C83C301B2010E949A226D837E838F831D
:101CD000988719861A861B861C86DC01CB01B058B2
:101CE0008D879E87AF87B88BC98ADA8AEB8AFC8A90
:101CF0001D8A1E8A1F8A188E198E1A8E1B8E1C8EA4
:101D00001D8E1E8E1F8E18A280E090E0A0E8BFE31B
:101D100089A39AA3ABA3BCA3A501BE016F5F7F4FAC
:101D2000C8010E949C19A4960FB6F894DEBF0FBE9E
:101D3000CDBFDF91CF911F910F91FF90EF90DF907A
:101D4000CF90BF90AF907F906F905F904F9008952D
:101D50004F925F926F927F92AF92BF92CF92DF923B
:101D6000EF92FF920F931F93CF93DF93CDB7DEB720
:101D7000A4970FB6F894DEBF0FBECDBF8C015B01F8
:101D80002091E4043091E5044091E6045091E70489
:101D90006091E8047091E9048091EA049091EB0469
:101DA0000E94A32027EB39E540E85FE30E94EB2186
:101DB00024E532E848E958E30E94EB212B013C017D
:101DC0000E94CA1F6B017C0169837A838B839C8389
:101DD000C301B2010E949A222B013C0177FA709450
:101DE00077F870944D825E826F82788619861A86A3
:101DF0001B861C866D877E878F87988BC98ADA8AB7
:101E0000EB8AFC8A1D8A1E8A1F8A188E198E1A8EEA
:101E10001B8E1C8E1D8E1E8E1F8E18A280E090E0E1
:101E2000A0E8BFE389A39AA3ABA3BCA3A501BE010D
:101E30006F5F7F4FC8010E949C19A4960FB6F8945B
:101E4000DEBF0FBECDBFDF91CF911F910F91FF90ED
:101E5000EF90DF90CF90BF90AF907F906F905F90AA
:101E60004F900895CF92DF92EF92FF920F931F93BE
:101E7000CF93DF93CDB7DEB7C854D1090FB6F8942E
:101E8000DEBF0FBECDBF8C01CB017A016901AE016F
:101E90004F5C5F4FB8010E94F419CE01C1960E94B9
:101EA000CB1AF80180819181A281B381B0588DA3B2
:101EB0009EA3AFA3B8A744815581668177817058EE
:101EC00049A75AA76BA77CA780859185A285B38572
:101ED000B0588DA79EA7AFA7B8ABCE0185960E943C
:101EE000CB1AAE01435C5F4FBE016B5D7F4FCE01ED
:101EF000C1960E94F419CE01CD960E94CB1A21966C
:101F00008CAD9DADAEADBFAD219789839A83AB8378
:101F1000BC8389A99AA9ABA9BCA98D839E83AF83F1
:101F2000B8878DA19EA1AFA1B8A589879A87AB87F5
:101F3000BC8725968CAD9DADAEADBFAD25978D8789
:101F40009E87AF87B88B8DA99EA9AFA9B8AD898BA5
:101F50009A8BAB8BBC8B89A59AA5ABA5BCA58D8BA9
:101F60009E8BAF8BB88F29968CAD9DADAEADBFADBE
:101F70002997898F9A8FAB8FBC8F89AD9AADABAD06
:101F8000BCAD8D8F9E8FAF8FB8A30DA51EA52FA5BD
:101F900038A909A31AA32BA33CA3A601BE016F5F16
:101FA0007F4FC7010E949C19C85BDF4F0FB6F894A2
:101FB000DEBF0FBECDBFDF91CF911F910F91FF907C
:101FC000EF90DF90CF9008952F923F924F925F92C3
:101FD0006F927F928F929F92AF92BF92CF92DF9239
:101FE000EF92FF921F93CF93DF93CDB7DEB7649745
:101FF0000FB6F894DEBF0FBECDBF1B01DC018D9084
:102000009D90AD90BC9013971496CD90DD90ED907F
:10201000FC90179718968D919D910D90BC91A02DD5
:1020200089839A83AB83BC83A5019401C701B60160
:102030000E94731F6D877E878F87988BA5019401FF
:10204000C501B4010E94EB214B015C01A70196017F
:10205000C701B6010E94EB219B01AC01C501B4018F
:102060000E94E91E0E94A4226B017C0125E434E257
:102070004FE75FE30E94EB219B01AC0169817A810C
:102080008B819C810E94731F4B015C0115E0C5018F
:10209000B4010E94CA1F20E030E040E450E40E94F6
:1020A0004E222B013C01C501B4010E949A2220E07E
:1020B00030E040E450E40E944E224B015C012EEAE5
:1020C00039EC46E257E4C301B2010E94EB219B01C7
:1020D000AC01C701B6010E94E81E2B013C0122E5BC
:1020E00039E547E257E4C501B4010E94EB219B01A9
:1020F000AC0169817A818B819C810E94E91EA301D8
:1021000092010E94731F6D837E838F8398870E9444
:10211000CA1F69877A878B879C876D817E818F81B3
:1021200098850E949A222B013C0125E434E24FE776
:102130005FE30E94EB2129853A854B855C850E94EF
:10214000731F4B015C01115009F0A1CF2AE83CE557
:102150004BED5BE3C301B2010E94EB214B015C013B
:102160009B01AC0160E070E080E89FE30E94E81E04
:102170000E94A422698B7A8B8B8B9C8B8D819E8194
:10218000AF81B885F10180839183A283B3838D856C
:102190009E85AF85B88984839583A683B783298577
:1021A0003A854B855C85C701B6010E94EB216B0126
:1021B0007C01A501940169817A818B819C810E94B7
:1021C000E91EA30192010E94EB219B01AC01C70112
:1021D000B6010E94E91E6B017C0129893A894B896D
:1021E0005C8962E375EA82EC9AE40E94CD1F9B0150
:1021F000AC01C701B6010E94E81ED10118966D938B
:102200007D938D939C931B9764960FB6F894DEBFD5
:102210000FBECDBFDF91CF911F91FF90EF90DF9068
:10222000CF90BF90AF909F908F907F906F905F9076
:102230004F903F902F9008952F923F924F925F9230
:102240006F927F928F929F92AF92BF92CF92DF92C6
:10225000EF92FF920F931F93CF93DF93CDB7DEB72B
:10226000AC970FB6F894DEBF0FBECDBF1C017B014B
:102270008A01DB014D905D906D907C90C301B201AD
:102280000E94CA1F6DA37EA38FA398A7F701C480E5
:10229000D580E680F780C701B6010E94CA1F4B01B6
:1022A0005C01C301B2010E949A222B013C01C701CB
:1022B000B6010E949A226B017C0177FA709477F83C
:1022C00070948DA19EA1AFA1B8A5B05889A79AA777
:1022D000ABA7BCA7A5019401C301B2010E94EB21E9
:1022E00069837A838B839C83A7019601C301B20122
:1022F0000E94EB216D837E838F8398878DA19EA1A1
:10230000AFA1B8A589879A87AB87BC87D701C601DB
:10231000B0588D879E87AF87B88B898A9A8AAB8A97
:10232000BC8A1D8A1E8A1F8A188EA501940169A580
:102330007AA58BA59CA50E94EB21698F7A8F8B8F44
:102340009C8FA701960169A57AA58BA59CA50E94E3
:10235000EB216D8F7E8F8F8F98A349A25AA26BA21B
:102360007CA2A801BE016F5F7F4FC1010E949C1932
:10237000AC960FB6F894DEBF0FBECDBFDF91CF9104
:102380001F910F91FF90EF90DF90CF90BF90AF9093
:102390009F908F907F906F905F904F903F902F9085
:1023A00008952F923F924F925F926F927F928F92F9
:1023B0009F92AF92BF92CF92DF92EF92FF920F93D4
:1023C0001F93CF93DF93CDB7DEB7CF54D1090FB6AC
:1023D000F894DEBF0FBECDBFFC0149835A836B83E7
:1023E0007C83322E21961FAF0EAF21978080918083
:1023F000A280B380C480D580E680F78020E030E002
:102400004AE754E460857185828593850E94CD1FDB
:1024100069877A878B879C87C501B4010E949A22BD
:102420002B013C01C501B4010E94CA1F6D837E834C
:102430008F83988720E030E44BEF54E469817A8100
:102440008B819C810E94E81E25966CAF7DAF8EAF7C
:102450009FAF2597C701B6010E94CA1F6093400233
:10246000709341028093420290934302C701B601E8
:102470000E949A22609304027093050280930602E0
:10248000909307022EE23FE24BE15CE46D817E8196
:102490008F8198850E94EB212D813E814F81588547
:1024A0000E94EB214B015C012BE335E24AE15CE445
:1024B000C301B2010E94EB21A30192010E94EB2112
:1024C0006B017C019B01AC01C501B4010E94E91EB6
:1024D0006D877E878F87988B0E94A42269837A8379
:1024E0008B839C839B01AC010E94E91E9B01AC0184
:1024F00069857A858B859C850E94E91E9B01AC01CC
:1025000069857A858B859C850E94EB21698B7A8B06
:102510008B8B9C8B2EE23FE24BE15CE4C501B40166
:102520000E94EB214B015C012BE335E24AE15CE4C4
:10253000C701B6010E94EB219B01AC01C501B401AA
:102540000E94E91E2D853E854F8558890E94CD1F2A
:102550009B01AC0169897A898B899C890E94E91E5B
:102560000E94A4224B015C0129813A814B815C814C
:1025700069857A858B859C850E94E91EA501940159
:102580000E94CD1F6FA778AB89AB9AAB20E839EFDB
:1025900044E858E4C301B2010E94EB212D813E8141
:1025A0004F8158850E94EB216B017C01A5019401AC
:1025B00069817A818B819C810E94EB219B01AC0116
:1025C000C701B6010E94CD1F6BAB7CAB8DAB9EAB40
:1025D0002FA538A949A95AA9C301B2010E94EB212C
:1025E0006B017C012BA93CA94DA95EA96D817E815F
:1025F0008F8198850E94EB219B01AC01C701B60138
:102600000E94E81E69837A838B839C832FA538A957
:1026100049A95AA96D817E818F8198850E94EB21FD
:102620006B017C012BA93CA94DA95EA9C301B20194
:102630000E94EB219B01AC01C701B6010E94E91E7B
:102640006D837E838F83988729813A814B815C815A
:10265000CA01B9010E94E91E6093440370934503C7
:1026600080934603909347032D813E814F81588587
:10267000CA01B9010E94E91E60934803709349039F
:1026800080934A0390934B0320E030E040E950E40C
:1026900069817A818B819C810E94EB2129813A8119
:1026A0004B815C810E94EB2120E030E040EC5FE355
:1026B0000E94E81E60934C0370934D0380934E0379
:1026C00090934F0321EE36E446EA50E46D817E811B
:1026D0008F8198850E94EB2129813A814B815C8111
:1026E0000E94EB2160935003709351038093520337
:1026F000909353038D819E81AF81B885B0588093AC
:102700007C0290937D02A0937E02B0937F02298188
:102710003A814B815C812093800230938102409307
:1027200082025093830220E030E040E450EC6D815F
:102730007E818F8198850E94EB2129813A814B818E
:102740005C810E94EB2160938402709385028093E8
:1027500086029093870229813A814B815C81CA016C
:10276000B9010E94EB216B017C012D813E814F81DB
:102770005885CA01B9010E94EB219B01AC01C70138
:10278000B6010E94E81E27ED33EB4DED5FE30E949A
:10279000EB21609388027093890280938A02909360
:1027A0008B02A50194016AE979E187EC95E40E9426
:1027B000CD1F29966CAF7DAF8EAF9FAF2997432D6C
:1027C00050E09A012D5F3F4F429FC001439F900D03
:1027D000529F900D1124959587952A968FAF2A9731
:1027E0001AA631E03D87198A41E0498751E059A78F
:1027F0001BAE1CAE1DAE1EAE1D8E1E8E1F8E18A2F1
:102800001DA21EA21FA218A6198E1A8E1B8E1C8E28
:102810003D852A964FAD2A97431708F4D5C3898979
:1028200099858917E8F48F5F898B682F70E06E5F58
:102830007F4F882777FD8095982F0E9468209B0105
:10284000AC0129966CAD7DAD8EAD9FAD29970E94F0
:102850004E226BAF7CAF8DAF9EAFA989AAA7198618
:10286000BD85B53008F413C2E985F989EF13F6C0C8
:102870002E2E312CB101882777FD8095982F0E944C
:1028800068206B017C019B01AC0160E070E080E09E
:102890009FE30E94CD1F9B01AC0160E070E080E8E7
:1028A0009FE30E94E81E0E94A4224B015C012D853B
:1028B000022F10E038016218730831E0631A7108C2
:1028C000000F111F000F111FA801405C5C4F2A016F
:1028D000A701960160E070E080E89FE30E94CD1FB1
:1028E00020E030E040E85FE30E94E91EA50194018A
:1028F0000E94EB212D813E814F8158850E94EB2162
:10290000660C771C660C771CD301A05CBC4FBE8B99
:10291000AD8B2D913D914D915C910E94EB21F20187
:10292000608371838283938308581D4FF301E858B5
:10293000FD4F20813181428153816D817E818F8164
:1029400098850E94EB212B013C01AD89BE892D9118
:102950003D914D915C9169817A818B819C810E942E
:10296000EB21A70196010E94CD1F9B01AC01C30181
:10297000B2010E94E91E9B01AC01C501B4010E9495
:10298000EB21F8016083718382839383810101507D
:1029900011098090400290904102A0904202B090B4
:1029A0004302000F111F000F111FF801E45CFD4FDF
:1029B000C080D180E280F3809101220F331F220F6B
:1029C000331F3E8B2D8B20503E4F190100501E4F60
:1029D000D8012D913D914D915C91C501B4010E94AA
:1029E000EB212B013C012091040230910502409122
:1029F000060250910702C701B6010E94EB219B011C
:102A0000AC01C301B2010E94E91EF1016083718330
:102A1000828393832D893E89245C3D4F3901A50132
:102A20009401C701B6010E94EB216B017C0120914A
:102A30000402309105024091060250910702D8012C
:102A40006D917D918D919C910E94EB219B01AC0138
:102A5000C701B6010E94E81EF30115C1F985FF9F69
:102A6000800111242AA5229FB0011124601B710B43
:102A7000882777FD8095982F0E9468200E94A422C5
:102A80006B017C013AA5632F70E080E090E00E942A
:102A900068202B013C0120E030E040E85FE30E9429
:102AA000E81E6D8B7E8B8F8B988F9B01AC010E94F3
:102AB000EB214B015C01B801882777FD8095982FA9
:102AC0000E9468209B01AC01C501B4010E94E81E70
:102AD0000E94A422A70196010E94CD1F69A37AA398
:102AE0008BA39CA3A3019201C301B2010E94E91E22
:102AF00020E030E040E85FE30E94E81EA701960175
:102B00000E94CD1F6B017C014D85242E312C5989EB
:102B1000852F90E0D101A81BB90BBCA7ABA78D01F5
:102B2000081B190B0F5F1F4F220C331C220C331C88
:102B3000F101E05CFC4FF8AFEFAB20E030E040E8A3
:102B40005FE3C301B2010E94E91E4B015C012981D0
:102B50003A814B815C81C701B6010E94EB212BA514
:102B60003CA5220F331F220F331F60963FAF2EAFBD
:102B70006097205C3C4F3CA72BA7D9012D913D913C
:102B80004D915C910E94EB21A30192010E94CD1F07
:102B90002E966CAF7DAF8EAF9FAF2E97000F111F9B
:102BA000000F111FF801E05CFC4F20813181428150
:102BB000538169A17AA18BA19CA10E94EB212D894F
:102BC0003E894F89588D0E94CD1F9B01AC012E96E6
:102BD0006CAD7DAD8EAD9FAD2E970E94E81E9B0122
:102BE000AC01C501B4010E94EB21EFA9F8AD6083EF
:102BF000718382839383910128583D4F1901609618
:102C0000EEADFFAD6097E858FD4F208131814281E4
:102C1000538169817A818B819C810E94EB214B01D8
:102C20005C01ABA5BCA52D913D914D915C916D8151
:102C30007E818F8198850E94EB21A30192010E94E1
:102C4000CD1F9B01AC01C501B4010E94E81E9B0190
:102C5000AC01C701B6010E94EB216B017C01F801B8
:102C6000E858FD4F208131814281538169A17AA1C9
:102C70008BA19CA10E94EB219B01AC01C701B60175
:102C80000E94E81EF1016083718382839383F9A51A
:102C90000F2F10E0F801EE0FFF1FEE0FFF1FEA5598
:102CA000FB4FC590D590E590F490F801EE0FFF1F13
:102CB000EE0FFF1FEA56FE4F659175918591949135
:102CC00025962CAD3DAD4EAD5FAD25970E94EB2115
:102CD0009B01AC01C701B6010E94E91E2BAD3CADC2
:102CE0004DAD5EAD0E94EB214B015C0129852111A8
:102CF00035C04D8534E0439F80011124F801E85828
:102D0000FD4F20813181428153810E94EB219B0143
:102D1000AC01698D7A8D8B8D9C8D0E94E91E698F27
:102D20007A8F8B8F9C8FF801E05CFC4F2081318182
:102D300042815381C501B4010E94EB219B01AC018A
:102D40006D8D7E8D8F8D98A10E94E81E6D8F7E8F78
:102D50008F8F98A359A55F5F59A72FC10F5F1F4F92
:102D6000F801EE0FFF1FEE0FFF1FEA55FB4FC59056
:102D7000D590E590F490F801EE0FFF1FEE0FFF1FC6
:102D8000EA56FE4F659175918591949125962CADEB
:102D90003DAD4EAD5FAD25970E94EB219B01AC018F
:102DA000C701B6010E94E91E2BAD3CAD4DAD5EAD35
:102DB0000E94EB216B017C018985082F10E0C8017E
:102DC000880F991F880F991FFC01E45CFD4F20813B
:102DD0003181428153812D8B3E8B4F8B588F9C01CB
:102DE00020503E4FD9018D919D910D90BC91A02D09
:102DF00089A39AA3ABA3BCA32D893E894F89588D83
:102E0000C501B4010E94EB212B013C0129A13AA18B
:102E10004BA15CA1C701B6010E94EB219B01AC0153
:102E2000C301B2010E94E91E2B013C01ED85B4E013
:102E3000EB9F10011124910128583D4FD9018D912C
:102E40009D910D90BC91A02D8BA79CA7ADA7BEA76F
:102E50009C01AD01C301B2010E94EB219B01AC01B9
:102E6000698D7A8D8B8D9C8D0E94E91E698F7A8F7A
:102E70008B8F9C8F9101205C3C4FD9018D919D914E
:102E80000D90BC91A02D8FAB98AFA9AFBAAF9C01AC
:102E9000AD01C301B2010E94EB219B01AC016D8D1C
:102EA0007E8D8F8D98A10E94E81E6D8F7E8F8F8FF3
:102EB00098A320E030E0A9016D817E818F81988503
:102EC0000E94E02129A13AA14BA15CA118160CF0A7
:102ED00045C0C501B4010E94EB214B015C012D8965
:102EE0003E894F89588DC701B6010E94EB219B0195
:102EF000AC01C501B4010E94E81E6B017C01B80160
:102F0000882777FD8095982F0E9468209B01AC014F
:102F1000C701B6010E94EB212FA938AD49AD5AADCA
:102F20000E94EB216B017C01BAA56B2F70E080E061
:102F300090E00E94682020E030E040E85FE30E94DB
:102F4000E91E2D813E814F8158850E94EB219B0116
:102F5000AC01C701B6010E94CD1F20C0C501B4015C
:102F60000E94EB214B015C012D893E894F89588DD0
:102F7000C701B6010E94EB219B01AC01C501B40160
:102F80000E94E81E2BA53CA54DA55EA50E94EB2145
:102F900029813A814B815C810E94EB219B01AC012C
:102FA0006DA17EA18FA198A50E94E91E6DA37EA3AD
:102FB0008FA398A7E9A5EE5FE9A7F985FF5FF987D9
:102FC0002D852F5F2D8724CC2FA538A949A95AA973
:102FD0006D8D7E8D8F8D98A10E94EB216B017C0100
:102FE0002FA538A949A95AA9698D7A8D8B8D9C8DF9
:102FF0000E94EB214B015C012BA93CA94DA95EA9C4
:103000006D8D7E8D8F8D98A10E94EB219B01AC016F
:10301000C501B4010E94E91E2196AEADBFAD219756
:103020006D937D938D939C9313972DA13EA14FA1FA
:1030300058A514962D933D934D935C9317972BA908
:103040003CA94DA95EA9698D7A8D8B8D9C8D0E94BE
:10305000EB219B01AC01C701B6010E94E81E21963D
:10306000EEADFFAD21976087718782879387C15B43
:10307000DF4F0FB6F894DEBF0FBECDBFDF91CF910B
:103080001F910F91FF90EF90DF90CF90BF90AF9086
:103090009F908F907F906F905F904F903F902F9078
:1030A0000895CF93DF93FC01EB0140815181628150
:1030B0007381488359836A837B8344815581668108
:1030C00077814C835D836E837F8380859185A28524
:1030D000B38588879987AA87BB87DF91CF910895A9
:1030E000FB0124E0DC014D915D916D917D91CD015D
:1030F00041935193619371932150A1F708954F9299
:103100005F926F927F928F929F92AF92BF92CF9277
:10311000DF92EF92FF92FC01608171818281938145
:1031200084809580A680B780C084D184E284F384B3
:103130009B01AC010E94EB212B013C01A5019401F4
:10314000C501B4010E94EB219B01AC01C301B20196
:103150000E94E91E4B015C01A7019601C701B6015F
:103160000E94EB219B01AC01C501B4010E94E91E44
:10317000FF90EF90DF90CF90BF90AF909F908F9097
:103180007F906F905F904F900C94A4224F925F922B
:103190006F927F928F929F92AF92BF92CF92DF9267
:1031A000EF92FF92CF93DF9300D000D0CDB7DEB780
:1031B000FC01608171818281938184809580A680E9
:1031C000B780C084D184E284F384448455846684C7
:1031D00077849B01AC010E94EB2169837A838B8306
:1031E0009C83A5019401C501B4010E94EB219B01C0
:1031F000AC0169817A818B819C810E94E91E4B011F
:103200005C01A7019601C701B6010E94EB219B0159
:10321000AC01C501B4010E94E91E6B017C01A30150
:103220009201C301B2010E94EB219B01AC01C701D5
:10323000B6010E94E91E0F900F900F900F90DF9142
:10324000CF91FF90EF90DF90CF90BF90AF909F9085
:103250008F907F906F905F904F900C94A422CF92AC
:10326000DF92EF92FF920F931F93CF93DF93EC01C6
:103270008B01FB01208131814281538168817981F9
:103280008A819B810E94EB216B017C01F8012481E2
:103290003581468157816C817D818E819F810E941D
:1032A000EB219B01AC01C701B6010E94E91E6B0135
:1032B0007C01F801208531854285538568857985B3
:1032C0008A859B850E94EB219B01AC01C701B60159
:1032D0000E94E91EDF91CF911F910F91FF90EF9017
:1032E000DF90CF900895DF92EF92FF920F931F939C
:1032F000CF93DF937C018B01EA01D12CF70161911F
:103300007191819191917F01F801219131914191C8
:1033100051918F010E94E91E699379938993999342
:10332000D394F3E0DF12EACFDF91CF911F910F9199
:10333000FF90EF90DF9008956F927F928F929F920F
:10334000AF92BF92CF92DF92EF92FF920F931F93B3
:10335000CF93DF93782E692E5B01EA01E12CF12CEB
:10336000188219821A821B82072D162DC12CD12C8E
:1033700045018E0C9F1CF801619171918191919191
:103380008F01F401EC0DFD1D2081318142815381BB
:103390000E94EB219B01AC01688179818A819B812C
:1033A0000E94E91E688379838A839B83FCE0CF0EA9
:1033B000D11C84E2C816D104F1F62496E4E0EE0EA6
:1033C000F11CFCE0EF16F10459F6DF91CF911F914B
:1033D0000F91FF90EF90DF90CF90BF90AF909F90B4
:1033E0008F907F906F900895AF92BF92CF92DF92AF
:1033F000EF92FF920F931F93CF93DF93EC018B011A
:103400005A01FB0120853185428553856C817D8180
:103410008E819F810E94EB216B017C01F801248148
:10342000358146815781688579858A859B850E948B
:10343000EB219B01AC01C701B6010E94E81EF5011A
:103440006083718382839383F8012081318142817B
:103450005381688579858A859B850E94EB216B0164
:103460007C01F80120853185428553856881798109
:103470008A819B810E94EB219B01AC01C701B601AF
:103480000E94E81EF5016483758386839783F801A3
:103490002481358146815781688179818A819B8128
:1034A0000E94EB216B017C01F80120813181428176
:1034B00053816C817D818E819F810E94EB219B01D4
:1034C000AC01C701B6010E94E81EF5016087718753
:1034D00082879387DF91CF911F910F91FF90EF909B
:1034E000DF90CF90BF90AF900895CF92DF92EF9290
:1034F000FF92CF93DF93EC016A017B019A01AB014C
:10350000688179818A819B810E94EB21688379831C
:103510008A839B83A70196016C817D818E819F8127
:103520000E94EB216C837D838E839F83A70196018C
:10353000688579858A859B850E94EB2168877987D4
:103540008A879B87DF91CF91FF90EF90DF90CF909C
:103550000895CF92DF92EF92FF921F93CF93DF9364
:103560006A017B01EC0110E0A70196016881798175
:103570008A819B810E94EB21699379938993999326
:103580001F5F143089F7DF91CF911F91FF90EF906B
:10359000DF90CF900895CF92DF92EF92FF92CF937A
:1035A000DF93EC010E947F186B017C019B01AC0151
:1035B000688179818A819B810E94CD1F688379838C
:1035C0008A839B83A70196016C817D818E819F8177
:1035D0000E94CD1F6C837D838E839F83A7019601FC
:1035E000688579858A859B850E94CD1F6887798744
:1035F0008A879B87DF91CF91FF90EF90DF90CF90EC
:103600000895CF92DF92EF92FF920F931F93CF9383
:10361000DF938C010E94C6186B017C01E80110E069
:10362000A7019601688179818A819B810E94CD1FC3
:1036300069937993899399931F5F143089F7DF9188
:10364000CF911F910F91FF90EF90DF90CF90089551
:103650002F923F924F925F926F927F928F929F92A2
:10366000AF92BF92CF92DF92EF92FF920F931F9390
:10367000CF93DF93CDB7DEB76C970FB6F894DEBF6C
:103680000FBECDBF5C0180910901882349F068E03D
:1036900074E084E194E00E9451181092090181C005
:1036A00084E1882E84E0982E98E0292E94E0392E2B
:1036B000CE0101969A8F898F8E01035F1F4F0B8F6A
:1036C0001C8FF401C190D190E190F1904F01F10174
:1036D00041905190619071901F01A3019201C70127
:1036E000B6010E94E81E20E030E040E05FE30E9467
:1036F000EB21E98DFA8D6193719381939193FA8F08
:10370000E98FA3019201C701B6010E94E91E20E0E2
:1037100030E040E05FE30E94EB21F8016193719398
:10372000819391938F01F0E28F16F4E09F0649F6A2
:103730008B8D9C8D0E947F189B01AC0160E070E036
:1037400080E89FEB0E94CD1F6B017C0129813A81AB
:103750004B815C810E94EB21F50160837183828340
:1037600093832D813E814F815885C701B6010E9408
:10377000EB21F501648375838683978329853A85D8
:103780004B855C85C701B6010E94EB21F50160877E
:1037900071878287938768E074E084E194E00E94F7
:1037A00051186C960FB6F894DEBF0FBECDBFDF91F7
:1037B000CF911F910F91FF90EF90DF90CF90BF902E
:1037C000AF909F908F907F906F905F904F903F90C1
:1037D0002F9008953F924F925F926F927F928F92B7
:1037E0009F92AF92BF92CF92DF92EF92FF920F9390
:1037F0001F93CF93DF93EC018C01312C23E3422EF6
:10380000542C23E7622E2FEB722EF80180809180DA
:10381000A280B38075016401E894F7F823E333E3F1
:1038200043E75FE3C701B6010E94E0211816ECF4FC
:10383000A5019401C701B6010E94CD1F20E030E030
:1038400040E85FEB0E94C61F811106C0F80140826C
:1038500051826282738209C083E393E3A3E7BFE3EB
:10386000F80180839183A283B38333940C5F1F4F4D
:10387000F3E03F12CACF40ED59ED60EC7EE3CE019C
:103880000E94751A8E01712CF80180809180A280AF
:10389000B38075016401E894F7F820E030E040E877
:1038A0005FE3C701B6010E94E0211816E4F4A50108
:1038B0009401C701B6010E94CD1F20E030E040E82E
:1038C0005FEB0E94C61F811105C080E090E0A0E878
:1038D000BFEB04C080E090E0A0E8BFE3F801808384
:1038E0009183A283B38373940C5F1F4FF3E07F1225
:1038F000CBCFC880D980EA80FB8020E03FEF4FE744
:1039000057E4C701B6010E94EB219F770E94352042
:10391000709391046093900420E03FEF4FE757E4E9
:103920006C817D818E819F810E94EB219F770E9417
:103930003520709393046093920420E03FEF4FE7AB
:1039400057E4688579858A859B850E94EB219F775E
:103950000E943520709395046093940420E030E039
:10396000A901C701B6010E94C61F87FF03C081E0FD
:103970008093780420E030E0A9016C817D818E8104
:103980009F810E94C61F87FF03C081E080937A0455
:1039900020E030E0A901688579858A859B850E94B1
:1039A000C61F87FF03C081E080937904DF91CF9128
:1039B0001F910F91FF90EF90DF90CF90BF90AF904D
:1039C0009F908F907F906F905F904F903F90089561
:1039D000CF93DF93CDB7DEB72C970FB6F894DEBF49
:1039E0000FBECDBF6091A1047091A204882777FD1E
:1039F0008095982F0E94682020E030E64AE656E441
:103A00000E94CD1F609314047093150480931604D4
:103A1000909317046091810470918204882777FD48
:103A20008095982F0E94682020E030E64AE656E410
:103A30000E94CD1F609318047093190480931A0498
:103A400090931B046091850470918604882777FD0C
:103A50008095982F0E94682020E030E64AE656E4E0
:103A60000E94CD1F60931C0470931D0480931E045C
:103A700090931F04CE0101960E94281BCE0101964F
:103A80000E947F1820E030E0A9010E94E02187FD1C
:103A900004C0CE0101960E94EA1B2C960FB6F89442
:103AA000DEBF0FBECDBFDF91CF910895CF93DF93DF
:103AB000CDB7DEB7C25AD1090FB6F894DEBF0FBE3C
:103AC000CDBF80EF8ABB8BBB2FEF89E698E12150F9
:103AD00080409040E1F700C000001BBA2FEF89E65C
:103AE00098E1215080409040E1F700C0000080EF55
:103AF0008BBB2FEF89E698E1215080409040E1F7A1
:103B000000C000001BBA2FEF89E698E121508040E9
:103B10009040E1F700C000000E9487088DE00E94FD
:103B2000BB088DE00E94BB0888E40E94BB0885E6C4
:103B30000E94BB088CE60E94BB088CE60E94BB0872
:103B40008FE60E94BB0860E271E0CE0187589F4F6C
:103B50000E94D923CE0187589F4F0E94D70868E45E
:103B600071E0CE018F5A9F4F0E94D9236EE671E01B
:103B7000CE0189960E94D92360E971E0CE010196B9
:103B80000E94D923CE018F5A9F4F0E94D7080E94CE
:103B90008F050E9494060E94FC0333EBE32E31E074
:103BA000F32E8E010F551F4F0E94AB05C82ED12C4E
:103BB000DC2CCC240E94AB05C82A0E94AB05A82EA1
:103BC000B12CBA2CAA240E94AB05A82A0E94AB05EE
:103BD000882E912C982C88240E94AB05882A0E945C
:103BE000AB058DE00E94BB08C114D10431F4A114CF
:103BF000B10419F481149104B9F20E94E81C809177
:103C00009004909191049093730480937204809136
:103C1000940490919504909375048093740480911A
:103C200092049091930490937704809376040E9479
:103C3000BA069F928F92FF92EF921F930F930E946A
:103C400005248AE70E94BB08C8010E94D70880E2C9
:103C50000E94BB08BF92AF92FF92EF921F930F9307
:103C60000E94052489E70E94BB08C8010E94D7086A
:103C700080E20E94BB08DF92CF92FF92EF921F93E7
:103C80000F930E94052488E70E94BB08C8010E9488
:103C9000D70880E20E94BB088DE00E94BB08CE01DD
:103CA00001960E94D70880E20E94BB0888E50E9426
:103CB000BB0880E20E94BB0889E50E94BB0880E245
:103CC0000E94BB088AE50E94BB088DE00E94BB08E9
:103CD0000FB6F894DEBF0FBECDBF66CFE894DF937A
:103CE000CF93FC01DB010E94D01E7F936F93E9010B
:103CF0009A01AC01BF93AF933F932F93DF010E94D2
:103D0000D01E26F46C1B7D0B820B930B9E01EB01E6
:103D1000FC010E94DF1EAF91BF912F913F910E9445
:103D2000DF1EBE01CF01F9012F913F91CF91DF91AD
:103D300008950F93083090F0982F872F762F652FD6
:103D4000542F432F322F22270850F4CF220F331F36
:103D5000441F551F661F771F881F991F0A95B2F7CA
:103D60000F9108952A0D3B1D4C1D5D1D6E1D7F1D7D
:103D7000801F911F08950024A7FD00942A0F301D75
:103D8000401D501D601D701D801D901D08952A1935
:103D90003B094C095D096E097F09800B910B089561
:103DA000A29FB001B39FC001A39F700D811D11247C
:103DB000911DB29F700D811D1124911D08950E94C7
:103DC000D01E460F571FC81FD91F08F431960895FB
:103DD0005058BB27AA270ED0A8C271D230F076D295
:103DE00020F031F49F3F11F41EF430C20EF4E09540
:103DF000E7FB26C2E92FBBD280F3BA17620773072D
:103E00008407950718F071F49EF5D3C20EF4E0957F
:103E10000B2EBA2FA02D0B01B90190010C01CA0184
:103E2000A0011124FF27591B99F0593F50F4503E2F
:103E300068F11A16F040A22F232F342F4427585F21
:103E4000F3CF469537952795A795F0405395C9F739
:103E50007EF41F16BA0B620B730B840BBAF09150F1
:103E6000A1F0FF0FBB1F661F771F881FC2F70EC090
:103E7000BA0F621F731F841F48F487957795679563
:103E8000B795F7959E3F08F0B3CF9395880F08F04C
:103E90009927EE0F9795879508959F939F77EEE367
:103EA00089379E0720F4ECE8F0E0F8D109C089D109
:103EB0009058A2EA2AED3FE049EC5FE39BDF35D260
:103EC0000F9007FC90580895FAD158F080E891E0DF
:103ED00009F49EEFFBD128F040E851E059F45EEF81
:103EE00009C0B4C166C2E92FE07841D268F3092E57
:103EF000052AC1F3261737074807590738F00E2E51
:103F000007F8E02569F0E025E0640AC0EF6307F8F0
:103F1000009407FADB01B9019D01DC01CA01AD0182
:103F2000EF934AD002D20AD05F91552331F02BEDA6
:103F30003FE049E450FD49EC4CCF0895DF93DD2785
:103F4000B92FBF7740E85FE31616170648075B07EF
:103F500010F4D92F39D29F938F937F936F9332D3DD
:103F6000E0EAF0E076D1E1D12F913F914F915F915E
:103F70003ED2DD2349F09058A2EA2AED3FE049EC19
:103F80005FE3D0785D2736DFDF91CFC135D108F40C
:103F900081E00895A3D1E395D9C10CD0C6C196D1D3
:103FA00040F08DD130F021F45F3F19F049C151113B
:103FB00001C24CC1DCD198F39923C9F35523B1F365
:103FC000951B550BBB27AA2762177307840738F088
:103FD0009F5F5F4F220F331F441FAA1FA9F333D0E7
:103FE0000E2E3AF0E0E830D091505040E695001C9B
:103FF000CAF729D0FE2F27D0660F771F881FBB1F57
:10400000261737074807AB07B0E809F0BB0B802D30
:10401000BF01FF2793585F4F2AF09E3F510568F07C
:104020000FC1C8C15F3FECF3983EDCF386957795EE
:104030006795B795F7959F5FC9F7880F911D96957E
:10404000879597F90895E1E0660F771F881FBB1FDA
:10405000621773078407BA0720F0621B730B840B87
:10406000BA0BEE1F88F7E095089504D06894B1115B
:10407000A1C1089584D188F09F5790F0B92F992756
:10408000B751A0F0D1F0660F771F881F991F1AF063
:10409000BA95C9F712C0B13081F08BD1B1E0089563
:1040A00088C1672F782F8827B85F39F0B93FCCF3E4
:1040B000869577956795B395D9F73EF49095809559
:1040C000709561957F4F8F4F9F4F0895E89409C079
:1040D00097FB3EF490958095709561957F4F8F4F3B
:1040E0009F4F9923A9F0F92F96E9BB279395F69551
:1040F000879577956795B795F111F8CFFAF4BB0FCF
:1041000011F460FF1BC06F5F7F4F8F4F9F4F16C032
:10411000882311F096E911C0772321F09EE8872FBC
:10412000762F05C0662371F096E8862F70E060E078
:104130002AF09A95660F771F881FDAF7880F9695F1
:10414000879597F90895E894F92F96EBFF2381F06E
:10415000121613061406440B9395F69587957795DA
:10416000679557954040FF23B9F71BC099270895DD
:10417000882351F49850D2F7872B762F652F542F30
:10418000432F322F20E0B1F3121613061406440B0E
:1041900088233AF09A95440F551F661F771F881F92
:1041A000CAF755234AF4440F551F11F460FF04C0A9
:1041B0006F5F7F4F8F4F9F4F880F9695879597F929
:1041C0000895DF93CF931F930F938B01EC01EDECD8
:1041D000F0E03FD0AAD09801AE018B01EC0160E085
:1041E00070E080E89FE3F4DDAFD19801AE010F915C
:1041F0001F91CF91DF91FBC0990F0008550FAA0BBB
:10420000E0E8FEEF16161706E807F907C0F01216E9
:104210001306E407F50798F0621B730B840B950BEC
:1042200039F40A2661F0232B242B252B21F4089541
:104230000A2609F4A140A6958FEF811D811D0895DE
:1042400097F99F6780E870E060E008959FEF80EC49
:104250000895DF93CF931F930F93FF92EF92DF9216
:104260007B018C01689405C0DA2EEF01C0D0FE01FD
:10427000E894A5912591359145915591AEF3EF01C3
:10428000B9DDFE019701A801DA9479F7DF90EF908C
:10429000FF900F911F91CF91DF9108959F938F937E
:1042A0007F936F93FF93EF939B01AC0194D0EF91B9
:1042B000FF91CFDF2F913F914F915F918CC00024F0
:1042C0000A941616170618060906089500240A947B
:1042D00012161306140605060895B8CF50D0E8F359
:1042E000E894E0E0BB279F57F0F02AED3FE049EC6F
:1042F00006C0EE0FBB0F661F771F881F28F0B23A6B
:1043000062077307840728F0B25A620B730B840BA1
:10431000E3959A9572F7803830F49A95BB0F661F33
:10432000771F881FD2F7904883C1092E0394000C91
:1043300011F4882352F0BB0F40F4BF2B11F460FF3F
:1043400004C06F5F7F4F8F4F9F4F0895EF93E0FF43
:1043500006C0A2EA2AED3FE049EC5FEB4BDDE5DF6A
:104360000F90039401FC9058E5EFF0E097CF57FDD4
:104370009058440F551F59F05F3F71F04795880FD3
:1043800097FB991F61F09F3F79F08795089512166A
:1043900013061406551FF2CF4695F1DF08C0161616
:1043A00017061806991FF1CF8695710561050894C7
:1043B0000895E894BB2766277727CB0197F90895DE
:1043C0001BDF08F48FEF08959B01AC0160E070E003
:1043D00080E89FE3E2CD0BD0A8CF71DF28F076DF35
:1043E00018F0952309F02CCF31CF1124E3CFBFDF94
:1043F000A0F3959FD1F3950F50E0551F629FF001F8
:10440000729FBB27F00DB11D639FAA27F00DB11D50
:10441000AA1F649F6627B00DA11D661F829F2227D9
:10442000B00DA11D621F739FB00DA11D621F839F60
:10443000A00D611D221F749F3327A00D611D231F36
:10444000849F600D211D822F762F6A2F11249F5784
:1044500050408AF0E1F088234AF0EE0FFF1FBB1FA7
:10446000661F771F881F91505040A9F79E3F510546
:1044700070F0E6CE9FCF5F3FECF3983EDCF386957D
:1044800077956795B795F795E7959F5FC1F7FE2BF1
:10449000880F911D9695879597F90895FA01EE0F6B
:1044A000FF1F30962105310599F16115710561F401
:1044B0008038BFE39B0749F168949038810561F02B
:1044C0008038BFEF9B0741F0992342F5FF3FE1059C
:1044D0003105210511F1E8940894E795D901AA2343
:1044E00029F4AB2FBE2FF85FD0F310C0FF5F70F43C
:1044F000A695E0F7F73950F019F0FF3A38F49F77B6
:104500009F930CD00F9007FC905808953EF09ECEDC
:1045100060E070E080E89FE308954FE79F775F9346
:104520004F933F932F93D2D02F913F914F915F9113
:1045300052DF50C09F93D2DE0F9007FCEE5F06CF94
:1045400011F40EF483CE72C01ADFD0F39923D9F39D
:10455000CEF39F57550B87FF77D00024A0E640EAA3
:10456000900180585695979528F4805C660F771FC8
:10457000881F20F026173707480730F4621B730B9B
:10458000840B202931294A2BA695179407942025BE
:1045900031254A2758F7660F771F881F20F0261706
:1045A0003707480730F4620B730B840B200D311D65
:1045B000411DA09581F7B901842F9158880F9695D8
:1045C000879508959B01AC0106CF19F40EF038CE03
:1045D000F0CE3CCED4DEC8F39638C0F707F80F9281
:1045E000E8942BE33AEA48EB5FE703DF0F920F9280
:1045F0000F924DB75EB70F92A9D0E3E1F1E029DE4B
:104600004F915F91EF91FF91E595EE1FFF1F49F0EC
:10461000FE57E0684427EE0F441FFA95E1F74195F5
:10462000550B1BD00F9007FECFCE08959F3F31F062
:10463000915020F4879577956795B795880F911DD0
:104640009695879597F9089591505040660F771F7A
:10465000881FD2F70895F4CDE9CF91DEE8F39923CE
:10466000D9F3940F511DBBF39150504094F059F081
:10467000882332F0660F771F881F91505040C1F792
:104680009E3F510544F7880F911D9695879597F9A0
:1046900008955F3FACF0983E9CF0BB2786957795D8
:1046A0006795B79508F4B1609395C1F7BB0F58F7BC
:1046B00011F460FFE8CF6F5F7F4F8F4F9F4FE3CFC5
:1046C00079CE0EF0B3CFC2CD6894BACD58DEC8F320
:1046D0009923D1F3C6F3DF93CF931F930F93FF92E8
:1046E000C92FDD2788232AF02197660F771F881F9F
:1046F000DAF720E030E040E85FEB9FE3883920F014
:10470000803E30F021968F7764DBEBE3F1E003C06D
:1047100060DBE8E6F1E09DDD8B01BE01EC01FB2EE4
:104720006F5771097595771F880B990BD1DC28E1BC
:1047300032E741E35FE35BDEAF2D9801AE01FF900E
:104740000F911F91CF91DF9155DBEFCDFA01DC0185
:10475000AA0FBB1F9B01AC01BF5728F422273327A8
:10476000442750781FC0B75188F4AB2F00244695DA
:1047700037952795011CA395D2F3002069F0220FED
:10478000331F441FB395DAF30DD022CB613071058E
:10479000A0E88A07B94630F49B01AC016627772769
:1047A00088279078309621F0208331834283538389
:1047B0000895FB01DC0101900D920020E1F70895BE
:1047C000BB274A3031F4992322F4BDE290958195BC
:1047D0009F4F0C94EC23BB27FB015527AA27880F7A
:1047E000991FAA1FA41710F0A41B83955051B9F765
:1047F000A05DAA3308F0A95DA193009779F7B111E4
:10480000B1931192CB010C9445260F931F93CF9334
:10481000DF93CDB7DEB72E970FB6F894DEBF0FBE8D
:10482000CDBF0D891E8986E08C831A8309838FEFA3
:104830009FE79E838D83AE01475E5F4F6F89788DC2
:10484000CE0101960E943424EF81F885E00FF11F1C
:1048500010822E960FB6F894DEBF0FBECDBFDF914B
:10486000CF911F910F9108952F923F924F925F9297
:104870006F927F928F929F92AF92BF92CF92DF9270
:10488000EF92FF920F931F93CF93DF93CDB7DEB7D5
:104890002C970FB6F894DEBF0FBECDBF7C016B0125
:1048A0008A01FC0117821682838181FFBDC1CE017E
:1048B00001964C01F7019381F60193FD859193FFD9
:1048C00081916F01882309F4ABC1853239F493FDDE
:1048D000859193FF81916F01853229F4B70190E0B2
:1048E0000E945526E7CF512C312C20E02032A0F435
:1048F0008B3269F030F4803259F0833269F42061F0
:104900002CC08D3239F0803339F4216026C022600A
:10491000246023C0286021C027FD27C030ED380F58
:104920003A3078F426FF06C0FAE05F9E300D11247D
:10493000532E13C08AE0389E300D1124332E20628E
:104940000CC08E3221F426FD6BC1206406C08C366B
:1049500011F4206802C0883641F4F60193FD859178
:1049600093FF81916F018111C1CF982F9F7D955445
:10497000933028F40C5F1F4FFFE3F9830DC083369B
:1049800031F0833771F0833509F05BC022C0F80144
:10499000808189830E5F1F4F44244394512C54011E
:1049A00015C03801F2E06F0E711CF801A080B180D3
:1049B00026FF03C0652D70E002C06FEF7FEFC501D9
:1049C0002C870E943A262C0183012C852F77222EDA
:1049D00017C03801F2E06F0E711CF801A080B180A1
:1049E00026FF03C0652D70E002C06FEF7FEFC501A9
:1049F0002C870E942F262C012C852068222E8301D3
:104A000023FC1BC0832D90E048165906B0F4B70173
:104A100080E290E00E9455263A94F4CFF50127FCFD
:104A2000859127FE81915F01B70190E00E94552694
:104A300031103A94F1E04F1A51084114510471F7C2
:104A4000E5C0843611F0893639F5F80127FF07C033
:104A500060817181828193810C5F1F4F08C06081EA
:104A60007181882777FD8095982F0E5F1F4F2F76D5
:104A7000B22E97FF09C090958095709561957F4FF4
:104A80008F4F9F4F2068B22E2AE030E0A4010E9491
:104A90008726A82EA81844C0853729F42F7EB22E69
:104AA0002AE030E025C0F22FF97FBF2E8F36C1F00B
:104AB00018F4883579F0B4C0803719F0883721F0C0
:104AC000AFC02F2F2061B22EB4FE0DC08B2D84609D
:104AD000B82E09C024FF0AC09F2F9660B92E06C0C9
:104AE00028E030E005C020E130E002C020E132E003
:104AF000F801B7FE07C060817181828193810C5FEC
:104B00001F4F06C06081718180E090E00E5F1F4FF3
:104B1000A4010E948726A82EA818FB2DFF77BF2E80
:104B2000B6FE0BC02B2D2E7FA51450F4B4FE0AC088
:104B3000B2FC08C02B2D2E7E05C07A2C2B2D03C075
:104B40007A2C01C0752C24FF0DC0FE01EA0DF11D69
:104B50008081803311F4297E09C022FF06C073943E
:104B6000739404C0822F867809F0739423FD13C0D8
:104B700020FF06C05A2C731418F4530C5718732CCA
:104B8000731468F4B70180E290E02C870E945526E8
:104B900073942C85F5CF731410F4371801C0312CA1
:104BA00024FF12C0B70180E390E02C870E945526B5
:104BB0002C8522FF17C021FF03C088E590E002C0CA
:104BC00088E790E0B7010CC0822F867859F021FD6C
:104BD00002C080E201C08BE227FD8DE2B70190E0C8
:104BE0000E945526A51438F4B70180E390E00E9496
:104BF00055265A94F7CFAA94F401EA0DF11D80814D
:104C0000B70190E00E945526A110F5CF332009F49A
:104C100051CEB70180E290E00E9455263A94F6CF3B
:104C2000F7018681978102C08FEF9FEF2C960FB618
:104C3000F894DEBF0FBECDBFDF91CF911F910F91D2
:104C4000FF90EF90DF90CF90BF90AF909F908F90AC
:104C50007F906F905F904F903F902F900895FC0150
:104C60000590615070400110D8F7809590958E0F97
:104C70009F1F0895FC016150704001900110D8F70A
:104C8000809590958E0F9F1F0895DC01FC01672F82
:104C900071917723E1F7329704C07C916D93708313
:104CA0006291AE17BF07C8F308950F931F93CF9378
:104CB000DF93182F092FEB018B8181FD03C08FEF4C
:104CC0009FEF20C082FF10C04E815F812C813D810B
:104CD000421753077CF4E881F9819F012F5F3F4F12
:104CE00039832883108306C0E885F985812F0995CB
:104CF000892B29F72E813F812F5F3F4F3F832E83E2
:104D0000812F902FDF91CF911F910F910895FA017C
:104D1000AA27283051F1203181F1E8946F936E7FFA
:104D20006E5F7F4F8F4F9F4FAF4FB1E03ED0B4E0EB
:104D30003CD0670F781F891F9A1FA11D680F791F2C
:104D40008A1F911DA11D6A0F711D811D911DA11D3D
:104D500020D009F468943F912AE0269F112430194D
:104D6000305D3193DEF6CF010895462F4770405DE8
:104D70004193B3E00FD0C9F7F6CF462F4F70405D97
:104D80004A3318F0495D31FD4052419302D0A9F7F2
:104D9000EACFB4E0A6959795879577956795BA95EC
:104DA000C9F700976105710508959B01AC010A2EB2
:104DB00006945795479537952795BA95C9F7620F89
:0E4DC000731F841F951FA01D0895F894FFCF48
:104DCE000100FFFFFFFFFFFFFF011F003B005A0026
:104DDE0078009700B500D400F300110130014E01A8
:104DEE00092E2E546869732069732049495442274D
:104DFE00732053747564656E7420536174656C6CA6
:104E0E006974652E2E2E0D0009546869732069731E
:104E1E00205052415448414D2773204F42432D4D4F
:104E2E00617374657220636F64652E2E2E000D43C0
:104E3E00757272656E74204D61676E65746F4D6527
:104E4E00746572207374617465206973203D090066
:104E5E000D47656E65726174696E6720546F72716D
:104E6E007565722043757272656E7420666F72205E
:104E7E003D09002564002A3030500D0025642025A0
:064E8E00642025640D0004
:00000001FF
