:100000000C94DB030C94FA030C94FA030C94FA039B
:100010000C94FA030C94FA030C94FA030C94FA036C
:100020000C94FA030C94FA030C94FA030C94FA035C
:100030000C94FA030C94FA030C94FA030C94FA034C
:100040000C94FA030C94FA030C940D040C94FA0328
:100050000C94FA030C94FA030C94FA030C94FA032C
:100060000C94FA030C94FA030C94FA030C94FA031C
:100070000C94FA030C94FA030C94FA030C94FA030C
:100080000C94FA030C94FA030C94FA03036EDB3617
:100090003D9A9999993DABAAAA2A3E000000803F5B
:1000A000084AD73B3BCE016E84BCBFFDC12F3D6CDF
:1000B00074319ABD56833DDA3D00C77F11BED9E445
:1000C000BB4C3E916BAAAABE000000803F072C7A71
:1000D000A5BA6CC590DA3B9365FC8BBC53F810FD58
:1000E0003C5692834DBD879D3AB63DCBC9BF5BBEA2
:1000F00073DA0FC93F05A84CCDB2D44EB93836A932
:10010000020C50B9918688083CA6AAAA2ABE000013
:1001100000803F07634236B79BD8A71A3968561844
:10012000AEBAAB558C1D3CB7CC5763BD6DEDFD75BC
:100130003EF6177231BF000000803F08000000BE8D
:10014000922449123EABAAAA2ABECDCCCC4C3E008A
:10015000000080BEABAAAAAA3E00000000BF0000BB
:1001600000803F0000000000084178D3BB4387D1E6
:10017000133D190E3CC3BD4282AD2B3E68EC827626
:10018000BED98FE1A93E4C80EFFFBE01C4FF7F3F87
:1001900000000000000000000000666636419A99E9
:1001A00085416666E6C1CDCC34C19A9979C000001C
:1001B000B8C1CDCC2C4066664EC16666A63F9A9902
:1001C00079C09A9909419A9939C09A9939C09A99EE
:1001D00001C1666606C03333B3BF00000040CDCC1A
:1001E000CC3E66660EC1CDCC4C40CDCC8C40666614
:1001F0006640333313C0CDCC4CBF000000BF0000BD
:10020000003F0000003F0000C0BF0000C03F33338C
:1002100033BF6666663F6666A63FCDCC6C4033331F
:10022000B33F9A9919BF9A9999BE9A9999BECDCC24
:10023000CCBD9A9999BE666606C03333F33FCDCCE8
:10024000CCBECDCCCCBF000000BFCDCC4CBECDCC05
:100250004C3F6666E63F0000003FCDCC4C3ECDCC27
:10026000CCBD9A99193F9A9919BF9A99993E3333FF
:10027000B33FCDCC4CBE9A99993ECDCCCCBDCDCC24
:10028000CC3DCDCC4CBFCDCC4CBF9A9999BECDCCFA
:10029000CC3ECDCC4C3ECDCCCCBDCDCCCC3D00006D
:1002A0000000000000BFCDCC4C3E9A99993E000062
:1002B000003F9A9999BECDCCCC3E9A99993ECDCC2F
:1002C000CC3DCDCC4C3ECDCCCCBD000000BFCDCC88
:1002D000CC3ECDCC4C3ECDCCCC3E0000000000004E
:1002E000000000000000000000000000000000000E
:1002F00000000000000000000000000000000000FE
:1003000000000000000000000000000000000000ED
:1003100000000000000000000000000000000000DD
:1003200000000000000000000000000000000000CD
:1003300000000000000000000000000000000000BD
:1003400000000000000000000000000000000000AD
:10035000000000000000000000000000000000009D
:10036000000000000000000000000000000000008D
:10037000000000000000000000000000000000007D
:10038000000000000000000000000000000000006D
:10039000000000000000000000000000000000005D
:1003A000000000000000000000000000000000004D
:1003B000000000000000000000000000000000003D
:1003C000000000000000000000000000000000002D
:1003D000000000000000000000000000000000001D
:1003E000000000000000000000000000000000000D
:1003F00000000000000000000000000000000000FD
:1004000000000000000000000000000000000000EC
:1004100000000000000000000000000000000000DC
:1004200000000000000000000000000000000000CC
:1004300000000000000000000000000000000000BC
:1004400000000000000000000000000000000000AC
:10045000000000000000000000000000000000009C
:10046000000000000000000000000000000000008C
:10047000000000000000000000000000000000007C
:10048000000000000000000000000000000000006C
:10049000000000000000000000000000000000005C
:1004A000000000000000000000000071E6C6CD3C26
:1004B000C6C4CD889A459AC915C500203D45333B31
:1004C00029C53393D0449AD90FC46676A744CD6426
:1004D00011C5008020C366F6994433B37B43CD8CAD
:1004E0001E44333306C46626644400404A44333312
:1004F0008F439A992643333353C3CD8CB2C3666678
:1005000024436666B3429A999AC39A1967C39A9923
:10051000B243CDCC3242CD4C484366E63C43333304
:100520000DC33333ECC29A1923C3CDCCCC3D6666E0
:10053000F6C0CDCCC9429A9991423333894266665E
:10054000A6C100009842CDCC304266660DC30000C3
:1005500076423333B7C19A9984C29A9951416666FB
:100560004640CDCC9BC29A995B42CDCCA0420000C4
:1005700096C2333367C2666696C09A99A9C133336F
:1005800035423333D340000060413333C7416666A0
:1005900026410000E040CDCCCC3F9A99DDC1CDCCC6
:1005A0009C409A9959C06666C241333303416666DE
:1005B0002E41000068C10000A0C16666B6C0666634
:1005C0003E4166669AC133338BC19A9939419A99F3
:1005D000854166662E413333E3409A9961C1CDCCA3
:1005E0002CC1CDCC6CC09A99D93FCDCCAC406666BD
:1005F00016410000A4C19A9959409A9939419A9993
:10060000A9C0CDCC4C41666646406666E6C06666CB
:1006100046C1CDCCECC0CDCC4CBF000000416666DD
:100620000641CDCC0C40666606C13333C3C09A99EF
:1006300021C10000E040000000C09A99C9C03333D6
:1006400033406666663FCDCCCCBDCDCC8CBF6666F4
:100650009640CDCC4CBECDCC8C4000002040666690
:10066000E6C09A9999BE000080BFCDCC0C40000036
:1006700080C066664640000000C0000080BF0000E9
:1006800000C0333333C0CDCC04C100004040000073
:10069000C0BFCDCCCC3D666606C09A99D93FCDCCC3
:1006A000CC3F9A9919BF000000BF6666E6BF000004
:1006B000003F6666663FCDCC4CBFCDCCCCBECDCC2A
:1006C000CC3E000020C06666E63F6666A6BFCDCC85
:1006D0004C3E666606C0CDCC4C3F3333F3BF33335C
:1006E00073406666E6BF666606C0CDCC4CBECDCC18
:1006F0004CBF9A99993E9A99993E0000803FCDCC83
:100700000C40333333BF000020C06666663F0000F4
:10071000003FCDCCCCBD9A99193F0000003F0000AE
:100720000000CDCCCCBECDCCCC3DCDCCCCBE9A99AE
:10073000993ECDCC4C3E666666BFCDCC4CBFCDCC91
:100740004CBE00000000CDCC4C3FCDCC4CBE66660C
:1007500066BFCDCC4CBF9A99993E9A99993ECDCC23
:10076000CC3E9A99D93FCDCCCCBE9A9919BFCDCC6D
:100770008C3F9A9999BF9A9999BECDCCCCBDCDCCDE
:100780004C3F0000003FCDCC4CBECDCCCC3DCDCCC1
:10079000CC3E0000003F00000000CDCCCC3ECDCCD4
:1007A000CC3ECDCC4CBE9A9999BE000000BF9A9920
:1007B00099BECDCC4CBF11241FBECFEFD0E1DEBF20
:1007C000CDBF11E0A0E0B1E0E4E1F8E400E00BBF50
:1007D00002C007900D92A43CB107D9F724E0A4EC25
:1007E000B1E001C01D92AC3AB207E1F70E94C81A0D
:1007F0000C9408240C9400001BB81AB8E5E9F0E04A
:100800001082599A8AB188618AB980818E6080830A
:1008100087E689B91092900008951F920F920FB643
:100820000F9211240BB60F922F938F939F93AF9338
:10083000BF93EF93FF938CB18093C5018091C60164
:100840009091C701A091C801B091C901BA2FA92FF9
:10085000982F88278093C6019093C701A093C80161
:10086000B093C9018091C6019091C701A091C801C0
:10087000B091C90188278093C6019093C701A093C6
:10088000C801B093C9018091C6019091C701A091A0
:10089000C801B091C9012091C501822B8093C60186
:1008A0009093C701A093C801B093C901809106013C
:1008B0008C30A0F4E09106018091C501F0E0ED5983
:1008C000FB4F8083809106018F5F809306018091AA
:1008D00006018C3019F48FEF809306018091050199
:1008E0008C30A0F4E09105018091C501F0E0E15960
:1008F000FB4F8083809105018F5F8093050180917C
:1009000005018C3019F48FEF80930501809104016B
:100910008430C0F480910401823040F0E091040101
:100920008091C501F0E0E250FF4F80838091040187
:100930008F5F8093040180910401843019F48FEF5C
:1009400080930401809103018031C0F48091030100
:10095000843040F0E09103018091C501F0E0E95856
:10096000FB4F8083809103018F5F8093030180910F
:100970000301803119F48FEF80930301809102010C
:100980008730B8F4E09102018091C501F0E0E957A9
:10099000FB4F8083809102018F5F809302018091E1
:1009A0000201873031F48FEF8093020181E0809360
:1009B000C4018091C6019091C701A091C801B09176
:1009C000C9018C3A9440AF43BF4329F41092C4014B
:1009D000109206013FC08091C6019091C701A0917D
:1009E000C801B091C9018C3A9540AF43BF4319F497
:1009F000109205012FC08091C6019091C701A0916E
:100A0000C801B091C9018C3A9B40AF43BF4319F470
:100A1000109204011FC08091C6019091C701A0915E
:100A2000C801B091C9018C3A9E40AF43BF4319F44D
:100A3000109203010FC08091C6019091C701A0914F
:100A4000C801B091C9018C3A9F40AF43BF4311F434
:100A5000109202018091000190910101843F914028
:100A6000F0F48091000190910101892BC1F08091F7
:100A7000C4018823A1F081E08093590457988FEF37
:100A80009FEF90930101809300011092C401109296
:100A9000C6011092C7011092C8011092C901FF91BE
:100AA000EF91BF91AF919F918F912F910F900BBEBE
:100AB0000F900FBE0F901F901895CF93DF93C9E44E
:100AC000D4E0BE0182E20E948107219684E0C03515
:100AD000D807B9F7DF91CF9108956091490482E278
:100AE0000C94D607CF93DF93CBE9D0E01882AAE924
:100AF000B0E01C92EDE9F0E010828881826088838A
:100B00008C9188618C9380818E60808387E680934E
:100B1000990010929800DF91CF91089580919B00E9
:100B200087FFFCCF80919C000895FC012191CF01AB
:100B3000222339F030919B0035FFFCCF20939C009D
:100B4000F4CF0895AF92BF92CF92DF92EF92FF92CF
:100B50000F931F93CF93DF93CDB7DEB7C456D10960
:100B60000FB6F894DEBF0FBECDBF83EB91E00E94BD
:100B700095050E948E05C82ED12CDC2CCC240E9419
:100B80008E05C82A0E948E05E82EF12CFE2CEE243C
:100B90000E948E05E82A0E948E05082F10E0102F73
:100BA00000270E948E05082B0E948E051F930F932D
:100BB000FF92EF92DF92CF9289EB91E09F938F9318
:100BC000CE0101965C01BF928F930E943821F501FE
:100BD00001900020E9F7BF01615071096A197B0992
:100BE000C5010E946C06B601882777FD8095982F75
:100BF0000E94C01D20E030E64AE656E40E94561DE1
:100C000060933D0470933E0480933F0490934004AE
:100C1000B701882777FD8095982F0E94C01D20E09E
:100C200030E64AE656E40E94561D609341047093F4
:100C300042048093430490934404B801882777FDCD
:100C40008095982F0E94C01D20E030E64AE656E4C9
:100C50000E94561D60934504709346048093470498
:100C6000909348040FB6F894DEBF0FBECDBFCC59A9
:100C7000DF4F0FB6F894DEBF0FBECDBFDF91CF912F
:100C80001F910F91FF90EF90DF90CF90BF90AF90AA
:100C90000895E9E4F4E0908121E030E001C0220F02
:100CA0008A95EAF7922B90830C946D05E9E4F4E0C1
:100CB000908121E030E001C0220F8A95EAF720956B
:100CC000292320830C946D05579A08950E941507D7
:100CD0000C9418070C94A205680F791F86179707C4
:100CE00039F05D9BFECFFC012191CF012CB9F6CFED
:100CF000089584B3886384BB82B1886382B9ABE80A
:100D0000B0E01C92EAE8F0E0108210928C008C9126
:100D10008A6A8C938081816180838FEF9FEF9093AB
:100D2000810080938000E4E8F0E01182108211825B
:100D300010821182108285B3877C85BB08958091D3
:100D40005604882311F0AD9A01C0AD9880915704E4
:100D5000882311F0AC9A01C0AC9880915804882384
:100D600011F0AB9A01C0AB9880915004909151045E
:100D70009093870080938600809152049091530451
:100D80009093850080938400809154049091550441
:100D900090938300809382000895109251041092E2
:100DA0005004109253041092520410925504109261
:100DB00054041092560410925704109258040C9444
:100DC0009F0687B3807F87BBBB9A80EC8DB908955F
:100DD00017BA86E087BB87B3816387BB88B381631B
:100DE00088BB83E58DB9089598B3916398BB98B398
:100DF00021E030E0082E01C0220F0A94EAF7209586
:100E0000292328BB0895680F791F8617970739F0A3
:100E1000FC012191CF012FB9779BFECFF6CF08952A
:100E20008FB9779BFECF8FB10895BE9AC69A089569
:100E3000DF92EF92FF920F931F93CF93DF9300E027
:100E400010E0C598C02FC695C8618C2F0E9410076E
:100E500098013695322F222737952795822F806467
:100E6000D82E0E941007C59A82E08A95F1F700C03B
:100E7000C5988C2F0E9410078D2D0E941007C59ACF
:100E800082E08A95F1F700C0C5988C2F0E94100768
:100E9000282F30E0E801CC0FDD1FCC5FDB4F3EA7F1
:100EA0002DA72DA53EA5322F22273EA72DA72DA584
:100EB0003EA522273F703EA72DA7EDA4FEA48D2DB1
:100EC0000E941007E82AFEA6EDA6C59A82E08A9540
:100ED000F1F700C00F5F1F4F0630110509F0B1CFC9
:100EE000C698DF91CF911F910F91FF90EF90DF9007
:100EF0000895109271001092740088E4809370003D
:100F0000089524EA209374009091740097FFFCCF19
:100F100090917100987F9833A9F390917100987F18
:100F2000903129F090917100987F9830C9F5880F21
:100F30008F5F8093730084E88093740080917400C5
:100F400087FFFCCF80917100887F883401F1809108
:100F50007100887F883339F180917100887F8034F7
:100F6000E1F485E88A95F1F7000084E88093740045
:100F70008091740087FFFCCF80917100887F80355D
:100F800011F0883551F480917300FB01808384E96E
:100F90008093740081E090E0089584E98093740068
:100FA0008FEF9FEF08958EEF9FEF089524EA20932F
:100FB00074009091740097FFFCCF90917100987F1E
:100FC0009833A9F390917100987F903129F0909116
:100FD0007100987F9830A9F5880F8093730084E89A
:100FE000809374008091740087FFFCCF8091710022
:100FF000887F803201F180917100887F883321F1F0
:1010000080917100887F883191F485E88A95F1F7A5
:1010100000006093730084E88093740080917400F2
:1010200087FFFCCF80917100887F883221F084E9AE
:101030008093740006C084E98093740081E090E09E
:1010400008958FEF9FEF08958EEF9FEF08951BB8DF
:101050001AB8E5E9F0E01082599A8AB188618AB934
:1010600080818E60808387E689B910929000089510
:10107000CF93DF93CBE9D0E01882AAE9B0E01C92CD
:10108000EDE9F0E010828881826088838C9188612C
:101090008C9380818E60808387E680939900109284
:1010A0009800DF91CF91089590919B0095FFFCCF20
:1010B00080939C0008955D9BFECF8CB9089580912C
:1010C0009B0087FFFCCF80919C0008955F9BFECF23
:1010D0008CB10895FC012191CF01222339F0309188
:1010E0009B0035FFFCCF20939C00F4CF0895FC01BA
:1010F0002191CF01222321F05D9BFECF2CB9F7CFA8
:1011000008958DE2E3E6F4E0A4E0B4E001900D92EE
:101110008A95E1F71092300410922F046091040434
:101120007091050480910604909107040E94C01DEF
:1011300020E030E04AE754E40E94561D6093D80155
:101140007093D9018093DA019093DB0160910804D8
:101150007091090480910A0490910B040E94C01DB3
:1011600020E030E04AE754E40E94561D6093DC0121
:101170007093DD018093DE019093DF0160910C0498
:1011800070910D0480910E0490910F040E94C01D77
:1011900020E030E04AE754E40E94561D6093E001ED
:1011A0007093E1018093E2019093E3016091100458
:1011B0007091110480911204909113040E94C01D3B
:1011C00020E030E04AE754E40E94561D6093CC01D1
:1011D0007093CD018093CE019093CF016091140460
:1011E0007091150480911604909117040E94C01DFF
:1011F00020E030E04AE754E40E94561D6093D0019D
:101200007093D1018093D2019093D301609118041F
:101210007091190480911A0490911B040E94C01DC2
:1012200020E030E04AE754E40E94561D6093D40168
:101230007093D5018093D6019093D7010E94940DAD
:1012400060EF71E088ED91E00E94C10D64EE71E005
:101250008CEC91E00E94C10D60911C0470911D0402
:1012600080911E0490911F040E94C01D20E836E961
:1012700048E15BE40E94561D25E33AEF4EE85CE34B
:101280000E941F1F609390047093910480939204B6
:101290009093930460912004709121048091220422
:1012A000909123040E94C01D20E836E948E15BE4E8
:1012B0000E94561D25E33AEF4EE85CE30E941F1F93
:1012C000609394047093950480939604909397048C
:1012D0001092590408954F925F926F927F928F926D
:1012E0009F92AF92BF92CF92DF92EF92FF920F93B5
:1012F0001F93CF93DF93CDB7DEB7A0970FB6F894C7
:10130000DEBF0FBECDBF8C01BE01635F7F4F80EF9C
:1013100091E00E94480ECE010D960E941F182B01ED
:101320003C019B01AC010E941F1F9B01AC0161EBC2
:101330007AE186E791E50E94561D4B015C0120E0B1
:1013400030E040E450E4C301B2010E94821F6B010F
:101350007C0120E030E040E850E4C301B2010E948B
:10136000821F2B013C018D899E89AF89B88D898FA1
:101370009A8FAB8FBC8F28E938E045E05CE3BC0175
:10138000CD010E941F1F2AEC3EEF43E156E50E946B
:101390001F1FA30192010E94561D6D8F7E8F8F8F9C
:1013A00098A320E030E040E85FE3C501B4010E946B
:1013B000761C2D8D3E8D4F8D58A10E94761C2B01E1
:1013C0003C0121EF39E445EB57ED6D857E858F8536
:1013D00098890E941F1FA30192010E941F1FA7014D
:1013E00096010E94561D69837A838B839C8321EF2B
:1013F00039E445EB57ED69897A898B899C890E948C
:101400001F1FA30192010E941F1FA70196010E94A6
:10141000561D6D837E838F83988721EF39E445EBDA
:1014200057ED698D7A8D8B8D9C8D0E941F1F2B012E
:101430003C0120E030E040E450E4C501B4010E94EA
:101440001F1F20E030E040E85FE30E94761C2D8DF6
:101450003E8D4F8D58A10E94761C9B01AC01C301AB
:10146000B2010E941F1FA70196010E94561D6987A5
:101470007A878B879C87B801CE0101960E94C10DA7
:10148000A0960FB6F894DEBF0FBECDBFDF91CF910F
:101490001F910F91FF90EF90DF90CF90BF90AF9092
:1014A0009F908F907F906F905F904F9008959F9244
:1014B000AF92BF92CF92DF92EF92FF920F931F9362
:1014C000CF93DF93CDB7DEB768970FB6F894DEBF42
:1014D0000FBECDBF2AE0922E5E0189E1A80EB11C9D
:1014E000CE010D960E946B09BE016F5F7F4F84EEA7
:1014F00091E00E94F1178E01035F1F4F94EEE92ED9
:1015000091E0F92EF80161917191819191918F0192
:101510002DEC3CEC4CE45EE30E941F1F9B01AC01F0
:10152000F70160817181828193810E94761CF701AD
:1015300061937193819391937F010A151B0511F7B4
:10154000CE0101966C0180EFE82E81E0F82E04EECA
:1015500011E0F80161917191819191918F01F601F2
:1015600021913191419151916F010E94761C20E0AF
:1015700030E040E05FE30E941F1F2DEC3CEC4CE4A8
:101580005EE30E941F1F9B01AC01F7016081718126
:10159000828193810E94761CF701619371938193FC
:1015A00091937F01F1E0003F1F0799F69A9409F0AB
:1015B00097CF68960FB6F894DEBF0FBECDBFDF9110
:1015C000CF911F910F91FF90EF90DF90CF90BF9040
:1015D000AF909F9008954F925F926F927F928F92FB
:1015E0009F92AF92BF92CF92DF92EF92FF920F93B2
:1015F0001F93CF93DF93CDB7DEB72C970FB6F89438
:10160000DEBF0FBECDBF8C012091A4043091A50494
:101610004091A6045091A7046091A8047091A90478
:101620008091AA049091AB040E94FB1D20E030EC55
:1016300048EA57E40E94561D2BED3FE049EC50E488
:101640000E941F1F21ED30EA46EB53E40E94561D15
:101650002B013C010E94CE1F4B015C0120E93EE2C0
:101660004CEC5EE30E941F1F0E94DA1C6B017C01A0
:10167000C301B2010E94531D2B013C0124E333EC52
:101680004AE65FE3C501B4010E941F1FA301920156
:101690000E94001D2B013C01C701B6010E94531D91
:1016A0004B015C01C301B2010E94531D9B01AC01BF
:1016B000C501B4010E941F1F69837A838B839C83B9
:1016C000C301B2010E94CE1F9B01AC01C501B40150
:1016D0000E941F1F6D837E838F839887C701B60189
:1016E0000E94CE1F69877A878B879C879801AE01FD
:1016F0004F5F5F4F64EE71E080EF91E00E94D20E89
:101700002C960FB6F894DEBF0FBECDBFDF91CF9100
:101710001F910F91FF90EF90DF90CF90BF90AF900F
:101720009F908F907F906F905F904F900895AF92B1
:10173000BF92CF92DF92EF92FF920F931F93CF93BE
:10174000DF93CDB7DEB7E0970FB6F894DEBF0FBEDC
:10175000CDBF5C0120919C0430919D0440919E047A
:1017600050919F046091A0047091A1048091A20403
:101770009091A3040E94FB1D20EC39E940EF5BE44B
:101780000E94561D20E030E44BEF54E40E94761C8A
:101790006B017C01BE016B5D7F4F80EF91E00E9489
:1017A000480EBE01675E7F4FCE0185960E94840F72
:1017B00060E974E0CE0149960E94F1178E01035F43
:1017C0001F4F28E0B701A601CE0149960E94711172
:1017D000AE014B5D5F4FBE01675E7F4FC8010E9447
:1017E000BC10BE016F5F7F4FCE0185960E94C10D78
:1017F0009501AE014F5F5F4F64EE71E080EF91E0C5
:101800000E94D20E4FE550E769E870E3C5010E94DF
:10181000151AE0960FB6F894DEBF0FBECDBFDF916C
:10182000CF911F910F91FF90EF90DF90CF90BF90DD
:10183000AF900895CF93DF9382508B3050F4E82F10
:10184000F0E0EE0FFF1FE95FFE4F808191819C0168
:1018500002C020E030E040E050E060E070E080E076
:1018600090E0DF91CF9108952F923F924F925F9237
:101870006F927F928F929F92AF92BF92CF92DF92A0
:10188000EF92FF920F931F93CF93DF93CDB7DEB705
:101890002B970FB6F894DEBF0FBECDBF6A874D837E
:1018A0002C830E83EF821C019C0140E050E060E03D
:1018B00070E080E090E003E00E94261CF9014B8379
:1018C0005B876887B72FA82F99870E94261C59012C
:1018D0006A017B018C019F014B815B8568857B2FB1
:1018E0008A2F99850E943F1C5101C12CD12CE12CDB
:1018F000F12C00E010E00E943F1C59016A017B01BD
:10190000F82F192F04E00E94261C0F2F0E94541C50
:1019100059016A017B01F82F192F04E00E94261C4F
:101920000F2F0E94541C59016A017B01F82F192FB7
:1019300004E00E94261C0F2F0E94541C07E00E9406
:10194000261C422E332E242E59836A837B8388875C
:101950009987AA85A250AB3058F4EA2FF0E0EE0F39
:10196000FF1FE95FFE4F008111810A87512E02C0DF
:101970001A86512C2F8130E040E050E060E070E0AA
:1019800080E090E03B554E42524C6E407109810917
:1019900091096901E42E652E762E872E982E9F835D
:1019A000BE816B2F70E080E090E02CE330E040E0FF
:1019B00050E00E94FB1B5901A42FF52FE62FF72EB4
:1019C0008C0196014E2D562D672D782D892D9F81E6
:1019D000CA2EDF2EEE2E0E943F1C39014A01F62F3F
:1019E000B72FA82F9E832C8130E040E050E060E0CC
:1019F00070E080E090E004E00E94261CAC80B12CF6
:101A0000C12CD12CE12CF12C00E010E00E94541CE0
:101A100059016A017B01E82F192F04E00E94261C5E
:101A20000E2F0E94541C04E00E94261C59016A01DA
:101A30007B018C019301A4016F2F7B2F8A2F9E8144
:101A40000E943F1CA42CB32CC22CD980EA80FB80BE
:101A5000088519850E943F1C422E632E742E852E08
:101A6000962EF72FB82F392E2D8130E040E050E030
:101A700060E070E080E090E0AFEF0E94481CAA8434
:101A8000B52CC12CD12CE12CF12C00E010E00E94EF
:101A90003F1C59016A017B01E82F192F02E00E94C7
:101AA000261C0E2F0E94541C59016A017B01E82F4D
:101AB000192F04E00E94261C0E2F0E94541C59016D
:101AC0006A017B01E82F192F04E00E94261C0E2FCB
:101AD0000E94541C07E00E94261C59016A017B01E8
:101AE0008C01242D362D472D582D692D7F2F8B2FBE
:101AF000932D0E943F1C2B960FB6F894DEBF0FBEAD
:101B0000CDBFDF91CF911F910F91FF90EF90DF90AC
:101B1000CF90BF90AF909F908F907F906F905F908D
:101B20004F903F902F900895EF920F9380912D0446
:101B300090912E04E0902A04009129042091280419
:101B400040912B0460912C040E94340C20593B4C92
:101B50004746510961097109810991092093A4043B
:101B60003093A5044093A6045093A7046093A8045F
:101B70007093A9048093AA049093AB040F91EF9003
:101B800008954F925F926F927F92AF92BF92CF92E1
:101B9000DF92EF92FF920F931F93CF93DF93CDB716
:101BA000DEB7A4970FB6F894DEBF0FBECDBF8C0191
:101BB0005B012091A4043091A5044091A6045091AA
:101BC000A7046091A8047091A9048091AA0490913F
:101BD000AB040E94FB1D27EB39E540E85FE30E9460
:101BE0001F1F24E532E848E958E30E941F1F2B011C
:101BF0003C010E94531D6B017C0169837A838B83B6
:101C00009C83C301B2010E94CE1F6D837E838F83AC
:101C1000988719861A861B861C86DC01CB01B05872
:101C20008D879E87AF87B88BC98ADA8AEB8AFC8A50
:101C30001D8A1E8A1F8A188E198E1A8E1B8E1C8E64
:101C40001D8E1E8E1F8E18A280E090E0A0E8BFE3DC
:101C500089A39AA3ABA3BCA3A501BE016F5F7F4F6D
:101C6000C8010E943C19A4960FB6F894DEBF0FBEBF
:101C7000CDBFDF91CF911F910F91FF90EF90DF903B
:101C8000CF90BF90AF907F906F905F904F900895EE
:101C90004F925F926F927F92AF92BF92CF92DF92FC
:101CA000EF92FF920F931F93CF93DF93CDB7DEB7E1
:101CB000A4970FB6F894DEBF0FBECDBF8C015B01B9
:101CC0002091A4043091A5044091A6045091A7044A
:101CD0006091A8047091A9048091AA049091AB042A
:101CE0000E94FB1D27EB39E540E85FE30E941F1FC0
:101CF00024E532E848E958E30E941F1F2B013C010C
:101D00000E94531D6B017C0169837A838B839C83C2
:101D1000C301B2010E94CE1F2B013C0177FA7094DF
:101D200077F870944D825E826F82788619861A8663
:101D30001B861C866D877E878F87988BC98ADA8A77
:101D4000EB8AFC8A1D8A1E8A1F8A188E198E1A8EAB
:101D50001B8E1C8E1D8E1E8E1F8E18A280E090E0A2
:101D6000A0E8BFE389A39AA3ABA3BCA3A501BE01CE
:101D70006F5F7F4FC8010E943C19A4960FB6F8947C
:101D8000DEBF0FBECDBFDF91CF911F910F91FF90AE
:101D9000EF90DF90CF90BF90AF907F906F905F906B
:101DA0004F900895CF92DF92EF92FF920F931F937F
:101DB000CF93DF93CDB7DEB7C854D1090FB6F894EF
:101DC000DEBF0FBECDBF8C01CB017A016901AE0130
:101DD0004F5C5F4FB8010E949419CE01C1960E94DA
:101DE0006B1AF80180819181A281B381B0588DA3D3
:101DF0009EA3AFA3B8A744815581668177817058AF
:101E000049A75AA76BA77CA780859185A285B38532
:101E1000B0588DA79EA7AFA7B8ABCE0185960E94FC
:101E20006B1AAE01435C5F4FBE016B5D7F4FCE010D
:101E3000C1960E949419CE01CD960E946B1A2196EC
:101E40008CAD9DADAEADBFAD219789839A83AB8339
:101E5000BC8389A99AA9ABA9BCA98D839E83AF83B2
:101E6000B8878DA19EA1AFA1B8A589879A87AB87B6
:101E7000BC8725968CAD9DADAEADBFAD25978D874A
:101E80009E87AF87B88B8DA99EA9AFA9B8AD898B66
:101E90009A8BAB8BBC8B89A59AA5ABA5BCA58D8B6A
:101EA0009E8BAF8BB88F29968CAD9DADAEADBFAD7F
:101EB0002997898F9A8FAB8FBC8F89AD9AADABADC7
:101EC000BCAD8D8F9E8FAF8FB8A30DA51EA52FA57E
:101ED00038A909A31AA32BA33CA3A601BE016F5FD7
:101EE0007F4FC7010E943C19C85BDF4F0FB6F894C3
:101EF000DEBF0FBECDBFDF91CF911F910F91FF903D
:101F0000EF90DF90CF9008952F923F924F925F9283
:101F10006F927F928F929F92AF92BF92CF92DF92F9
:101F2000EF92FF921F93CF93DF93CDB7DEB7649705
:101F30000FB6F894DEBF0FBECDBF1B01DC018D9044
:101F40009D90AD90BC9013971496CD90DD90ED9040
:101F5000FC90179718968D919D910D90BC91A02D96
:101F600089839A83AB83BC83A5019401C701B60121
:101F70000E94001D6D877E878F87988BA501940135
:101F8000C501B4010E941F1F4B015C01A70196010E
:101F9000C701B6010E941F1F9B01AC01C501B4011E
:101FA0000E94761C0E94D81F6B017C0125E434E25C
:101FB0004FE75FE30E941F1F9B01AC0169817A819B
:101FC0008B819C810E94001D4B015C0115E0C501C5
:101FD000B4010E94531D20E030E040E450E40E9430
:101FE000821F2B013C01C501B4010E94CE1F20E0DD
:101FF00030E040E450E40E94821F4B015C012EEA75
:1020000039EC46E257E4C301B2010E941F1F9B0155
:10201000AC01C701B6010E94751C2B013C0122E5F1
:1020200039E547E257E4C501B4010E941F1F9B0137
:10203000AC0169817A818B819C810E94761CA3010D
:1020400092010E94001D6D837E838F8398870E947A
:10205000531D69877A878B879C876D817E818F81ED
:1020600098850E94CE1F2B013C0125E434E24FE706
:102070005FE30E941F1F29853A854B855C850E947E
:10208000001D4B015C01115009F0A1CF2AE83CE58D
:102090004BED5BE3C301B2010E941F1F4B015C01CA
:1020A0009B01AC0160E070E080E89FE30E94751C3A
:1020B0000E94D81F698B7A8B8B8B9C8B8D819E8124
:1020C000AF81B885F10180839183A283B3838D852D
:1020D0009E85AF85B88984839583A683B783298538
:1020E0003A854B855C85C701B6010E941F1F6B01B5
:1020F0007C01A501940169817A818B819C810E9478
:10210000761CA30192010E941F1F9B01AC01C70115
:10211000B6010E94761C6B017C0129893A894B89A2
:102120005C8962E375EA82EC9AE40E94561D9B0189
:10213000AC01C701B6010E94751CD10118966D93C0
:102140007D938D939C931B9764960FB6F894DEBF96
:102150000FBECDBFDF91CF911F91FF90EF90DF9029
:10216000CF90BF90AF909F908F907F906F905F9037
:102170004F903F902F9008952F923F924F925F92F1
:102180006F927F928F929F92AF92BF92CF92DF9287
:10219000EF92FF920F931F93CF93DF93CDB7DEB7EC
:1021A000AC970FB6F894DEBF0FBECDBF1C017B010C
:1021B0008A01DB014D905D906D907C90C301B2016E
:1021C0000E94531D6DA37EA38FA398A7F701C4801F
:1021D000D580E680F780C701B6010E94531D4B01F0
:1021E0005C01C301B2010E94CE1F2B013C01C7015B
:1021F000B6010E94CE1F6B017C0177FA709477F8CC
:1022000070948DA19EA1AFA1B8A5B05889A79AA737
:10221000ABA7BCA7A5019401C301B2010E941F1F77
:1022200069837A838B839C83A7019601C301B201E2
:102230000E941F1F6D837E838F8398878DA19EA12F
:10224000AFA1B8A589879A87AB87BC87D701C6019C
:10225000B0588D879E87AF87B88B898A9A8AAB8A58
:10226000BC8A1D8A1E8A1F8A188EA501940169A541
:102270007AA58BA59CA50E941F1F698F7A8F8B8FD3
:102280009C8FA701960169A57AA58BA59CA50E94A4
:102290001F1F6D8F7E8F8F8F98A349A25AA26BA2AA
:1022A0007CA2A801BE016F5F7F4FC1010E943C1953
:1022B000AC960FB6F894DEBF0FBECDBFDF91CF91C5
:1022C0001F910F91FF90EF90DF90CF90BF90AF9054
:1022D0009F908F907F906F905F904F903F902F9046
:1022E00008952F923F924F925F926F927F928F92BA
:1022F0009F92AF92BF92CF92DF92EF92FF920F9395
:102300001F93CF93DF93CDB7DEB7CF54D1090FB66C
:10231000F894DEBF0FBECDBFFC0149835A836B83A7
:102320007C83322E21961FAF0EAF21978080918043
:10233000A280B380C480D580E680F78020E030E0C2
:102340004AE754E460857185828593850E94561D15
:1023500069877A878B879C87C501B4010E94CE1F4D
:102360002B013C01C501B4010E94531D6D837E8386
:102370008F83988720E030E44BEF54E469817A81C1
:102380008B819C810E94751C25966CAF7DAF8EAFB2
:102390009FAF2597C701B6010E94531D60933C0271
:1023A00070933D0280933E0290933F02C701B601B5
:1023B0000E94CE1F6093000270930102809302027C
:1023C000909303022EE23FE24BE15CE46D817E815B
:1023D0008F8198850E941F1F2D813E814F815885D6
:1023E0000E941F1F4B015C012BE335E24AE15CE4D4
:1023F000C301B2010E941F1FA30192010E941F1F6F
:102400006B017C019B01AC01C501B4010E94761CEB
:102410006D877E878F87988B0E94D81F69837A8308
:102420008B839C839B01AC010E94761C9B01AC01B9
:1024300069857A858B859C850E94761C9B01AC0101
:1024400069857A858B859C850E941F1F698B7A8B95
:102450008B8B9C8B2EE23FE24BE15CE4C501B40127
:102460000E941F1F4B015C012BE335E24AE15CE453
:10247000C701B6010E941F1F9B01AC01C501B40139
:102480000E94761C2D853E854F8558890E94561DD9
:102490009B01AC0169897A898B899C890E94761C91
:1024A0000E94D81F4B015C0129813A814B815C81DC
:1024B00069857A858B859C850E94761CA50194018F
:1024C0000E94561D6FA778AB89AB9AAB20E839EF15
:1024D00044E858E4C301B2010E941F1F2D813E81D0
:1024E0004F8158850E941F1F6B017C01A50194013B
:1024F00069817A818B819C810E941F1F9B01AC01A5
:10250000C701B6010E94561D6BAB7CAB8DAB9EAB79
:102510002FA538A949A95AA9C301B2010E941F1FBA
:102520006B017C012BA93CA94DA95EA96D817E811F
:102530008F8198850E941F1F9B01AC01C701B601C6
:102540000E94751C69837A838B839C832FA538A98D
:1025500049A95AA96D817E818F8198850E941F1F8C
:102560006B017C012BA93CA94DA95EA9C301B20155
:102570000E941F1F9B01AC01C701B6010E94761C7F
:102580006D837E838F83988729813A814B815C811B
:10259000CA01B9010E94761C609340037093410305
:1025A00080934203909343032D813E814F81588550
:1025B000CA01B9010E94761C6093440370934503DD
:1025C000809346039093470320E030E040E950E4D5
:1025D00069817A818B819C810E941F1F29813A81A8
:1025E0004B815C810E941F1F20E030E040EC5FE3E4
:1025F0000E94751C609348037093490380934A03BB
:1026000090934B0321EE36E446EA50E46D817E81DF
:102610008F8198850E941F1F29813A814B815C819F
:102620000E941F1F60934C0370934D0380934E03D1
:1026300090934F038D819E81AF81B885B058809370
:10264000780290937902A0937A02B0937B02298159
:102650003A814B815C8120937C0230937D024093D0
:102660007E0250937F0220E030E040E450EC6D8128
:102670007E818F8198850E941F1F29813A814B811D
:102680005C810E941F1F609380027093810280937F
:1026900082029093830229813A814B815C81CA0135
:1026A000B9010E941F1F6B017C012D813E814F816A
:1026B0005885CA01B9010E941F1F9B01AC01C701C7
:1026C000B6010E94751C27ED33EB4DED5FE30E94D0
:1026D0001F1F6093840270938502809386029093FB
:1026E0008702A50194016AE979E187EC95E40E94EB
:1026F000561D29966CAF7DAF8EAF9FAF2997432DA6
:1027000050E09A012D5F3F4F429FC001439F900DC3
:10271000529F900D1124959587952A968FAF2A97F1
:102720001AA631E03D87198A41E0498751E059A74F
:102730001BAE1CAE1DAE1EAE1D8E1E8E1F8E18A2B1
:102740001DA21EA21FA218A6198E1A8E1B8E1C8EE9
:102750003D852A964FAD2A97431708F4D5C389893A
:1027600099858917E8F48F5F898B682F70E06E5F19
:102770007F4F882777FD8095982F0E94C01D9B0171
:10278000AC0129966CAD7DAD8EAD9FAD29970E94B1
:10279000821F6BAF7CAF8DAF9EAFA989AAA71986A8
:1027A000BD85B53008F413C2E985F989EF13F6C089
:1027B0002E2E312CB101882777FD8095982F0E940D
:1027C000C01D6B017C019B01AC0160E070E080E00A
:1027D0009FE30E94561D9B01AC0160E070E080E821
:1027E0009FE30E94751C0E94D81F4B015C012D8540
:1027F000022F10E038016218730831E0631A710883
:10280000000F111F000F111FA801445C5C4F2A012B
:10281000A701960160E070E080E89FE30E94561DEA
:1028200020E030E040E85FE30E94761CA5019401BF
:102830000E941F1F2D813E814F8158850E941F1FBE
:10284000660C771C660C771CD301A45CBC4FBE8B56
:10285000AD8B2D913D914D915C910E941F1FF20116
:1028600060837183828393830C581D4FF301EC586E
:10287000FD4F20813181428153816D817E818F8125
:1028800098850E941F1F2B013C01AD89BE892D91A7
:102890003D914D915C9169817A818B819C810E94EF
:1028A0001F1FA70196010E94561D9B01AC01C30189
:1028B000B2010E94761C9B01AC01C501B4010E94CB
:1028C0001F1FF8016083718382839383810101500C
:1028D000110980903C0290903D02A0903E02B09081
:1028E0003F02000F111F000F111FF801E85CFD4FA0
:1028F000C080D180E280F3809101220F331F220F2C
:10290000331F3E8B2D8B24503E4F190104501E4F18
:10291000D8012D913D914D915C91C501B4010E946A
:102920001F1F2B013C0120910002309101024091B8
:10293000020250910302C701B6010E941F1F9B01B2
:10294000AC01C301B2010E94761CF1016083718366
:10295000828393832D893E89285C3D4F3901A501EF
:102960009401C701B6010E941F1F6B017C012091D9
:102970000002309101024091020250910302D801FD
:102980006D917D918D919C910E941F1F9B01AC01C7
:10299000C701B6010E94751CF30115C1F985FF9F9F
:1029A000800111242AA5229FB0011124601B710B04
:1029B000882777FD8095982F0E94C01D0E94D81F00
:1029C0006B017C013AA5632F70E080E090E00E94EB
:1029D000C01D2B013C0120E030E040E85FE30E9495
:1029E000751C6D8B7E8B8F8B988F9B01AC010E9429
:1029F0001F1F4B015C01B801882777FD8095982F38
:102A00000E94C01D9B01AC01C501B4010E94751C50
:102A10000E94D81FA70196010E94561D69A37AA3A0
:102A20008BA39CA3A3019201C301B2010E94761C57
:102A300020E030E040E85FE30E94751CA7019601AA
:102A40000E94561D6B017C014D85242E312C598925
:102A5000852F90E0D101A81BB90BBCA7ABA78D01B6
:102A6000081B190B0F5F1F4F220C331C220C331C49
:102A7000F101E45CFC4FF8AFEFAB20E030E040E860
:102A80005FE3C301B2010E94761C4B015C01298106
:102A90003A814B815C81C701B6010E941F1F2BA5A3
:102AA0003CA5220F331F220F331F60963FAF2EAF7E
:102AB0006097245C3C4F3CA72BA7D9012D913D91F9
:102AC0004D915C910E941F1FA30192010E94561D0F
:102AD0002E966CAF7DAF8EAF9FAF2E97000F111F5C
:102AE000000F111FF801E45CFC4F2081318142810D
:102AF000538169A17AA18BA19CA10E941F1F2D89DE
:102B00003E894F89588D0E94561D9B01AC012E961F
:102B10006CAD7DAD8EAD9FAD2E970E94751C9B0157
:102B2000AC01C501B4010E941F1FEFA9F8AD60837D
:102B300071838283938391012C583D4F19016096D4
:102B4000EEADFFAD6097EC58FD4F208131814281A1
:102B5000538169817A818B819C810E941F1F4B0167
:102B60005C01ABA5BCA52D913D914D915C916D8112
:102B70007E818F8198850E941F1FA30192010E9470
:102B8000561D9B01AC01C501B4010E94751C9B013F
:102B9000AC01C701B6010E941F1F6B017C01F80147
:102BA000EC58FD4F208131814281538169A17AA186
:102BB0008BA19CA10E941F1F9B01AC01C701B60104
:102BC0000E94751CF1016083718382839383F9A550
:102BD0000F2F10E0F801EE0FFF1FEE0FFF1FEA5559
:102BE000FB4FC590D590E590F490F801EE0FFF1FD4
:102BF000EE0FFF1FEA56FE4F6591759185919491F6
:102C000025962CAD3DAD4EAD5FAD25970E941F1FA3
:102C10009B01AC01C701B6010E94761C2BAD3CADF7
:102C20004DAD5EAD0E941F1F4B015C012985211136
:102C300035C04D8534E0439F80011124F801EC58E4
:102C4000FD4F20813181428153810E941F1F9B01D2
:102C5000AC01698D7A8D8B8D9C8D0E94761C698F5D
:102C60007A8F8B8F9C8FF801E45CFC4F208131813F
:102C700042815381C501B4010E941F1F9B01AC0119
:102C80006D8D7E8D8F8D98A10E94751C6D8F7E8FAE
:102C90008F8F98A359A55F5F59A72FC10F5F1F4F53
:102CA000F801EE0FFF1FEE0FFF1FEA55FB4FC59017
:102CB000D590E590F490F801EE0FFF1FEE0FFF1F87
:102CC000EA56FE4F659175918591949125962CADAC
:102CD0003DAD4EAD5FAD25970E941F1F9B01AC011E
:102CE000C701B6010E94761C2BAD3CAD4DAD5EAD6B
:102CF0000E941F1F6B017C018985082F10E0C8010D
:102D0000880F991F880F991FFC01E85CFD4F2081F7
:102D10003181428153812D8B3E8B4F8B588F9C018B
:102D200024503E4FD9018D919D910D90BC91A02DC5
:102D300089A39AA3ABA3BCA32D893E894F89588D43
:102D4000C501B4010E941F1F2B013C0129A13AA11A
:102D50004BA15CA1C701B6010E941F1F9B01AC01E2
:102D6000C301B2010E94761C2B013C01ED85B4E049
:102D7000EB9F1001112491012C583D4FD9018D91E9
:102D80009D910D90BC91A02D8BA79CA7ADA7BEA730
:102D90009C01AD01C301B2010E941F1F9B01AC0148
:102DA000698D7A8D8B8D9C8D0E94761C698F7A8FB0
:102DB0008B8F9C8F9101245C3C4FD9018D919D910B
:102DC0000D90BC91A02D8FAB98AFA9AFBAAF9C016D
:102DD000AD01C301B2010E941F1F9B01AC016D8DAB
:102DE0007E8D8F8D98A10E94751C6D8F7E8F8F8F29
:102DF00098A320E030E0A9016D817E818F819885C4
:102E00000E94141F29A13AA14BA15CA118160CF035
:102E100045C0C501B4010E941F1F4B015C012D89F3
:102E20003E894F89588DC701B6010E941F1F9B0123
:102E3000AC01C501B4010E94751C6B017C01B80195
:102E4000882777FD8095982F0E94C01D9B01AC01BB
:102E5000C701B6010E941F1F2FA938AD49AD5AAD59
:102E60000E941F1F6B017C01BAA56B2F70E080E0F0
:102E700090E00E94C01D20E030E040E85FE30E9447
:102E8000761C2D813E814F8158850E941F1F9B011A
:102E9000AC01C701B6010E94561D20C0C501B40196
:102EA0000E941F1F4B015C012D893E894F89588D5F
:102EB000C701B6010E941F1F9B01AC01C501B401EF
:102EC0000E94751C2BA53CA54DA55EA50E941F1F49
:102ED00029813A814B815C810E941F1F9B01AC01BB
:102EE0006DA17EA18FA198A50E94761C6DA37EA3E3
:102EF0008FA398A7E9A5EE5FE9A7F985FF5FF9879A
:102F00002D852F5F2D8724CC2FA538A949A95AA933
:102F10006D8D7E8D8F8D98A10E941F1F6B017C018E
:102F20002FA538A949A95AA9698D7A8D8B8D9C8DB9
:102F30000E941F1F4B015C012BA93CA94DA95EA952
:102F40006D8D7E8D8F8D98A10E941F1F9B01AC01FE
:102F5000C501B4010E94761C2196AEADBFAD21978C
:102F60006D937D938D939C9313972DA13EA14FA1BB
:102F700058A514962D933D934D935C9317972BA9C9
:102F80003CA94DA95EA9698D7A8D8B8D9C8D0E947F
:102F90001F1F9B01AC01C701B6010E94751C219641
:102FA000EEADFFAD21976087718782879387C15B04
:102FB000DF4F0FB6F894DEBF0FBECDBFDF91CF91CC
:102FC0001F910F91FF90EF90DF90CF90BF90AF9047
:102FD0009F908F907F906F905F904F903F902F9039
:102FE0000895CF93DF93FC01EB0140815181628111
:102FF0007381488359836A837B83448155816681C9
:1030000077814C835D836E837F8380859185A285E4
:10301000B38588879987AA87BB87DF91CF91089569
:10302000FB0124E0DC014D915D916D917D91CD011D
:1030300041935193619371932150A1F708954F9259
:103040005F926F927F928F929F92AF92BF92CF9238
:10305000DF92EF92FF92FC01608171818281938106
:1030600084809580A680B780C084D184E284F38474
:103070009B01AC010E941F1F2B013C01A501940183
:10308000C501B4010E941F1F9B01AC01C301B20125
:103090000E94761C4B015C01A7019601C701B60195
:1030A0000E941F1F9B01AC01C501B4010E94761C48
:1030B000FF90EF90DF90CF90BF90AF909F908F9058
:1030C0007F906F905F904F900C94D81F4F925F92BB
:1030D0006F927F928F929F92AF92BF92CF92DF9228
:1030E000EF92FF92CF93DF9300D000D0CDB7DEB741
:1030F000FC01608171818281938184809580A680AA
:10310000B780C084D184E284F38444845584668487
:1031100077849B01AC010E941F1F69837A838B8394
:103120009C83A5019401C501B4010E941F1F9B014E
:10313000AC0169817A818B819C810E94761C4B0154
:103140005C01A7019601C701B6010E941F1F9B01E8
:10315000AC01C501B4010E94761C6B017C01A30186
:103160009201C301B2010E941F1F9B01AC01C70164
:10317000B6010E94761C0F900F900F900F90DF9178
:10318000CF91FF90EF90DF90CF90BF90AF909F9046
:103190008F907F906F905F904F900C94D81FCF923C
:1031A000DF92EF92FF920F931F93CF93DF93EC0187
:1031B0008B01FB01208131814281538168817981BA
:1031C0008A819B810E941F1F6B017C01F801248171
:1031D0003581468157816C817D818E819F810E94DE
:1031E0001F1F9B01AC01C701B6010E94761C6B0139
:1031F0007C01F80120853185428553856885798574
:103200008A859B850E941F1F9B01AC01C701B601E7
:103210000E94761CDF91CF911F910F91FF90EF904C
:10322000DF90CF900895DF92EF92FF920F931F935C
:10323000CF93DF937C018B01EA01D12CF7016191DF
:103240007191819191917F01F80121913191419189
:1032500051918F010E94761C699379938993999378
:10326000D394F3E0DF12EACFDF91CF911F910F915A
:10327000FF90EF90DF9008956F927F928F929F92D0
:10328000AF92BF92CF92DF92EF92FF920F931F9374
:10329000CF93DF93782E692E5B01EA01E12CF12CAC
:1032A000188219821A821B82072D162DC12CD12C4F
:1032B00045018E0C9F1CF801619171918191919152
:1032C0008F01F401EC0DFD1D20813181428153817C
:1032D0000E941F1F9B01AC01688179818A819B81BB
:1032E0000E94761C688379838A839B83FCE0CF0EDF
:1032F000D11C84E2C816D104F1F62496E4E0EE0E67
:10330000F11CFCE0EF16F10459F6DF91CF911F910B
:103310000F91FF90EF90DF90CF90BF90AF909F9074
:103320008F907F906F900895AF92BF92CF92DF926F
:10333000EF92FF920F931F93CF93DF93EC018B01DA
:103340005A01FB0120853185428553856C817D8141
:103350008E819F810E941F1F6B017C01F8012481D7
:10336000358146815781688579858A859B850E944C
:103370001F1F9B01AC01C701B6010E94751CF5011E
:103380006083718382839383F8012081318142813C
:103390005381688579858A859B850E941F1F6B01F3
:1033A0007C01F801208531854285538568817981CA
:1033B0008A819B810E941F1F9B01AC01C701B6013E
:1033C0000E94751CF5016483758386839783F801D9
:1033D0002481358146815781688179818A819B81E9
:1033E0000E941F1F6B017C01F80120813181428105
:1033F00053816C817D818E819F810E941F1F9B0163
:10340000AC01C701B6010E94751CF5016087718788
:1034100082879387DF91CF911F910F91FF90EF905B
:10342000DF90CF90BF90AF900895CF92DF92EF9250
:10343000FF92CF93DF93EC016A017B019A01AB010C
:10344000688179818A819B810E941F1F68837983AB
:103450008A839B83A70196016C817D818E819F81E8
:103460000E941F1F6C837D838E839F83A70196011B
:10347000688579858A859B850E941F1F6887798763
:103480008A879B87DF91CF91FF90EF90DF90CF905D
:103490000895CF92DF92EF92FF921F93CF93DF9325
:1034A0006A017B01EC0110E0A70196016881798136
:1034B0008A819B810E941F1F6993799389939993B5
:1034C0001F5F143089F7DF91CF911F91FF90EF902C
:1034D000DF90CF900895CF92DF92EF92FF92CF933B
:1034E000DF93EC010E941F186B017C019B01AC0172
:1034F000688179818A819B810E94561D68837983C6
:103500008A839B83A70196016C817D818E819F8137
:103510000E94561D6C837D838E839F83A701960135
:10352000688579858A859B850E94561D688779877D
:103530008A879B87DF91CF91FF90EF90DF90CF90AC
:103540000895CF92DF92EF92FF920F931F93CF9344
:10355000DF938C010E9466186B017C01E80110E08A
:10356000A7019601688179818A819B810E94561DFD
:1035700069937993899399931F5F143089F7DF9149
:10358000CF911F910F91FF90EF90DF90CF90089512
:10359000AF92BF92CF92DF92EF92FF920F931F9361
:1035A000CF93DF93CDB7DEB7CC5DD1090FB6F894DA
:1035B000DEBF0FBECDBF80EF8ABB8BBB2FEF89E68E
:1035C00098E1215080409040E1F700C000001BBA14
:1035D0002FEF89E698E1215080409040E1F700C04C
:1035E000000080EF8BBB2FEF89E698E121508040EF
:1035F0009040E1F700C000001BBA2FEF89E698E188
:10360000215080409040E1F700C000000E94270850
:103610008DE00E945B088DE00E945B0888E40E94B8
:103620005B0885E60E945B088CE60E945B088CE6DE
:103630000E945B088FE60E945B086DE171E0CE019D
:1036400087589F4F0E943121CE0187589F4F0E947B
:10365000770865E471E0CE018F5A9F4F0E943121B7
:103660006BE671E0CE0189960E9431216DE871E030
:10367000CE0101960E943121CE018F5A9F4F0E94A8
:1036800077080E9472050E9479060E948E05082F15
:1036900010E0102F00270E948E05082B0E948E0537
:1036A000C82ED12CDC2CCC240E948E05C82A0E9466
:1036B0008E05E82EF12CFE2CEE240E948E05E82AC1
:1036C0000E948E058DE00E945B080115110539F4FA
:1036D000C114D10421F4E114F10409F478C0CE013D
:1036E00089960E9477081F930F9300EB11E01F93B8
:1036F0000F935E0129ECA20EB11CBF92AF920E9403
:103700003821DF92CF921F930F936E0185EBC80E85
:10371000D11CDF92CF920E943821FF92EF921F932B
:103720000F938E010F551F4F1F930F930E94382147
:1037300088E70E945B08C5010E94770880E20E942A
:103740005B0889E70E945B08C6010E94770880E257
:103750000E945B088AE70E945B08C8010E94770804
:103760008DE00E945B08CE0101960E94770880E2FE
:103770000E945B0888E50E945B0880E20E945B086B
:1037800089E50E945B0880E20E945B088AE50E944E
:103790005B088DE00E945B081092560480E090E880
:1037A00090935104809350041092570490935304C3
:1037B00080935204109258049093550480935404BB
:1037C0000E949F060FB6F894DEBF0FBECDBF80E00B
:1037D00090E0C452DF4F0FB6F894DEBF0FBECDBFEE
:1037E000DF91CF911F910F91FF90EF90DF90CF90DD
:1037F000BF90AF900895E894DF93CF93FC01DB0175
:103800000E945D1C7F936F93E9019A01AC01BF9305
:10381000AF933F932F93DF010E945D1C26F46C1B36
:103820007D0B820B930B9E01EB01FC010E946C1C33
:10383000AF91BF912F913F910E946C1CBE01CF01AF
:10384000F9012F913F91CF91DF9108950F930830A7
:1038500090F0982F872F762F652F542F432F322FDC
:1038600022270850F4CF220F331F441F551F661F15
:10387000771F881F991F0A95B2F70F9108952A0D97
:103880003B1D4C1D5D1D6E1D7F1D801F911F0895EA
:103890000024A7FD00942A0F301D401D501D601DFF
:1038A000701D801D901D08952A193B094C095D0962
:1038B0006E097F09800B910B0895A29FB001B39F01
:1038C000C001A39F700D811D1124911DB29F700D29
:1038D000811D1124911D08950E945D1C460F571FE4
:1038E000C81FD91F08F4319608955058BB27AA273E
:1038F0000ED04FC218D230F01DD220F031F49F3FCD
:1039000011F41EF4D7C10EF4E095E7FBCDC1E92F09
:1039100062D280F3BA17620773078407950718F01D
:1039200071F49EF57AC20EF4E0950B2EBA2FA02DFD
:103930000B01B90190010C01CA01A0011124FF275C
:10394000591B99F0593F50F4503E68F11A16F04057
:10395000A22F232F342F4427585FF3CF4695379556
:103960002795A795F0405395C9F77EF41F16BA0B1B
:10397000620B730B840BBAF09150A1F0FF0FBB1FC9
:10398000661F771F881FC2F70EC0BA0F621F731F12
:10399000841F48F4879577956795B795F7959E3F6F
:1039A00008F0B3CF9395880F08F09927EE0F9795FD
:1039B000879508959F939F77EEE389379E0720F4BC
:1039C000ECE8F0E09FD109C054D19058A2EA2AED6A
:1039D0003FE049EC5FE39BDFDCD10F9007FC9058A0
:1039E0000895A1D158F080E891E009F49EEFA2D1AA
:1039F00028F040E851E059F45EEF09C05BC10DC208
:103A0000E92FE078E8D168F3092E052AC1F32617DB
:103A100037074807590738F00E2E07F8E02569F0F8
:103A2000E025E0640AC0EF6307F8009407FADB01C1
:103A3000B9019D01DC01CA01AD01EF9346D0A9D1C6
:103A40000AD05F91552331F02BED3FE049E450FD62
:103A500049EC4CCF0895DF93DD27B92FBF7740E8BD
:103A60005FE31616170648075B0710F4D92FE0D15D
:103A70009F938F937F936F93D9D2E0EAF0E01DD1AB
:103A800088D12F913F914F915F91E5D1DD2349F08E
:103A90009058A2EA2AED3FE049EC5FE3D0785D2739
:103AA00036DFDF9176C14ED1E39584C10CD071C170
:103AB00041D140F038D130F021F45F3F19F0F4C02B
:103AC0005111ACC1F7C087D198F39923C9F355239D
:103AD000B1F3951B550BBB27AA2762177307840701
:103AE00038F09F5F5F4F220F331F441FAA1FA9F3B7
:103AF00033D00E2E3AF0E0E830D091505040E695A9
:103B0000001CCAF729D0FE2F27D0660F771F881F09
:103B1000BB1F261737074807AB07B0E809F0BB0BF8
:103B2000802DBF01FF2793585F4F2AF09E3F51051C
:103B300068F0BAC073C15F3FECF3983EDCF3869542
:103B400077956795B795F7959F5FC9F7880F911D92
:103B50009695879597F90895E1E0660F771F881F7E
:103B6000BB1F621773078407BA0720F0621B730B31
:103B7000840BBA0BEE1F88F7E0950895E89409C00E
:103B800097FB3EF490958095709561957F4F8F4F90
:103B90009F4F9923A9F0F92F96E9BB279395F695A6
:103BA000879577956795B795F111F8CFFAF4BB0F24
:103BB00011F460FF1BC06F5F7F4F8F4F9F4F16C088
:103BC000882311F096E911C0772321F09EE8872F12
:103BD000762F05C0662371F096E8862F70E060E0CE
:103BE0002AF09A95660F771F881FDAF7880F969547
:103BF000879597F90895E894F92F96EBFF2381F0C4
:103C0000121613061406440B9395F695879577952F
:103C1000679557954040FF23B9F71BC09927089532
:103C2000882351F49850D2F7872B762F652F542F85
:103C3000432F322F20E0B1F3121613061406440B63
:103C400088233AF09A95440F551F661F771F881FE7
:103C5000CAF755234AF4440F551F11F460FF04C0FE
:103C60006F5F7F4F8F4F9F4F880F9695879597F97E
:103C70000895DF93CF931F930F938B01EC01EDEC2D
:103C8000F0E01BD086D09801AE018B01EC0160E022
:103C900070E080E89FE329DE8BD19801AE010F919F
:103CA0001F91CF91DF91D7C097F99F6780E870E0AF
:103CB00060E008959FEF80EC0895DF93CF931F930A
:103CC0000F93FF92EF92DF927B018C01689405C005
:103CD000DA2EEF01C0D0FE01E894A591259135912F
:103CE00045915591AEF3EF0112DEFE019701A80157
:103CF000DA9479F7DF90EF90FF900F911F91CF91B9
:103D0000DF9108959F938F937F936F93FF93EF932A
:103D10009B01AC0194D0EF91FF91CFDF2F913F91A8
:103D20004F915F918CC000240A941616170618064E
:103D30000906089500240A941216130614060506AF
:103D40000895B8CF50D0E8F3E894E0E0BB279F5740
:103D5000F0F02AED3FE049EC06C0EE0FBB0F661F06
:103D6000771F881F28F0B23A62077307840728F08C
:103D7000B25A620B730B840BE3959A9572F78038F5
:103D800030F49A95BB0F661F771F881FD2F79048B3
:103D9000A7C1092E0394000C11F4882352F0BB0F25
:103DA00040F4BF2B11F460FF04C06F5F7F4F8F4F53
:103DB0009F4F0895EF93E0FF06C0A2EA2AED3FE08F
:103DC00049EC5FEBA4DDE5DF0F90039401FC905814
:103DD000E5EFF0E097CF57FD9058440F551F59F08D
:103DE0005F3F71F04795880F97FB991F61F09F3FE8
:103DF00079F087950895121613061406551FF2CF11
:103E00004695F1DF08C0161617061806991FF1CF60
:103E100086957105610508940895E894BB27662787
:103E20007727CB0197F9089535D108F48FEF0895DE
:103E30009B01AC0160E070E080E89FE337CE0BD0DF
:103E4000A8CF71DF28F076DF18F0952309F02CCF8A
:103E500031CF1124E3CFBFDFA0F3959FD1F3950FAE
:103E600050E0551F629FF001729FBB27F00DB11DFE
:103E7000639FAA27F00DB11DAA1F649F6627B00D8E
:103E8000A11D661F829F2227B00DA11D621F739F77
:103E9000B00DA11D621F839FA00D611D221F749F85
:103EA0003327A00D611D231F849F600D211D822FCC
:103EB000762F6A2F11249F5750408AF0E1F0882313
:103EC0004AF0EE0FFF1FBB1F661F771F881F915020
:103ED0005040A9F79E3F510570F0E6CE9FCF5F3F5F
:103EE000ECF3983EDCF3869577956795B795F79553
:103EF000E7959F5FC1F7FE2B880F911D96958795DB
:103F000097F90895FA01EE0FFF1F3096210531054C
:103F100099F16115710561F48038BFE39B0749F1A0
:103F200068949038810561F08038BFEF9B0741F0BD
:103F3000992342F5FF3FE1053105210511F1E89490
:103F40000894E795D901AA2329F4AB2FBE2FF85F77
:103F5000D0F310C0FF5F70F4A695E0F7F73950F08A
:103F600019F0FF3A38F49F779F930CD00F9007FC1D
:103F7000905808953EF09ECE60E070E080E89FE3A8
:103F800008954FE79F775F934F933F932F93F6D01A
:103F90002F913F914F915F9152DF50C09F93D2DE9E
:103FA0000F9007FCEE5F06CF11F40EF483CE96C09F
:103FB0001ADFD0F39923D9F3CEF39F57550B87FF20
:103FC0009BD00024A0E640EA900180585695979532
:103FD00028F4805C660F771F881F20F026173707AC
:103FE000480730F4621B730B840B202931294A2BBC
:103FF000A69517940794202531254A2758F7660F70
:10400000771F881F20F026173707480730F4620B08
:10401000730B840B200D311D411DA09581F7B90153
:10402000842F9158880F9695879508959B01AC0130
:1040300006CF19F40EF038CEF0CE3CCED4DEC8F365
:104040009638C0F707F80F92E8942BE33AEA48EB6A
:104050005FE703DF0F920F920F924DB75EB70F929B
:10406000CDD0E3E1F1E029DE4F915F91EF91FF9137
:10407000E595EE1FFF1F49F0FE57E0684427EE0F5D
:10408000441FFA95E1F74195550B3FD00F9007FE7D
:10409000CFCE0895990F0008550FAA0BE0E8FEEF68
:1040A00016161706E807F907C0F012161306E407FC
:1040B000F50798F0621B730B840B950B39F40A26F5
:1040C00061F0232B242B252B21F408950A2609F4D3
:1040D000A140A6958FEF811D811D08959F3F31F06E
:1040E000915020F4879577956795B795880F911D26
:1040F0009695879597F9089591505040660F771FD0
:10410000881FD2F70895D0CDE9CF6DDEE8F399236B
:10411000D9F3940F511DBBF39150504094F059F0D6
:10412000882332F0660F771F881F91505040C1F7E7
:104130009E3F510544F7880F911D9695879597F9F5
:1041400008955F3FACF0983E9CF0BB27869577952D
:104150006795B79508F4B1609395C1F7BB0F58F711
:1041600011F460FFE8CF6F5F7F4F8F4F9F4FE3CF1A
:1041700055CE0EF0B3CF9ECD689496CD34DEC8F305
:104180009923D1F3C6F3DF93CF931F930F93FF923D
:10419000C92FDD2788232AF02197660F771F881FF4
:1041A000DAF720E030E040E85FEB9FE3883920F069
:1041B000803E30F021968F7799DBEBE3F1E003C08E
:1041C00095DBE8E6F1E079DD8B01BE01EC01FB2E29
:1041D0006F5771097595771F880B990BD1DC28E112
:1041E00032E741E35FE337DEAF2D9801AE01FF9088
:1041F0000F911F91CF91DF918ADBCBCDFA01DC01CA
:10420000AA0FBB1F9B01AC01BF5728F422273327FD
:10421000442750781FC0B75188F4AB2F002446952F
:1042200037952795011CA395D2F3002069F0220F42
:10423000331F441FB395DAF30DD057CB61307105AE
:10424000A0E88A07B94630F49B01AC0166277727BE
:1042500088279078309621F02083318342835383DE
:104260000895FB01DC0101900D920020E1F7089513
:104270000F931F93CF93DF93CDB7DEB72E970FB673
:10428000F894DEBF0FBECDBF0D891E8986E08C83FA
:104290001A8309838FEF9FE79E838D83AE01475E6C
:1042A0005F4F6F89788DCE0101960E946721EF8163
:1042B000F885E00FF11F10822E960FB6F894DEBF3E
:1042C0000FBECDBFDF91CF911F910F9108952F9217
:1042D0003F924F925F926F927F928F929F92AF9296
:1042E000BF92CF92DF92EF92FF920F931F93CF93E3
:1042F000DF93CDB7DEB72C970FB6F894DEBF0FBEB5
:10430000CDBF7C016B018A01FC011782168283817B
:1043100081FFBDC1CE0101964C01F7019381F601E9
:1043200093FD859193FF81916F01882309F4ABC1BF
:10433000853239F493FD859193FF81916F01853228
:1043400029F4B70190E00E947823E7CF512C312C5B
:1043500020E02032A0F48B3269F030F4803259F042
:10436000833269F420612CC08D3239F0803339F406
:10437000216026C02260246023C0286021C027FD60
:1043800027C030ED380F3A3078F426FF06C0FAE047
:104390005F9E300D1124532E13C08AE0389E300DDD
:1043A0001124332E20620CC08E3221F426FD6BC105
:1043B000206406C08C3611F4206802C0883641F4AF
:1043C000F60193FD859193FF81916F018111C1CF1A
:1043D000982F9F7D9554933028F40C5F1F4FFFE377
:1043E000F9830DC0833631F0833771F0833509F0DE
:1043F0005BC022C0F801808189830E5F1F4F442477
:104400004394512C540115C03801F2E06F0E711C19
:10441000F801A080B18026FF03C0652D70E002C0C6
:104420006FEF7FEFC5012C870E946D232C01830164
:104430002C852F77222E17C03801F2E06F0E711CE9
:10444000F801A080B18026FF03C0652D70E002C096
:104450006FEF7FEFC5012C870E9462232C012C8512
:104460002068222E830123FC1BC0832D90E0481678
:104470005906B0F4B70180E290E00E9478233A94A4
:10448000F4CFF50127FC859127FE81915F01B701EB
:1044900090E00E94782331103A94F1E04F1A5108CD
:1044A0004114510471F7E5C0843611F0893639F5AD
:1044B000F80127FF07C060817181828193810C5FC1
:1044C0001F4F08C060817181882777FD8095982FE4
:1044D0000E5F1F4F2F76B22E97FF09C090958095E3
:1044E000709561957F4F8F4F9F4F2068B22E2AE0C5
:1044F00030E0A4010E94AA23A82EA81844C0853742
:1045000029F42F7EB22E2AE030E025C0F22FF97F69
:10451000BF2E8F36C1F018F4883579F0B4C08037DB
:1045200019F0883721F0AFC02F2F2061B22EB4FED2
:104530000DC08B2D8460B82E09C024FF0AC09F2FA8
:104540009660B92E06C028E030E005C020E130E0DA
:1045500002C020E132E0F801B7FE07C0608171813E
:10456000828193810C5F1F4F06C06081718180E062
:1045700090E00E5F1F4FA4010E94AA23A82EA81846
:10458000FB2DFF77BF2EB6FE0BC02B2D2E7FA51463
:1045900050F4B4FE0AC0B2FC08C02B2D2E7E05C01C
:1045A0007A2C2B2D03C07A2C01C0752C24FF0DC052
:1045B000FE01EA0DF11D8081803311F4297E09C0CE
:1045C00022FF06C07394739404C0822F867809F08A
:1045D000739423FD13C020FF06C05A2C731418F4E3
:1045E000530C5718732C731468F4B70180E290E0F1
:1045F0002C870E94782373942C85F5CF731410F4C4
:10460000371801C0312C24FF12C0B70180E390E0BD
:104610002C870E9478232C8522FF17C021FF03C01E
:1046200088E590E002C088E790E0B7010CC0822FD7
:10463000867859F021FD02C080E201C08BE227FD9F
:104640008DE2B70190E00E947823A51438F4B701F9
:1046500080E390E00E9478235A94F7CFAA94F40163
:10466000EA0DF11D8081B70190E00E947823A1102E
:10467000F5CF332009F451CEB70180E290E00E94DB
:1046800078233A94F6CFF7018681978102C08FEFA5
:104690009FEF2C960FB6F894DEBF0FBECDBFDF9113
:1046A000CF911F910F91FF90EF90DF90CF90BF902F
:1046B000AF909F908F907F906F905F904F903F90C2
:1046C0002F900895FC010590615070400110D8F7BB
:1046D000809590958E0F9F1F0895FC01615070404A
:1046E00001900110D8F7809590958E0F9F1F089527
:1046F0000F931F93CF93DF93182F092FEB018B811B
:1047000081FD03C08FEF9FEF20C082FF10C04E815C
:104710005F812C813D81421753077CF4E881F98148
:104720009F012F5F3F4F39832883108306C0E885A0
:10473000F985812F0995892B29F72E813F812F5FDC
:104740003F4F3F832E83812F902FDF91CF911F9179
:104750000F910895FA01AA27283051F1203181F1F3
:10476000E8946F936E7F6E5F7F4F8F4F9F4FAF4F79
:10477000B1E03ED0B4E03CD0670F781F891F9A1F8C
:10478000A11D680F791F8A1F911DA11D6A0F711D40
:10479000811D911DA11D20D009F468943F912AE04C
:1047A000269F11243019305D3193DEF6CF01089534
:1047B000462F4770405D4193B3E00FD0C9F7F6CF65
:1047C000462F4F70405D4A3318F0495D31FD40522D
:1047D000419302D0A9F7EACFB4E0A69597958795C3
:1047E00077956795BA95C9F70097610571050895A2
:1047F0009B01AC010A2E069457954795379527954E
:10480000BA95C9F7620F731F841F951FA01D0895E5
:04481000F894FFCF4A
:10481400FFFFFFFFFFFFFF1F003B005A00780097D8
:1048240000B500D400F300110130014E01092E2E11
:10483400546869732069732049495442277320538B
:10484400747564656E7420536174656C6C69746509
:104854002E2E2E0D0009546869732069732050525E
:10486400415448414D2773204F42432D4D61737489
:10487400657220636F64652E2E2E000D437572726F
:10488400656E74204D61676E65746F4D65746572F5
:10489400207374617465206973203D09000D4765B8
:1048A4006E65726174696E6720546F72717565729A
:1048B4002043757272656E7420666F72203D090024
:1048C4002564002A3030500D0025642025642025FD
:0448D400640D00006F
:00000001FF
