:100000000C9446000C9465000C9465000C946500FB
:100010000C9465000C9465000C9465000C946500CC
:100020000C9465000C9465000C9465000C946500BC
:100030000C9465000C9465000C9473000C9465009E
:100040000C9465000C9465000C94B4000C9465004D
:100050000C9465000C9465000C9465000C9465008C
:100060000C9465000C9465000C9465000C9465007C
:100070000C9465000C9465000C9465000C9465006C
:100080000C9465000C9465000C94650011241FBE4F
:10009000CFEFD0E1DEBFCDBF11E0A0E0B1E0E8E7F7
:1000A000FAE000E00BBF02C007900D92A038B10744
:1000B000D9F722E0A0E8B1E001C01D92A531B20756
:1000C000E1F70E9494040C943A050C9400008EB55C
:1000D00082608EBD1DBC1CBC87B7846087BF7894CE
:1000E0001092DF0108951F920F920FB60F92112404
:1000F0008F939F938091DF018F5F8093DF018091C9
:10010000DF018436C8F080910001909101010196D1
:1001100090930101809300011092DF011DBC1CBC73
:100120008091000190910101039731F481E090E00A
:1001300090930101809300019F918F910F900FBECA
:100140000F901F9018951BB81AB8E5E9F0E01082DF
:10015000599A8AB188618AB980818E60808387E6E6
:1001600089B91092900008951F920F920FB60F92C6
:1001700011240BB60F922F938F939F93AF93BF933E
:10018000EF93FF938CB180938101809182019091D4
:100190008301A0918401B0918501BA2FA92F982FD6
:1001A00088278093820190938301A0938401B09368
:1001B00085018091820190918301A0918401B09189
:1001C000850188278093820190938301A093840105
:1001D000B09385018091820190918301A091840167
:1001E000B091850120918101822B809382019093AF
:1001F0008301A0938401B0938501809108018C3024
:10020000A0F4E091080180918101F0E0E851FE4FF7
:100210008083809108018F5F80930801809108019D
:100220008C3019F48FEF80930801809107018C3096
:10023000A0F4E091070180918101F0E0EC50FE4FC5
:100240008083809107018F5F809307018091070170
:100250008C3019F48FEF8093070180910601843070
:10026000C0F480910601823040F0E0910601809157
:100270008101F0E0E050FF4F8083809106018F5FA5
:100280008093060180910601843019F48FEF8093EA
:100290000601809105018031C0F480910501843010
:1002A00040F0E091050180918101F0E0E450FE4FC3
:1002B0008083809105018F5F809305018091050106
:1002C000803119F48FEF809305018091040187300C
:1002D000B8F4E091040180918101F0E0E45FFD4F0A
:1002E0008083809104018F5F8093040180910401D9
:1002F000873031F48FEF8093040181E08093800197
:100300008091820190918301A0918401B091850137
:100310008C3A9440AF43BF4329F41092800110926D
:1003200008013FC08091820190918301A0918401D6
:10033000B09185018C3A9540AF43BF4319F41092B8
:1003400007012FC08091820190918301A0918401C7
:10035000B09185018C3A9B40AF43BF4319F4109292
:1003600006011FC08091820190918301A0918401B8
:10037000B09185018C3A9E40AF43BF4319F410926F
:1003800005010FC08091820190918301A0918401A9
:10039000B09185018C3A9F40AF43BF4311F4109256
:1003A00004018091020190910301843F9140F0F497
:1003B0008091020190910301892BC1F0809180010D
:1003C0008823A1F081E08093DD0157988FEF9FEFA4
:1003D0009093030180930201109280011092820198
:1003E000109283011092840110928501FF91EF9188
:1003F000BF91AF919F918F912F910F900BBE0F9056
:100400000FBE0F901F901895CF93DF93CDECD1E0E6
:10041000BE0182E20E949403219681E0C43DD80788
:10042000B9F7DF91CF9108956091CD0182E20C94EC
:10043000E903CF93DF93CBE9D0E01882AAE9B0E0DB
:100440001C92EDE9F0E010828881826088838C91B3
:1004500088618C9380818660808387E68093990091
:1004600010929800DF91CF91089580919B0087FFB3
:10047000FCCF80919C000895FC012191CF012223A3
:1004800039F030919B0035FFFCCF20939C00F4CFD6
:100490000895CF93DF931F92CDB7DEB78AE791E03F
:1004A0000E943C020E943502898361E070E0CE0127
:1004B00001960E947F02F6CFEDECF1E0908121E001
:1004C00030E001C0220F8A95EAF7922B90830C94BA
:1004D0001402EDECF1E0908121E030E001C0220F48
:1004E0008A95EAF72095292320830C941402579AC1
:1004F00008950E9428030C942B030C944902680F62
:10050000791F8617970739F05D9BFECFFC0121917B
:10051000CF012CB9F6CF089584B3886384BB82B130
:10052000886382B9ABE8B0E01C92EAE8F0E01082A0
:1005300010928C008C918A6A8C9380818161808377
:100540008FEF9FEF9093810080938000E4E8F0E0CC
:1005500011821082118210821182108285B3877CF1
:1005600085BB08958091DA01882311F0AD9A01C00E
:10057000AD988091DB01882311F0AC9A01C0AC9852
:100580008091DC01882311F0AB9A01C0AB98809177
:10059000D4019091D501909387008093860080913B
:1005A000D6019091D701909385008093840080912B
:1005B000D8019091D901909383008093820008958F
:1005C0001092D5011092D4011092D7011092D60149
:1005D0001092D9011092D8011092DA011092DB0129
:1005E0001092DC010C94B20287B3807F87BBBB9A68
:1005F00080EC8DB9089517BA86E087BB87B3816315
:1006000087BB88B3816388BB83E58DB9089598B3B0
:10061000916398BB98B321E030E0082E01C0220F0F
:100620000A94EAF72095292328BB0895680F791FBB
:100630008617970739F0FC012191CF012FB9779BDD
:10064000FECFF6CF08958FB9779BFECF8FB1089577
:10065000BE9AC69A0895DF92EF92FF920F931F936E
:10066000CF93DF9300E010E0C598C02FC695C86116
:100670008C2F0E94230398013695322F222737951D
:100680002795822F8064D82E0E942303C59A82E08A
:100690008A95F1F700C0C5988C2F0E9423038D2DF9
:1006A0000E942303C59A82E08A95F1F700C0C5989D
:1006B0008C2F0E942303282F30E0E801CC0FDD1F90
:1006C000C857DE4F3EA72DA72DA53EA5322F2227C6
:1006D0003EA72DA72DA53EA522273F703EA72DA7FB
:1006E000EDA4FEA48D2D0E942303E82AFEA6EDA60C
:1006F000C59A82E08A95F1F700C00F5F1F4F063060
:10070000110509F0B1CFC698DF91CF911F910F91DC
:10071000FF90EF90DF900895109271001092740096
:1007200088E480937000089524EA209374009091E7
:10073000740097FFFCCF90917100987F9833A9F3D4
:1007400090917100987F903129F090917100987F7D
:100750009830C9F5880F8F5F8093730084E8809389
:1007600074008091740087FFFCCF80917100887FB6
:10077000883401F180917100887F883339F180914C
:100780007100887F8034E1F485E88A95F1F70000F4
:1007900084E8809374008091740087FFFCCF80917F
:1007A0007100887F803511F0883551F48091730095
:1007B000FB01808384E98093740081E090E00895D8
:1007C00084E9809374008FEF9FEF08958EEF9FEF81
:1007D000089524EA209374009091740097FFFCCF51
:1007E00090917100987F9833A9F390917100987F50
:1007F000903129F090917100987F9830A9F5880F79
:100800008093730084E8809374008091740087FF64
:10081000FCCF80917100887F803201F1809171005E
:10082000887F883321F180917100887F883191F42D
:1008300085E88A95F1F700006093730084E880935F
:1008400074008091740087FFFCCF80917100887FD5
:10085000883221F084E98093740006C084E9809393
:10086000740081E090E008958FEF9FEF08958EEF80
:100870009FEF08951BB81AB8E5E9F0E01082599A85
:100880008AB188618AB980818660808387E689B968
:10089000109290000895CF93DF93CBE9D0E01882B7
:1008A000AAE9B0E01C92EDE9F0E010828881826054
:1008B00088838C9188618C9380818E60808387E6A9
:1008C0008093990010929800DF91CF9108959091B4
:1008D0009B0095FFFCCF80939C0008955D9BFECF0D
:1008E0008CB9089580919B0087FFFCCF80919C007C
:1008F00008955F9BFECF8CB10895FC012191CF013B
:10090000222339F030919B0035FFFCCF20939C00CF
:10091000F4CF0895FC012191CF01222321F05D9BAA
:10092000FECF2CB9F7CF0895CF93DF93CDB7DEB7C5
:10093000C857D1090FB6F894DEBF0FBECDBF80EF08
:100940008ABB8BBB2FEF89E698E121508040904015
:10095000E1F700C000001BBA2FEF89E698E12150B3
:1009600080409040E1F700C0000080EF8BBB2FEF8C
:1009700089E698E1215080409040E1F700C00000F6
:100980001BBA2FEF89E698E1215080409040E1F7B3
:1009900000C000000E943A0488E40E946E0485E6CC
:1009A0000E946E048CE60E946E048CE60E946E0427
:1009B0008FE60E946E0469E071E0CE018F5A9F4F6E
:1009C0000E943305CE018F5A9F4F0E948A0461E333
:1009D00071E0CE0189960E94330567E571E0CE0192
:1009E00001960E9433050E948C020E946700C12C70
:1009F00080E8D82EE12C90E4F92E00E010E288E4A3
:100A00000E946E048DE00E946E04CE0101960E9449
:100A10008A048BE20E946E0488E50E946E0480E2E4
:100A20000E946E0489E50E946E0480E20E946E04BA
:100A30008AE50E946E048DE00E946E041092DA0135
:100A4000D092D501C092D4011092DB01F092D7016F
:100A5000E092D6011092DC011093D9010093D801E5
:100A60000E94B202CCCFFB01DC0101900D9200206C
:080A7000E1F70895F894FFCFAF
:100A78000100FFFFFFFFFFFFFF092E2E5468697377
:100A8800206973204949544227732053747564655B
:100A98006E7420536174656C6C6974652E2E2E0D0E
:100AA80000095468697320697320485553534149B4
:100AB8004E2773204F42432D4D6173746572206336
:100AC8006F64652E2E2E000D47656E657261746920
:100AD8006E6720546F727175657220437572726506
:100AE8006E7420666F72203D09002A3030500D0068
:00000001FF
