:100000000C9446000C9465000C9465000C946500FB
:100010000C9465000C9465000C9465000C946500CC
:100020000C9465000C9465000C9465000C946500BC
:100030000C9465000C9465000C9473000C9465009E
:100040000C9465000C9465000C94AC000C94650055
:100050000C9465000C9465000C9465000C9465008C
:100060000C9465000C9465000C9465000C9465007C
:100070000C9465000C9465000C9465000C9465006C
:100080000C9465000C9465000C94650011241FBE4F
:10009000CFEFD0E1DEBFCDBF11E0A0E0B1E0E4E6FC
:1000A000FCE000E00BBF02C007900D92AE38B10734
:1000B000D9F722E0AEE8B1E001C01D92A532B20747
:1000C000E1F70E948C040C9430060C9400008EB56D
:1000D00082608EBD1DBC1CBC87B7846087BF7894CE
:1000E0001092EF0108951F920F920FB60F921124F4
:1000F0008F939F938091EF018F5F8093EF018091A9
:10010000EF018F3088F080918E0190918F010196E0
:1001100090938F0180938E011092EF01049721F448
:1001200010928F0110928E019F918F910F900FBEB0
:100130000F901F9018951BB81AB8E5E9F0E01082EF
:10014000599A8AB188618AB980818E60808387E6F6
:1001500089B91092900008951F920F920FB60F92D6
:1001600011240BB60F922F938F939F93AF93BF934E
:10017000EF93FF938CB180939101809192019091C4
:100180009301A0919401B0919501BA2FA92F982FB6
:1001900088278093920190939301A0939401B09348
:1001A00095018091920190919301A0919401B09159
:1001B000950188278093920190939301A0939401D5
:1001C000B09395018091920190919301A091940137
:1001D000B091950120919101822B8093920190938F
:1001E0009301A0939401B0939501809106018C3006
:1001F000A0F4E091060180919101F0E0E850FE4FFB
:100200008083809106018F5F8093060180910601B3
:100210008C3019F48FEF80930601809105018C30AA
:10022000A0F4E091050180919101F0E0EC5FFD4FB9
:100230008083809105018F5F809305018091050186
:100240008C3019F48FEF8093050180910401843084
:10025000C0F480910401823040F0E091040180916B
:100260009101F0E0E250FF4F8083809104018F5FA5
:100270008093040180910401843019F48FEF8093FE
:100280000401809103018031C0F480910301843026
:1002900040F0E091030180919101F0E0E45FFD4FB7
:1002A0008083809103018F5F80930301809103011C
:1002B000803119F48FEF8093030180910201873020
:1002C000B8F4E091020180919101F0E0E45EFD4F0D
:1002D0008083809102018F5F8093020180910201EF
:1002E000873031F48FEF8093020181E08093900199
:1002F0008091920190919301A0919401B091950108
:100300008C3A9440AF43BF4329F41092900110926D
:1003100006013FC08091920190919301A0919401B8
:10032000B09195018C3A9540AF43BF4319F41092B8
:1003300005012FC08091920190919301A0919401A9
:10034000B09195018C3A9B40AF43BF4319F4109292
:1003500004011FC08091920190919301A09194019A
:10036000B09195018C3A9E40AF43BF4319F410926F
:1003700003010FC08091920190919301A09194018B
:10038000B09195018C3A9F40AF43BF4311F4109256
:1003900002018091000190910101843F9140F0F4AD
:1003A0008091000190910101892BC1F08091900111
:1003B0008823A1F081E08093ED0157988FEF9FEFA4
:1003C000909301018093000110929001109292018C
:1003D000109293011092940110929501FF91EF9168
:1003E000BF91AF919F918F912F910F900BBE0F9066
:1003F0000FBE0F901F901895CF93DF93CDEDD1E0F6
:10040000BE0182E20E948C03219681E0C43ED8079F
:10041000B9F7DF91CF9108956091DD0182E20C94EC
:10042000E103CF93DF93CBE9D0E01882AAE9B0E0F3
:100430001C92EDE9F0E010828881826088838C91C3
:1004400088618C9380818660808387E680939900A1
:1004500010929800DF91CF91089580919B0087FFC3
:10046000FCCF80919C000895FC012191CF012223B3
:1004700039F030919B0035FFFCCF20939C00F4CFE6
:100480000895CF93DF931F92CDB7DEB788E891E050
:100490000E9434020E942D02898361E070E0CE0147
:1004A00001960E947702F6CFEDEDF1E0908121E018
:1004B00030E001C0220F8A95EAF7922B90830C94CA
:1004C0000C02EDEDF1E0908121E030E001C0220F5F
:1004D0008A95EAF72095292320830C940C02579AD9
:1004E00008950E9420030C9423030C944102680F8A
:1004F000791F8617970739F05D9BFECFFC0121918C
:10050000CF012CB9F6CF089584B3886384BB82B140
:10051000886382B9ABE8B0E01C92EAE8F0E01082B0
:1005200010928C008C918A6A8C9380818161808387
:100530008FEF9FEF9093810080938000E4E8F0E0DC
:1005400011821082118210821182108285B3877C01
:1005500085BB08958091EA01882311F0AD9A01C00E
:10056000AD988091EB01882311F0AC9A01C0AC9852
:100570008091EC01882311F0AB9A01C0AB98809177
:10058000E4019091E501909387008093860080912B
:10059000E6019091E701909385008093840080911B
:1005A000E8019091E901909383008093820008957F
:1005B0001092E5011092E4011092E7011092E60119
:1005C0001092E9011092E8011092EA011092EB01F9
:1005D0001092EC010C94AA0287B3807F87BBBB9A70
:1005E00080EC8DB9089517BA86E087BB87B3816325
:1005F00087BB88B3816388BB83E58DB9089598B3C1
:10060000916398BB98B321E030E0082E01C0220F1F
:100610000A94EAF72095292328BB0895680F791FCB
:100620008617970739F0FC012191CF012FB9779BED
:10063000FECFF6CF08958FB9779BFECF8FB1089587
:10064000BE9AC69A0895DF92EF92FF920F931F937E
:10065000CF93DF9300E010E0C598C02FC695C86126
:100660008C2F0E941B0398013695322F2227379535
:100670002795822F8064D82E0E941B03C59A82E0A2
:100680008A95F1F700C0C5988C2F0E941B038D2D11
:100690000E941B03C59A82E08A95F1F700C0C598B5
:1006A0008C2F0E941B03282F30E0E801CC0FDD1FA8
:1006B000C856DE4F3EA72DA72DA53EA5322F2227D7
:1006C0003EA72DA72DA53EA522273F703EA72DA70B
:1006D000EDA4FEA48D2D0E941B03E82AFEA6EDA624
:1006E000C59A82E08A95F1F700C00F5F1F4F063070
:1006F000110509F0B1CFC698DF91CF911F910F91ED
:10070000FF90EF90DF9008951092710010927400A6
:1007100088E480937000089524EA209374009091F7
:10072000740097FFFCCF90917100987F9833A9F3E4
:1007300090917100987F903129F090917100987F8D
:100740009830C9F5880F8F5F8093730084E8809399
:1007500074008091740087FFFCCF80917100887FC6
:10076000883401F180917100887F883339F180915C
:100770007100887F8034E1F485E88A95F1F7000004
:1007800084E8809374008091740087FFFCCF80918F
:100790007100887F803511F0883551F480917300A5
:1007A000FB01808384E98093740081E090E00895E8
:1007B00084E9809374008FEF9FEF08958EEF9FEF91
:1007C000089524EA209374009091740097FFFCCF61
:1007D00090917100987F9833A9F390917100987F60
:1007E000903129F090917100987F9830A9F5880F89
:1007F0008093730084E8809374008091740087FF75
:10080000FCCF80917100887F803201F1809171006E
:10081000887F883321F180917100887F883191F43D
:1008200085E88A95F1F700006093730084E880936F
:1008300074008091740087FFFCCF80917100887FE5
:10084000883221F084E98093740006C084E98093A3
:10085000740081E090E008958FEF9FEF08958EEF90
:100860009FEF08951BB81AB8E5E9F0E01082599A95
:100870008AB188618AB980818660808387E689B978
:10088000109290000895CF93DF93CBE9D0E01882C7
:10089000AAE9B0E01C92EDE9F0E010828881826064
:1008A00088838C9188618C9380818E60808387E6B9
:1008B0008093990010929800DF91CF9108959091C4
:1008C0009B0095FFFCCF80939C0008955D9BFECF1D
:1008D0008CB9089580919B0087FFFCCF80919C008C
:1008E00008955F9BFECF8CB10895FC012191CF014B
:1008F000222339F030919B0035FFFCCF20939C00E0
:10090000F4CF0895FC012191CF01222321F05D9BBA
:10091000FECF2CB9F7CF0895CF93DF93CDB7DEB7D5
:10092000C858D1090FB6F894DEBF0FBECDBF80EF17
:100930008ABB8BBB2FEF89E698E121508040904025
:10094000E1F700C000001BBA2FEF89E698E12150C3
:1009500080409040E1F700C0000080EF8BBB2FEF9C
:1009600089E698E1215080409040E1F700C0000006
:100970001BBA2FEF89E698E1215080409040E1F7C3
:1009800000C000000E94320488E40E94660485E6EC
:100990000E9466048CE60E9466048CE60E9466044F
:1009A0008FE60E94660467E171E0CE018F5A9F4F87
:1009B0000E942906CE018F5A9F4F0E9482046FE346
:1009C00071E0CE0189960E94290665E671E0CE01AC
:1009D00001960E9429060E94840280E1E7E0F1E08E
:1009E000DE01A758BF4F01900D928A95E1F70E9452
:1009F000670000E010E888E40E9466048DE00E9431
:100A00006604CE0101960E9482048BE20E94660475
:100A100088E50E94660480E20E94660489E50E94DF
:100A2000660480E20E9466048AE50E9466048DE006
:100A30000E9466041092EA01E0918E01F0918F010C
:100A4000EE0FFF1FEE0FFF1F89E790E08C0F9D1F39
:100A5000E80FF91F20E030E040E857E46081718141
:100A6000828193810E949E050E9449057093E50151
:100A70006093E4011092EB011093E7010093E6010B
:100A80001092EC011093E9010093E8010E94AA0280
:100A9000B2CF33D088F09F5790F0B92F9927B75134
:100AA000A0F0D1F0660F771F881F991F1AF0BA9532
:100AB000C9F712C0B13081F03AD0B1E0089537C023
:100AC000672F782F8827B85F39F0B93FCCF3869528
:100AD00077956795B395D9F73EF490958095709585
:100AE00061957F4F8F4F9F4F089557FD9058440F4A
:100AF000551F59F05F3F71F04795880F97FB991F7D
:100B000061F09F3F79F08795089512161306140639
:100B1000551FF2CF4695F1DF08C0161617061806C6
:100B2000991FF1CF86957105610508940895E894A1
:100B3000BB2766277727CB0197F908950BD078C09C
:100B400069D028F06ED018F0952309F05AC05FC024
:100B50001124EECFCADFA0F3959FD1F3950F50E09B
:100B6000551F629FF001729FBB27F00DB11D639F5F
:100B7000AA27F00DB11DAA1F649F6627B00DA11D05
:100B8000661F829F2227B00DA11D621F739FB00DAB
:100B9000A11D621F839FA00D611D221F749F33271B
:100BA000A00D611D231F849F600D211D822F762FB4
:100BB0006A2F11249F5750408AF0E1F088234AF0B1
:100BC000EE0FFF1FBB1F661F771F881F91505040FD
:100BD000A9F79E3F510570F014C0AACF5F3FECF318
:100BE000983EDCF3869577956795B795F795E795E9
:100BF0009F5FC1F7FE2B880F911D9695879597F9FA
:100C0000089597F99F6780E870E060E008959FEF8E
:100C100080EC089500240A94161617061806090693
:100C2000089500240A941216130614060506089562
:100C3000092E0394000C11F4882352F0BB0F40F4EA
:100C4000BF2B11F460FF04C06F5F7F4F8F4F9F4F2A
:100C50000895FB01DC0101900D920020E1F7089559
:040C6000F894FFCF36
:100C6400FFFFFFFFFFFFFF0000803F0000403F0049
:100C740000003F0000803E092E2E546869732069ED
:100C840073204949544227732053747564656E7404
:100C940020536174656C6C6974652E2E2E0D0009E9
:100CA40054686973206973204855535341494E274A
:100CB40073204F42432D4D617374657220636F64DA
:100CC400652E2E2E000D47656E65726174696E6720
:100CD40020546F72717565722043757272656E74FB
:0E0CE40020666F72203D09002A3030500D004E
:00000001FF
