:100000000C9446000C9465000C9465000C946500FB
:100010000C9465000C9465000C9465000C946500CC
:100020000C9465000C9465000C9465000C946500BC
:100030000C9465000C9465000C9465000C946500AC
:100040000C9465000C9465000C9478000C94650089
:100050000C9465000C9465000C9465000C9465008C
:100060000C9465000C9465000C9465000C9465007C
:100070000C9465000C9465000C9465000C9465006C
:100080000C9465000C9465000C94650011241FBE4F
:10009000CFEFD0E1DEBFCDBF11E0A0E0B1E0E0EFF7
:1000A000F9E000E00BBF02C007900D92AE37B10738
:1000B000D9F722E0AEE7B1E001C01D92A231B2074C
:1000C000E1F70E9458040C94F6040C9400001BB84D
:1000D0001AB8E5E9F0E01082599A8AB188618AB9C4
:1000E00080818E60808387E689B9109290000895A0
:1000F0001F920F920FB60F9211240BB60F922F93EF
:100100008F939F93AF93BF93EF93FF938CB18093A3
:100110007F018091800190918101A0918201B09135
:100120008301BA2FA92F982F88278093800190935D
:100130008101A0938201B09383018091800190910D
:100140008101A0918201B091830188278093800171
:1001500090938101A0938201B093830180918001EB
:1001600090918101A0918201B091830120917F0142
:10017000822B8093800190938101A0938201B093A0
:100180008301809106018C30A0F4E09106018091FA
:100190007F01F0E0EB51FE4F8083809106018F5F7D
:1001A00080930601809106018C3019F48FEF8093C3
:1001B0000601809105018C30A0F4E0910501809149
:1001C0007F01F0E0EF50FE4F8083809105018F5F4B
:1001D00080930501809105018C3019F48FEF809395
:1001E0000501809104018430C0F4809104018230C3
:1001F00040F0E091040180917F01F0E0E250FF4F78
:100200008083809104018F5F8093040180910401B9
:10021000843019F48FEF80930401809103018031C1
:10022000C0F480910301843040F0E091030180919B
:100230007F01F0E0E750FE4F8083809103018F5FE4
:100240008093030180910301803119F48FEF809333
:100250000301809102018730B8F4E091020180919E
:100260007F01F0E0E75FFD4F8083809102018F5FA7
:100270008093020180910201873031F48FEF8093E7
:10028000020181E080937E01809180019091810143
:10029000A0918201B09183018C3A9440AF43BF4357
:1002A00029F410927E01109206013FC080918001D6
:1002B00090918101A0918201B09183018C3A954087
:1002C000AF43BF4319F4109205012FC08091800104
:1002D00090918101A0918201B09183018C3A9B4061
:1002E000AF43BF4319F4109204011FC080918001F5
:1002F00090918101A0918201B09183018C3A9E403E
:10030000AF43BF4319F4109203010FC080918001E5
:1003100090918101A0918201B09183018C3A9F401C
:10032000AF43BF4311F410920201809100019091FC
:100330000101843F9140F0F480910001909101010E
:10034000892BC1F080917E018823A1F081E0809308
:10035000DB0157988FEF9FEF90930101809300018D
:1003600010927E0110928001109281011092820100
:1003700010928301FF91EF91BF91AF919F918F9167
:100380002F910F900BBE0F900FBE0F901F901895DE
:10039000CF93DF93CBECD1E0BE0182E20E94580301
:1003A000219681E0C23DD807B9F7DF91CF9108953A
:1003B0006091CB0182E20C94AD03CF93DF93CBE944
:1003C000D0E01882AAE9B0E01C92EDE9F0E01082DA
:1003D0008881826088838C9188618C93808186601B
:1003E000808387E68093990010929800DF91CF91E7
:1003F000089580919B0087FFFCCF80919C00089519
:10040000FC012191CF01222339F030919B0035FF6F
:10041000FCCF20939C00F4CF0895CF93DF931F92DD
:10042000CDB7DEB788E791E00E9400020E94F90193
:10043000898361E070E0CE0101960E944302F6CF0D
:10044000EBECF1E0908121E030E001C0220F8A95D1
:10045000EAF7922B90830C94D801EBECF1E09081B9
:1004600021E030E001C0220F8A95EAF72095292388
:1004700020830C94D801579A08950E94EC020C94A2
:10048000EF020C940D02680F791F8617970739F059
:100490005D9BFECFFC012191CF012CB9F6CF0895D1
:1004A00084B3886384BB82B1886382B9ABE8B0E06F
:1004B0001C92EAE8F0E0108210928C008C918A6A1B
:1004C0008C938081816180838FEF9FEF9093810077
:1004D00080938000E4E8F0E01182108211821082A3
:1004E0001182108285B3877C85BB08958091D801E5
:1004F000882311F0AD9A01C0AD988091D90188236D
:1005000011F0AC9A01C0AC988091DA01882311F007
:10051000AB9A01C0AB988091D2019091D301909396
:100520008700809386008091D4019091D5019093AB
:100530008500809384008091D6019091D70190939B
:1005400083008093820008951092D3011092D2010B
:100550001092D5011092D4011092D7011092D601B9
:100560001092D8011092D9011092DA010C947602FF
:1005700087B3807F87BBBB9A80EC8DB9089517BA8B
:1005800086E087BB87B3816387BB88B3816388BB01
:1005900083E58DB9089598B3916398BB98B321E032
:1005A00030E0082E01C0220F0A94EAF72095292393
:1005B00028BB0895680F791F8617970739F0FC014B
:1005C0002191CF012FB9779BFECFF6CF08958FB938
:1005D000779BFECF8FB10895BE9AC69A0895DF9299
:1005E000EF92FF920F931F93CF93DF9300E010E001
:1005F000C598C02FC695C8618C2F0E94E70298014C
:100600003695322F222737952795822F8064D82E52
:100610000E94E702C59A82E08A95F1F700C0C5986A
:100620008C2F0E94E7028D2D0E94E702C59A82E07E
:100630008A95F1F700C0C5988C2F0E94E702282FF9
:1006400030E0E801CC0FDD1FCA57DE4F3EA72DA7D3
:100650002DA53EA5322F22273EA72DA72DA53EA5CD
:1006600022273F703EA72DA7EDA4FEA48D2D0E944A
:10067000E702E82AFEA6EDA6C59A82E08A95F1F780
:1006800000C00F5F1F4F0630110509F0B1CFC698AB
:10069000DF91CF911F910F91FF90EF90DF90089520
:1006A000109271001092740088E480937000089595
:1006B00024EA209374009091740097FFFCCF9091EE
:1006C0007100987F9833A9F390917100987F9031D1
:1006D00029F090917100987F9830C9F5880F8F5F4D
:1006E0008093730084E8809374008091740087FF86
:1006F000FCCF80917100887F883401F18091710076
:10070000887F883339F180917100887F8034E1F4EB
:1007100085E88A95F1F7000084E880937400809161
:10072000740087FFFCCF80917100887F803511F0C5
:10073000883551F480917300FB01808384E98093B4
:10074000740081E090E0089584E9809374008FEF55
:100750009FEF08958EEF9FEF089524EA2093740091
:100760009091740097FFFCCF90917100987F98331F
:10077000A9F390917100987F903129F090917100C8
:10078000987F9830A9F5880F8093730084E8809350
:1007900074008091740087FFFCCF80917100887F86
:1007A000803201F180917100887F883321F180913E
:1007B0007100887F883191F485E88A95F1F700000F
:1007C0006093730084E8809374008091740087FFC5
:1007D000FCCF80917100887F883221F084E980937A
:1007E000740006C084E98093740081E090E008956D
:1007F0008FEF9FEF08958EEF9FEF08951BB81AB803
:10080000E5E9F0E01082599A8AB188618AB980815D
:100810008660808387E689B9109290000895CF930F
:10082000DF93CBE9D0E01882AAE9B0E01C92EDE9B1
:10083000F0E010828881826088838C9188618C933B
:1008400080818E60808387E6809399001092980063
:10085000DF91CF91089590919B0095FFFCCF8093FD
:100860009C0008955D9BFECF8CB9089580919B00FC
:1008700087FFFCCF80919C0008955F9BFECF8CB1D9
:100880000895FC012191CF01222339F030919B0082
:1008900035FFFCCF20939C00F4CF0895FC012191FB
:1008A000CF01222321F05D9BFECF2CB9F7CF089515
:1008B000CF93DF93CDB7DEB7C857D1090FB6F89401
:1008C000DEBF0FBECDBF80EF8ABB8BBB2FEF89E6AB
:1008D00098E1215080409040E1F700C000001BBA31
:1008E0002FEF89E698E1215080409040E1F700C069
:1008F000000080EF8BBB2FEF89E698E1215080400C
:100900009040E1F700C000001BBA2FEF89E698E1A4
:10091000215080409040E1F700C000000E94FE039B
:1009200088E40E94320485E60E9432048CE60E942C
:1009300032048CE60E9432048FE60E94320467E0A3
:1009400071E0CE018F5A9F4F0E94EF04CE018F5A63
:100950009F4F0E944E046FE271E0CE0189960E9483
:10096000EF0465E571E0CE0101960E94EF040E945C
:10097000500200E010E888E40E9432048DE00E94FA
:100980003204CE0101960E944E048BE20E94320492
:1009900088E50E94320480E20E94320489E50E94C8
:1009A000320480E20E9432048AE50E9432048DE023
:1009B0000E9432041092D8011093D3010093D20107
:1009C0001092D9011093D5010093D4011092DA014D
:1009D0001093D7010093D6010E947602CCCFFB0181
:1009E000DC0101900D920020E1F70895F894FFCF0B
:1009F000FFFFFFFFFFFFFF092E2E54686973206978
:100A000073204949544227732053747564656E748A
:100A100020536174656C6C6974652E2E2E0D00096F
:100A200054686973206973204855535341494E27D0
:100A300073204F42432D4D617374657220636F6460
:100A4000652E2E2E000D47656E65726174696E67A6
:100A500020546F72717565722043757272656E7481
:0E0A600020666F72203D09002A3030500D00D4
:00000001FF
