:100000000C9446000C9465000C9465000C946500FB
:100010000C9465000C9465000C9465000C946500CC
:100020000C9465000C9465000C9465000C946500BC
:100030000C9465000C9465000C9473000C9465009E
:100040000C9465000C9465000C9495000C9465006C
:100050000C9465000C9465000C9465000C9465008C
:100060000C9465000C9465000C9465000C9465007C
:100070000C9465000C9465000C9465000C9465006C
:100080000C9465000C9465000C94650011241FBE4F
:10009000CFEFD0E1DEBFCDBF11E0A0E0B1E0E4E9F9
:1000A000F3E100E00BBF02C007900D92A238B10748
:1000B000D9F722E0A2E8B1E001C01D92A731B20752
:1000C000E1F70E9409050C94C8090C9400008EB554
:1000D00082608EBD1DBC1CBC87B7846087BF7894CE
:1000E0001092E10108951F920F920FB60F92112402
:1000F0008F938091E1018F5F8093E1018F910F9049
:100100000FBE0F901F9018951BB81AB8E5E9F0E0E4
:100110001082599A8AB188618AB980818E60808301
:1001200087E689B91092900008951F920F920FB63A
:100130000F9211240BB60F922F938F939F93AF932F
:10014000BF93EF93FF938CB18093830180918401DF
:1001500090918501A0918601B0918701BA2FA92FB6
:10016000982F88278093840190938501A09386011E
:10017000B09387018091840190918501A0918601BF
:10018000B091870188278093840190938501A09383
:100190008601B09387018091840190918501A0919F
:1001A0008601B091870120918301822B8093840185
:1001B00090938501A0938601B093870180910601F9
:1001C0008C30A0F4E091060180918301F0E0E651CB
:1001D000FE4F8083809106018F5F8093060180919E
:1001E00006018C3019F48FEF809306018091050190
:1001F0008C30A0F4E091050180918301F0E0EA5099
:10020000FE4F8083809105018F5F8093050180916F
:1002100005018C3019F48FEF809305018091040162
:100220008430C0F480910401823040F0E0910401F8
:1002300080918301F0E0E250FF4F808380910401C0
:100240008F5F8093040180910401843019F48FEF53
:1002500080930401809103018031C0F480910301F7
:10026000843040F0E091030180918301F0E0E2509E
:10027000FE4F8083809103018F5F80930301809103
:100280000301803119F48FEF809303018091020103
:100290008730B8F4E091020180918301F0E0E25FE1
:1002A000FD4F8083809102018F5F809302018091D6
:1002B0000201873031F48FEF8093020181E0809357
:1002C00082018091840190918501A0918601B09175
:1002D00087018C3A9440AF43BF4329F410928201C6
:1002E000109206013FC08091840190918501A091F8
:1002F0008601B09187018C3A9540AF43BF4319F412
:10030000109205012FC08091840190918501A091E8
:100310008601B09187018C3A9B40AF43BF4319F4EB
:10032000109204011FC08091840190918501A091D9
:100330008601B09187018C3A9E40AF43BF4319F4C8
:10034000109203010FC08091840190918501A091CA
:100350008601B09187018C3A9F40AF43BF4311F4AF
:10036000109202018091000190910101843F91401F
:10037000F0F48091000190910101892BC1F08091EE
:1003800082018823A1F081E08093DF0157988FEFED
:100390009FEF9093010180930001109282011092CF
:1003A0008401109285011092860110928701FF91BD
:1003B000EF91BF91AF919F918F912F910F900BBEB5
:1003C0000F900FBE0F901F901895CF93DF93CFEC37
:1003D000D1E0BE0182E20E940904219681E0C63D7F
:1003E000D807B9F7DF91CF9108956091CF0182E2EC
:1003F0000C945E04CF93DF93CBE9D0E01882AAE996
:10040000B0E01C92EDE9F0E0108288818260888380
:100410008C9188618C9380818E60808387E6809345
:10042000990010929800DF91CF91089580919B00E0
:1004300087FFFCCF80919C000895FC012191CF01A2
:10044000222339F030919B0035FFFCCF20939C0094
:10045000F4CF0895AF92BF92CF92DF92EF92FF92C6
:100460000F931F93CF93DF93CDB7DEB7C456D10957
:100470000FB6F894DEBF0FBECDBF8FE491E00E94AF
:100480001D020E941602C82ED12CDC2CCC240E9406
:100490001602C82A0E941602E82EF12CFE2CEE2429
:1004A0000E941602E82A0E941602082F10E0102F60
:1004B00000270E941602082B0E9416021F930F931A
:1004C000FF92EF92DF92CF9287E791E09F938F9315
:1004D000CE0101965C01BF928F930E94F806F50150
:1004E00001900020E9F7BF01615071096A197B0989
:1004F000C5010E94F402B601882777FD8095982FE8
:100500000E94650620E030E64AE656E40E94FB05BC
:100510006093C3017093C4018093C5019093C60199
:10052000B701882777FD8095982F0E94650620E007
:1005300030E64AE656E40E94FB056093C7017093DB
:10054000C8018093C9019093CA01B801882777FD3B
:100550008095982F0E94650620E030E64AE656E432
:100560000E94FB056093CB017093CC018093CD0179
:100570009093CE010FB6F894DEBF0FBECDBFCC591D
:10058000DF4F0FB6F894DEBF0FBECDBFDF91CF9126
:100590001F910F91FF90EF90DF90CF90BF90AF90A1
:1005A0000895EFECF1E0908121E030E001C0220FEE
:1005B0008A95EAF7922B90830C94F501EFECF1E029
:1005C000908121E030E001C0220F8A95EAF7209562
:1005D000292320830C94F501579A08950E949D03C6
:1005E0000C94A0030C942A02680F791F86179707B2
:1005F00039F05D9BFECFFC012191CF012CB9F6CFE4
:10060000089584B3886384BB82B1886382B9ABE800
:10061000B0E01C92EAE8F0E0108210928C008C911D
:100620008A6A8C938081816180838FEF9FEF9093A2
:10063000810080938000E4E8F0E011821082118252
:1006400010821182108285B3877C85BB08958091CA
:10065000DC01882311F0AD9A01C0AD988091DD01D5
:10066000882311F0AC9A01C0AC988091DE018823F8
:1006700011F0AB9A01C0AB988091D6019091D7014F
:1006800090938700809386008091D8019091D90142
:1006900090938500809384008091DA019091DB0132
:1006A000909383008093820008951092D701109256
:1006B000D6011092D9011092D8011092DB0110924C
:1006C000DA011092DC011092DD011092DE010C942F
:1006D000270387B3807F87BBBB9A80EC8DB90895D1
:1006E00017BA86E087BB87B3816387BB88B3816312
:1006F00088BB83E58DB9089598B3916398BB98B38F
:1007000021E030E0082E01C0220F0A94EAF720957C
:10071000292328BB0895680F791F8617970739F09A
:10072000FC012191CF012FB9779BFECFF6CF089521
:100730008FB9779BFECF8FB10895BE9AC69A089560
:10074000DF92EF92FF920F931F93CF93DF9300E01E
:1007500010E0C598C02FC695C8618C2F0E949803E1
:1007600098013695322F222737952795822F80645E
:10077000D82E0E949803C59A82E08A95F1F700C0AE
:10078000C5988C2F0E9498038D2D0E949803C59ABE
:1007900082E08A95F1F700C0C5988C2F0E949803DB
:1007A000282F30E0E801CC0FDD1FC657DE4F3EA7F3
:1007B0002DA72DA53EA5322F22273EA72DA72DA57B
:1007C0003EA522273F703EA72DA7EDA4FEA48D2DA8
:1007D0000E949803E82AFEA6EDA6C59A82E08A95B3
:1007E000F1F700C00F5F1F4F0630110509F0B1CFC0
:1007F000C698DF91CF911F910F91FF90EF90DF90FE
:100800000895109271001092740088E48093700033
:10081000089524EA209374009091740097FFFCCF10
:1008200090917100987F9833A9F390917100987F0F
:10083000903129F090917100987F9830C9F5880F18
:100840008F5F8093730084E88093740080917400BC
:1008500087FFFCCF80917100887F883401F18091FF
:100860007100887F883339F180917100887F8034EE
:10087000E1F485E88A95F1F7000084E8809374003C
:100880008091740087FFFCCF80917100887F803554
:1008900011F0883551F480917300FB01808384E965
:1008A0008093740081E090E0089584E9809374005F
:1008B0008FEF9FEF08958EEF9FEF089524EA209326
:1008C00074009091740097FFFCCF90917100987F15
:1008D0009833A9F390917100987F903129F090910D
:1008E0007100987F9830A9F5880F8093730084E891
:1008F000809374008091740087FFFCCF8091710019
:10090000887F803201F180917100887F883321F1E6
:1009100080917100887F883191F485E88A95F1F79C
:1009200000006093730084E88093740080917400E9
:1009300087FFFCCF80917100887F883221F084E9A5
:100940008093740006C084E98093740081E090E095
:1009500008958FEF9FEF08958EEF9FEF08951BB8D6
:100960001AB8E5E9F0E01082599A8AB188618AB92B
:1009700080818E60808387E689B910929000089507
:10098000CF93DF93CBE9D0E01882AAE9B0E01C92C4
:10099000EDE9F0E010828881826088838C91886123
:1009A0008C9380818E60808387E68093990010927B
:1009B0009800DF91CF91089590919B0095FFFCCF17
:1009C00080939C0008955D9BFECF8CB90895809123
:1009D0009B0087FFFCCF80919C0008955F9BFECF1A
:1009E0008CB10895FC012191CF01222339F030917F
:1009F0009B0035FFFCCF20939C00F4CF0895FC01B1
:100A00002191CF01222321F05D9BFECF2CB9F7CF9E
:100A10000895CF93DF93CDB7DEB7CC58D1090FB689
:100A2000F894DEBF0FBECDBF80EF8ABB8BBB2FEF2C
:100A300089E698E1215080409040E1F700C0000035
:100A40001BBA2FEF89E698E1215080409040E1F7F2
:100A500000C0000080EF8BBB2FEF89E698E12150AA
:100A600080409040E1F700C000001BBA2FEF89E6FC
:100A700098E1215080409040E1F700C000000E94C2
:100A8000AF048DE00E94E3048DE00E94E30488E45B
:100A90000E94E30485E60E94E3048CE60E94E304DE
:100AA0008CE60E94E3048FE60E94E30467E071E0B5
:100AB000CE0189960E94F1066DE271E0CE010196A9
:100AC0000E94F106CE0189960E94FF04CE01019694
:100AD0000E94FF040E94FA010E94670005E511E0F0
:100AE0003E0129E7620E711C5E0185E6A80EB11C6D
:100AF0004E0191E5890E911C8091E1018F30E0F368
:100B00008FE491E00E941D0280919A0080939A00E8
:100B100080919A00806180939A000E941602482E6C
:100B2000512C542C44240E941602482A0E9416027A
:100B3000C82ED12CDC2CCC240E941602C82A0E947C
:100B40001602E82EF12CFE2CEE240E941602E82A52
:100B50000E9416028DE00E94E3044114510439F40E
:100B6000C114D10421F4E114F10409F43FC05F92EF
:100B70004F921F930F937F926F920E94F806DF921D
:100B8000CF921F930F93BF92AF920E94F806FF92ED
:100B9000EF921F930F939F928F920E94F80688E71F
:100BA0000E94E304C3010E94FF0480E20E94E30468
:100BB00089E70E94E304C5010E94FF0480E20E94CD
:100BC000E3048AE70E94E304C4010E94FF048DE06D
:100BD0000E94E30488E591E00E94FF048DE00E94FA
:100BE000E3040FB6F894DEBF0FBECDBF1092E10153
:100BF0001DBC1CBC81CF0CD0BAC0B2D040F0A9D073
:100C000030F021F45F3F19F09BC05111E4C09EC049
:100C1000BFD098F39923C9F35523B1F3951B550B16
:100C2000BB27AA2762177307840738F09F5F5F4FBF
:100C3000220F331F441FAA1FA9F333D00E2E3AF000
:100C4000E0E830D091505040E695001CCAF729D01A
:100C5000FE2F27D0660F771F881FBB1F2617370769
:100C60004807AB07B0E809F0BB0B802DBF01FF2799
:100C700093585F4F2AF09E3F510568F061C0ABC0AA
:100C80005F3FECF3983EDCF3869577956795B795D3
:100C9000F7959F5FC9F7880F911D9695879597F9EE
:100CA0000895E1E0660F771F881FBB1F6217730767
:100CB0008407BA0720F0621B730B840BBA0BEE1F7C
:100CC00088F7E0950895E89409C097FB3EF4909565
:100CD0008095709561957F4F8F4F9F4F9923A9F015
:100CE000F92F96E9BB279395F695879577956795A4
:100CF000B795F111F8CFFAF4BB0F11F460FF1BC0E8
:100D00006F5F7F4F8F4F9F4F16C0882311F096E97A
:100D100011C0772321F09EE8872F762F05C0662328
:100D200071F096E8862F70E060E02AF09A95660FE1
:100D3000771F881FDAF7880F9695879597F908959A
:100D400097F99F6780E870E060E008959FEF80EC7E
:100D5000089500240A941616170618060906089521
:100D600000240A9412161306140605060895092E87
:100D70000394000C11F4882352F0BB0F40F4BF2BF6
:100D800011F460FF04C06F5F7F4F8F4F9F4F089536
:100D900057FD9058440F551F59F05F3F71F047952C
:100DA000880F97FB991F61F09F3F79F08795089511
:100DB000121613061406551FF2CF4695F1DF08C030
:100DC000161617061806991FF1CF8695710561054D
:100DD00008940895E894BB2766277727CB0197F9F5
:100DE0000895FB01DC0101900D920020E1F70895C8
:100DF0000F931F93CF93DF93CDB7DEB72E970FB628
:100E0000F894DEBF0FBECDBF0D891E8986E08C83AE
:100E10001A8309838FEF9FE79E838D83AE01475E20
:100E20005F4F6F89788DCE0101960E942707EF8171
:100E3000F885E00FF11F10822E960FB6F894DEBFF2
:100E40000FBECDBFDF91CF911F910F9108952F92CB
:100E50003F924F925F926F927F928F929F92AF924A
:100E6000BF92CF92DF92EF92FF920F931F93CF9397
:100E7000DF93CDB7DEB72C970FB6F894DEBF0FBE69
:100E8000CDBF7C016B018A01FC0117821682838130
:100E900081FFBDC1CE0101964C01F7019381F6019E
:100EA00093FD859193FF81916F01882309F4ABC174
:100EB000853239F493FD859193FF81916F018532DD
:100EC00029F4B70190E00E943809E7CF512C312C6A
:100ED00020E02032A0F48B3269F030F4803259F0F7
:100EE000833269F420612CC08D3239F0803339F4BB
:100EF000216026C02260246023C0286021C027FD15
:100F000027C030ED380F3A3078F426FF06C0FAE0FB
:100F10005F9E300D1124532E13C08AE0389E300D91
:100F20001124332E20620CC08E3221F426FD6BC1B9
:100F3000206406C08C3611F4206802C0883641F463
:100F4000F60193FD859193FF81916F018111C1CFCE
:100F5000982F9F7D9554933028F40C5F1F4FFFE32B
:100F6000F9830DC0833631F0833771F0833509F092
:100F70005BC022C0F801808189830E5F1F4F44242B
:100F80004394512C540115C03801F2E06F0E711CCE
:100F9000F801A080B18026FF03C0652D70E002C07B
:100FA0006FEF7FEFC5012C870E942D092C01830173
:100FB0002C852F77222E17C03801F2E06F0E711C9E
:100FC000F801A080B18026FF03C0652D70E002C04B
:100FD0006FEF7FEFC5012C870E9422092C012C8521
:100FE0002068222E830123FC1BC0832D90E048162D
:100FF0005906B0F4B70180E290E00E9438093A94B3
:10100000F4CFF50127FC859127FE81915F01B7019F
:1010100090E00E94380931103A94F1E04F1A5108DB
:101020004114510471F7E5C0843611F0893639F561
:10103000F80127FF07C060817181828193810C5F75
:101040001F4F08C060817181882777FD8095982F98
:101050000E5F1F4F2F76B22E97FF09C09095809597
:10106000709561957F4F8F4F9F4F2068B22E2AE079
:1010700030E0A4010E946A09A82EA81844C0853750
:1010800029F42F7EB22E2AE030E025C0F22FF97F1E
:10109000BF2E8F36C1F018F4883579F0B4C0803790
:1010A00019F0883721F0AFC02F2F2061B22EB4FE87
:1010B0000DC08B2D8460B82E09C024FF0AC09F2F5D
:1010C0009660B92E06C028E030E005C020E130E08F
:1010D00002C020E132E0F801B7FE07C060817181F3
:1010E000828193810C5F1F4F06C06081718180E017
:1010F00090E00E5F1F4FA4010E946A09A82EA81855
:10110000FB2DFF77BF2EB6FE0BC02B2D2E7FA51417
:1011100050F4B4FE0AC0B2FC08C02B2D2E7E05C0D0
:101120007A2C2B2D03C07A2C01C0752C24FF0DC006
:10113000FE01EA0DF11D8081803311F4297E09C082
:1011400022FF06C07394739404C0822F867809F03E
:10115000739423FD13C020FF06C05A2C731418F497
:10116000530C5718732C731468F4B70180E290E0A5
:101170002C870E94380973942C85F5CF731410F4D2
:10118000371801C0312C24FF12C0B70180E390E072
:101190002C870E9438092C8522FF17C021FF03C02D
:1011A00088E590E002C088E790E0B7010CC0822F8C
:1011B000867859F021FD02C080E201C08BE227FD54
:1011C0008DE2B70190E00E943809A51438F4B70108
:1011D00080E390E00E9438095A94F7CFAA94F40172
:1011E000EA0DF11D8081B70190E00E943809A1103D
:1011F000F5CF332009F451CEB70180E290E00E9490
:1012000038093A94F6CFF7018681978102C08FEFB3
:101210009FEF2C960FB6F894DEBF0FBECDBFDF91C7
:10122000CF911F910F91FF90EF90DF90CF90BF90E3
:10123000AF909F908F907F906F905F904F903F9076
:101240002F900895FC010590615070400110D8F76F
:10125000809590958E0F9F1F0895FC0161507040FE
:1012600001900110D8F7809590958E0F9F1F0895DB
:101270000F931F93CF93DF93182F092FEB018B81CF
:1012800081FD03C08FEF9FEF20C082FF10C04E8111
:101290005F812C813D81421753077CF4E881F981FD
:1012A0009F012F5F3F4F39832883108306C0E88555
:1012B000F985812F0995892B29F72E813F812F5F91
:1012C0003F4F3F832E83812F902FDF91CF911F912E
:1012D0000F910895FA01AA27283051F1203181F1A8
:1012E000E8946F936E7F6E5F7F4F8F4F9F4FAF4F2E
:1012F000B1E03ED0B4E03CD0670F781F891F9A1F41
:10130000A11D680F791F8A1F911DA11D6A0F711DF4
:10131000811D911DA11D20D009F468943F912AE000
:10132000269F11243019305D3193DEF6CF010895E8
:10133000462F4770405D4193B3E00FD0C9F7F6CF19
:10134000462F4F70405D4A3318F0495D31FD4052E1
:10135000419302D0A9F7EACFB4E0A6959795879577
:1013600077956795BA95C9F7009761057105089556
:101370009B01AC010A2E0694579547953795279502
:10138000BA95C9F7620F731F841F951FA01D08959A
:04139000F894FFCFFF
:10139400FFFFFFFFFFFFFF09546869732069732093
:1013A4005052415448414D2773204F42432D4D61C3
:1013B4007374657220636F64652E2E2E000D437561
:1013C4007272656E74204D61676E65746F4D6574DD
:1013D4006572207374617465206973203D09002A65
:1013E4003030500D0025640048656C6C6F207468C3
:1013F4006973206973204E617665656E2066726F2D
:101404006D20494954420025642025642025640D3B
:021414000000D6
:00000001FF
