:100000000C9446000C9465000C9465000C946500FB
:100010000C9465000C9465000C9465000C946500CC
:100020000C9465000C9465000C9465000C946500BC
:100030000C9465000C9465000C9465000C946500AC
:100040000C9465000C9465000C9465000C9465009C
:100050000C9465000C9465000C9465000C9465008C
:100060000C9465000C9465000C9465000C9465007C
:100070000C9465000C9465000C9483000C9465004E
:100080000C9465000C9465000C94650011241FBE4F
:10009000CFEFD0E1DEBFCDBF11E0A0E0B1E0E0E8FE
:1000A000F8E100E00BBF02C007900D92A839B1073C
:1000B000D9F722E0A8E9B1E001C01D92A33AB20746
:1000C000E1F70E942F070C943E0C0C940000CF9394
:1000D000DF93CBE9D0E01882AAE9B0E01C92EDE909
:1000E000F0E010828881826088838C9188698C938B
:1000F00080818660808387E68093990010929800C3
:10010000DF91CF9108951F920F920FB60F92112495
:100110002F938F939F93AF93BF9380919C00809375
:10012000990180919A0190919B01A0919C01B091BD
:100130009D01BA2FA92F982F882780939A01909319
:100140009B01A0939C01B0939D0180919A01909195
:100150009B01A0919C01B0919D01882780939A01F9
:1001600090939B01A0939C01B0939D0180919A0173
:1001700090919B01A0919C01B0919D0120919901CA
:10018000822B80939A0190939B01A0939C01B09342
:100190009D01809107018C3008F0C8C08091070153
:1001A0008430D8F58091A0019091A101A091A20185
:1001B000B091A301892F9A2FAB2FBB27A7FDBA952A
:1001C0008093A0019093A101A093A201B093A301F9
:1001D0008091A0019091A101A091A201B091A301F1
:1001E000BB278093A0019093A101A093A201B0939B
:1001F000A3018091A0019091A101A091A201B091D1
:10020000A30120919901B22B8093A0019093A101A9
:10021000A093A201B093A3017DC080910701883013
:10022000D8F58091A4019091A501A091A601B0916B
:10023000A701892F9A2FAB2FBB27A7FDBA958093D3
:10024000A4019093A501A093A601B093A70180916A
:10025000A4019091A501A091A601B091A701BB278F
:100260008093A4019093A501A093A601B093A70148
:100270008091A4019091A501A091A601B091A70140
:1002800020919901B22B8093A4019093A501A09392
:10029000A601B093A7013EC0809107018C30D0F534
:1002A0008091A8019091A901A091AA01B091AB0100
:1002B000892F9A2FAB2FBB27A7FDBA958093A80152
:1002C0009093A901A093AA01B093AB018091A801DA
:1002D0009091A901A091AA01B091AB01BB27809395
:1002E000A8019093A901A093AA01B093AB018091BA
:1002F000A8019091A901A091AA01B091AB01209110
:100300009901B22B8093A8019093A901A093AA010F
:10031000B093AB01809107018F5F809307018091BB
:1003200007018C3019F48FEF80930701809106014B
:100330008C3008F0C8C0809106018430D8F58091D7
:10034000AC019091AD01A091AE01B091AF01892FA8
:100350009A2FAB2FBB27A7FDBA958093AC01909342
:10036000AD01A093AE01B093AF018091AC0190912B
:10037000AD01A091AE01B091AF01BB278093AC015C
:100380009093AD01A093AE01B093AF018091AC0109
:100390009091AD01A091AE01B091AF012091990172
:1003A000B22B8093AC019093AD01A093AE01B093BA
:1003B000AF017DC0809106018830D8F58091B001F1
:1003C0009091B101A091B201B091B301892F9A2F00
:1003D000AB2FBB27A7FDBA958093B0019093B101D5
:1003E000A093B201B093B3018091B0019091B1019B
:1003F000A091B201B091B301BB278093B00190935B
:10040000B101A093B201B093B3018091B00190917A
:10041000B101A091B201B091B30120919901B22B29
:100420008093B0019093B101A093B201B093B30156
:100430003EC0809106018C30D0F58091B40190913E
:10044000B501A091B601B091B701892F9A2FAB2FBA
:10045000BB27A7FDBA958093B4019093B501A093F3
:10046000B601B093B7018091B4019091B501A0910C
:10047000B601B091B701BB278093B4019093B50149
:10048000A093B601B093B7018091B4019091B501EA
:10049000A091B601B091B70120919901B22B809340
:1004A000B4019093B501A093B601B093B7018091C8
:1004B00006018F5F80930601809106018C3019F44C
:1004C0008FEF8093060180910501843070F5809153
:1004D00005018230F0F08091010190910201892F95
:1004E00099279093020180930101809101019091DD
:1004F00002019927909302018093010180910101EB
:100500009091020120919901922B90930201809386
:100510000101809105018F5F8093050180910501A4
:10052000843019F48FEF80930501809104018031AC
:1005300008F0CDC080910401843008F4BCC08091E3
:1005400004018830D8F58091B8019091B901A0914B
:10055000BA01B091BB01892F9A2FAB2FBB27A7FD02
:10056000BA958093B8019093B901A093BA01B09362
:10057000BB018091B8019091B901A091BA01B091ED
:10058000BB01BB278093B8019093B901A093BA0136
:10059000B093BB018091B8019091B901A091BA01CB
:1005A000B091BB0120919901B22B8093B801909337
:1005B000B901A093BA01B093BB017DC08091040141
:1005C0008C30D8F58091BC019091BD01A091BE0105
:1005D000B091BF01892F9A2FAB2FBB27A7FDBA95EA
:1005E0008093BC019093BD01A093BE01B093BF0165
:1005F0008091BC019091BD01A091BE01B091BF015D
:10060000BB278093BC019093BD01A093BE01B09322
:10061000BF018091BC019091BD01A091BE01B0913C
:10062000BF0120919901B22B8093BC019093BD0131
:10063000A093BE01B093BF013EC080910401803100
:10064000D0F58091C0019091C101A091C201B091FB
:10065000C301892F9A2FAB2FBB27A7FDBA95809393
:10066000C0019093C101A093C201B093C3018091D6
:10067000C0019091C101A091C201B091C301BB27FB
:100680008093C0019093C101A093C201B093C301B4
:100690008091C0019091C101A091C201B091C301AC
:1006A00020919901B22B8093C0019093C101A09336
:1006B000C201B093C301809104018F5F8093040154
:1006C00080910401803119F48FEF809304018091AF
:1006D0000301873008F05EC080910301811105C0DD
:1006E000809199018093C40146C0809103018130BB
:1006F00029F4809199018093C5013DC08091030147
:10070000823029F4809199018093C60134C0809190
:100710000301833029F4809199018093C7012BC094
:1007200080910301843029F4809199018093C8015C
:1007300022C0809103018530F0F08091C901909131
:10074000CA01892F99279093CA018093C90180918A
:10075000C9019091CA0199279093CA018093C90158
:100760008091C9019091CA0120919901922B909397
:10077000CA018093C901809103018F5F80930301B7
:1007800080910301873031F48FEF8093030181E082
:100790008093980180919A0190919B01A0919C0176
:1007A000B0919D018C3A9440AF43BF4329F410921D
:1007B0009801109207013FC080919A0190919B018E
:1007C000A0919C01B0919D018C3A9540AF43BF43ED
:1007D00019F4109206012FC080919A0190919B010B
:1007E000A0919C01B0919D018C3A9B40AF43BF43C7
:1007F00019F4109205011FC080919A0190919B01FC
:10080000A0919C01B0919D018C3A9E40AF43BF43A3
:1008100019F4109204010FC080919A0190919B01EC
:10082000A0919C01B0919D018C3A9F40AF43BF4382
:1008300011F4109203018091010190910201843F13
:10084000914010F58091010190910201892BE1F016
:10085000809198018823C1F081E08093000180910C
:100860009A008F7780939A008FEF9FEF9093020109
:10087000809301011092980110929A0110929B01AD
:1008800010929C0110929D01BF91AF919F918F9109
:100890002F910F900FBE0F901F901895CF93DF935D
:1008A000C5EED1E0BE0182E20E942F06219681E0D2
:1008B000CC3ED807B9F7DF91CF9108956091E5015B
:1008C00082E20C948406CF93DF93CBE9D0E01882C8
:1008D000AAE9B0E01C92EDE9F0E010828881826024
:1008E00088838C9188618C9380818660808387E681
:1008F0008093990010929800DF91CF910895809194
:100900009B0087FFFCCF80919C000895FC01219102
:10091000CF01222339F030919B0035FFFCCF20938B
:100920009C00F4CF0895EF92FF920F931F93CF9303
:10093000DF9382E991E00E9486040E947F04682F81
:1009400070E0F62EEE240E947F04E82A0E947F04C5
:10095000082F10E0102F00270E947F04082B0E9410
:100960007F04C82FD0E0DC2FCC270E947F04C82B47
:100970000E947F04B701882777FD8095982F0E94F9
:10098000DB0820E030E64AE656E40E9471086093F6
:10099000D9017093DA018093DB019093DC01B801F7
:1009A000882777FD8095982F0E94DB0820E030E6AD
:1009B0004AE656E40E9471086093DD017093DE01FF
:1009C0008093DF019093E001BE01882777FD809539
:1009D000982F0E94DB0820E030E64AE656E40E94A9
:1009E00071086093E1017093E2018093E3019093B9
:1009F000E401DF91CF911F910F91FF90EF90089547
:100A0000E5EEF1E0908121E030E001C0220F8A950F
:100A1000EAF7922B90830C945E04E5EEF1E090816E
:100A200021E030E001C0220F8A95EAF720952923C2
:100A300020830C945E04EAE9F0E080818068808382
:100A400008950E94C3050C94C6050C94930484B3C6
:100A5000886384BB82B1886382B9ABE8B0E01C9242
:100A6000EAE8F0E0108210928C008C918A6A8C93F4
:100A70008081816180838FEF9FEF909381008093CD
:100A80008000E4E8F0E0118210821182108211826D
:100A9000108285B3877C85BB08958091F2018823FD
:100AA00011F0AD9A01C0AD988091F301882311F047
:100AB000AC9A01C0AC988091F401882311F0AB9AF4
:100AC00001C0AB988091EC019091ED01909387006B
:100AD000809386008091EE019091EF0190938500C4
:100AE000809384008091F0019091F10190938300B4
:100AF0008093820008951092ED011092EC01109203
:100B0000EF011092EE011092F1011092F00110929B
:100B1000F2011092F3011092F4010C944D0587B389
:100B2000807F87BBBB9A80EC8DB9089517BA86E0A9
:100B300087BB87B3816387BB88B3816388BB83E549
:100B40008DB9089598B3916398BB98B321E030E0D4
:100B5000082E01C0220F0A94EAF72095292328BB0A
:100B60000895680F791F8617970739F0FC012191C6
:100B7000CF012FB9779BFECFF6CF08958FB9779B22
:100B8000FECF8FB10895BE9AC69A0895DF92EF9274
:100B9000FF920F931F93CF93DF9300E010E0C5986F
:100BA000C02FC695C8618C2F0E94BE05980136954E
:100BB000322F222737952795822F8064D82E0E94C6
:100BC000BE05C59A82E08A95F1F700C0C5988C2FC2
:100BD0000E94BE058D2D0E94BE05C59A82E08A95B1
:100BE000F1F700C0C5988C2F0E94BE05282F30E079
:100BF000E801CC0FDD1FC056DE4F3EA72DA72DA567
:100C00003EA5322F22273EA72DA72DA53EA52227A0
:100C10003F703EA72DA7EDA4FEA48D2D0E94BE051A
:100C2000E82AFEA6EDA6C59A82E08A95F1F700C0F3
:100C30000F5F1F4F0630110509F0B1CFC698DF9145
:100C4000CF911F910F91FF90EF90DF900895109238
:100C500071001092740088E480937000089524EA73
:100C6000209374009091740097FFFCCF90917100D5
:100C7000987F9833A9F390917100987F903129F073
:100C800090917100987F9830C9F5880F8F5F80939D
:100C9000730084E8809374008091740087FFFCCF18
:100CA00080917100887F883401F180917100887F84
:100CB000883339F180917100887F8034E1F485E8D0
:100CC0008A95F1F7000084E88093740080917400A5
:100CD00087FFFCCF80917100887F803511F08835C7
:100CE00051F480917300FB01808384E98093740048
:100CF00081E090E0089584E9809374008FEF9FEF86
:100D000008958EEF9FEF089524EA20937400909148
:100D1000740097FFFCCF90917100987F9833A9F3EE
:100D200090917100987F903129F090917100987F97
:100D30009830A9F5880F8093730084E8809374003D
:100D40008091740087FFFCCF80917100887F803292
:100D500001F180917100887F883321F180917100C9
:100D6000887F883191F485E88A95F1F700006093D7
:100D7000730084E8809374008091740087FFFCCF37
:100D800080917100887F883221F084E9809374001B
:100D900006C084E98093740081E090E008958FEFAD
:100DA0009FEF08958EEF9FEF08951BB81AB8E5E9FD
:100DB000F0E01082599A8AB188618AB980818E6088
:100DC000808387E689B9109290000895CF93DF93CE
:100DD000CBE9D0E01882AAE9B0E01C92EDE9F0E09E
:100DE00010828881826088838C9188618C93808155
:100DF0008E60808387E68093990010929800DF913F
:100E0000CF91089590919B0095FFFCCF80939C001B
:100E100008955D9BFECF8CB9089580919B0087FF5C
:100E2000FCCF80919C0008955F9BFECF8CB108950C
:100E3000FC012191CF01222339F030919B0035FF35
:100E4000FCCF20939C00F4CF0895FC012191CF01A9
:100E5000222321F05D9BFECF2CB9F7CF0895CF93CD
:100E6000DF93CDB7DEB7C857D1090FB6F894DEBF10
:100E70000FBECDBF80EF8ABB8BBB2FEF89E698E119
:100E8000215080409040E1F700C000001BBA2FEFD6
:100E900089E698E1215080409040E1F700C00000D1
:100EA00080EF8BBB2FEF89E698E121508040904086
:100EB000E1F700C000001BBA2FEF89E698E121504E
:100EC00080409040E1F700C000000E94D5068DE010
:100ED0000E9409078DE00E94090788E40E94090723
:100EE00085E60E9409078CE60E9409078CE60E94AD
:100EF00009078FE60E94090768E071E0CE018F5A6A
:100F00009F4F0E946709CE018F5A9F4F0E9425076D
:100F100060E371E0CE0189960E94670966E571E0A1
:100F2000CE0101960E9467090E94670078948E01A5
:100F30000F5A1F4F80EA782E90E5692E2FE6822EF9
:100F400021E0922E39E7A32E31E0B32E43E8C42EE0
:100F500041E0D42E5DE8E52E51E0F52E7BBA2FEF6F
:100F600084E39CE0215080409040E1F700C0000005
:100F70006BBA2FEF84E39CE0215080409040E1F772
:100F800000C000008DE00E9409078DE00E94090763
:100F900088E40E94090789E60E9409077BBA2FEFBF
:100FA00084E39CE0215080409040E1F700C00000C5
:100FB0006BBA2FEF84E39CE0215080409040E1F732
:100FC00000C000000E941B0580919A0087FDFCCFA5
:100FD0008091A0019091A101A091A201B091A301E3
:100FE000BF93AF939F938F939F928F921F930F9373
:100FF0000E946E09C8010E9425078091A40190916A
:10100000A501A091A601B091A701BF93AF939F93B3
:101010008F93BF92AF921F930F930E946E09C801E6
:101020000E9425078091A8019091A901A091AA0191
:10103000B091AB01BF93AF939F938F93DF92CF9209
:101040001F930F930E946E09C8010E94250780918B
:10105000AC019091AD01A091AE01B091AF01BF93F1
:10106000AF939F938F93FF92EF921F930F930E94E2
:101070006E090FB6F894DEBF0FBECDBFC8010E9447
:1010800025078091B0019091B101A091B201B0917A
:10109000B301BF93AF939F938F93FF92EF921F93F0
:1010A0000F930E946E09C8010E9425078091B40128
:1010B0009091B501A091B601B091B701BF93AF93E4
:1010C0009F938F93FF92EF921F930F930E946E094D
:1010D000C8010E9425070FB6F894DEBF0FBECDBF32
:1010E0003DCF0CD0BAC0B2D040F0A9D030F021F43E
:1010F0005F3F19F09BC05111E4C09EC0BFD098F370
:101100009923C9F35523B1F3951B550BBB27AA2788
:1011100062177307840738F09F5F5F4F220F331FFA
:10112000441FAA1FA9F333D00E2E3AF0E0E830D0C6
:1011300091505040E695001CCAF729D0FE2F27D0C9
:10114000660F771F881FBB1F261737074807AB0797
:10115000B0E809F0BB0B802DBF01FF2793585F4F0C
:101160002AF09E3F510568F061C0ABC05F3FECF3D1
:10117000983EDCF3869577956795B795F7959F5FD1
:10118000C9F7880F911D9695879597F90895E1E025
:10119000660F771F881FBB1F621773078407BA0784
:1011A00020F0621B730B840BBA0BEE1F88F7E095DF
:1011B0000895E89409C097FB3EF49095809570954A
:1011C00061957F4F8F4F9F4F9923A9F0F92F96E993
:1011D000BB279395F695879577956795B795F11108
:1011E000F8CFFAF4BB0F11F460FF1BC06F5F7F4FA5
:1011F0008F4F9F4F16C0882311F096E911C07723B7
:1012000021F09EE8872F762F05C0662371F096E8BF
:10121000862F70E060E02AF09A95660F771F881F8E
:10122000DAF7880F9695879597F9089597F99F674C
:1012300080E870E060E008959FEF80EC089500245E
:101240000A941616170618060906089500240A942B
:1012500012161306140605060895092E0394000CB1
:1012600011F4882352F0BB0F40F4BF2B11F460FF40
:1012700004C06F5F7F4F8F4F9F4F089557FD905869
:10128000440F551F59F05F3F71F04795880F97FB4A
:10129000991F61F09F3F79F0879508951216130604
:1012A0001406551FF2CF4695F1DF08C01616170633
:1012B0001806991FF1CF8695710561050894089568
:1012C000E894BB2766277727CB0197F90895FB01A0
:1012D000DC0101900D920020E1F708950F931F9318
:1012E000CF93DF93CDB7DEB72E970FB6F894DEBF5E
:1012F0000FBECDBF0D891E8986E08C831A830983BA
:101300008FEF9FE79E838D83AE01475E5F4F6F89AE
:10131000788DCE0101960E949D09EF81F885E00F3E
:10132000F11F10822E960FB6F894DEBF0FBECDBF10
:10133000DF91CF911F910F9108952F923F924F927D
:101340005F926F927F928F929F92AF92BF92CF9255
:10135000DF92EF92FF920F931F93CF93DF93CDB75E
:10136000DEB72C970FB6F894DEBF0FBECDBF7C0161
:101370006B018A01FC0117821682838181FFBDC146
:10138000CE0101964C01F7019381F60193FD859101
:1013900093FF81916F01882309F4ABC1853239F441
:1013A00093FD859193FF81916F01853229F4B701F7
:1013B00090E00E94AE0BE7CF512C312C20E0203280
:1013C000A0F48B3269F030F4803259F0833269F442
:1013D00020612CC08D3239F0803339F4216026C071
:1013E0002260246023C0286021C027FD27C030ED83
:1013F000380F3A3078F426FF06C0FAE05F9E300DD1
:101400001124532E13C08AE0389E300D1124332E40
:1014100020620CC08E3221F426FD6BC1206406C010
:101420008C3611F4206802C0883641F4F60193FD31
:10143000859193FF81916F018111C1CF982F9F7D7D
:101440009554933028F40C5F1F4FFFE3F9830DC0D0
:10145000833631F0833771F0833509F05BC022C0E9
:10146000F801808189830E5F1F4F44244394512CDF
:10147000540115C03801F2E06F0E711CF801A08014
:10148000B18026FF03C0652D70E002C06FEF7FEFD3
:10149000C5012C870E94A30B2C0183012C852F777B
:1014A000222E17C03801F2E06F0E711CF801A080E7
:1014B000B18026FF03C0652D70E002C06FEF7FEFA3
:1014C000C5012C870E94980B2C012C852068222EA8
:1014D000830123FC1BC0832D90E048165906B0F40D
:1014E000B70180E290E00E94AE0B3A94F4CFF50190
:1014F00027FC859127FE81915F01B70190E00E9452
:10150000AE0B31103A94F1E04F1A510841145104D6
:1015100071F7E5C0843611F0893639F5F80127FFF7
:1015200007C060817181828193810C5F1F4F08C069
:1015300060817181882777FD8095982F0E5F1F4FFE
:101540002F76B22E97FF09C0909580957095619582
:101550007F4F8F4F9F4F2068B22E2AE030E0A401CA
:101560000E94E00BA82EA81844C0853729F42F7ECE
:10157000B22E2AE030E025C0F22FF97FBF2E8F3641
:10158000C1F018F4883579F0B4C0803719F0883785
:1015900021F0AFC02F2F2061B22EB4FE0DC08B2DD5
:1015A0008460B82E09C024FF0AC09F2F9660B92E10
:1015B00006C028E030E005C020E130E002C020E1B4
:1015C00032E0F801B7FE07C06081718182819381AA
:1015D0000C5F1F4F06C06081718180E090E00E5F5C
:1015E0001F4FA4010E94E00BA82EA818FB2DFF7727
:1015F000BF2EB6FE0BC02B2D2E7FA51450F4B4FECB
:101600000AC0B2FC08C02B2D2E7E05C07A2C2B2DD3
:1016100003C07A2C01C0752C24FF0DC0FE01EA0D19
:10162000F11D8081803311F4297E09C022FF06C09C
:101630007394739404C0822F867809F0739423FD09
:1016400013C020FF06C05A2C731418F4530C5718FB
:10165000732C731468F4B70180E290E02C870E9429
:10166000AE0B73942C85F5CF731410F4371801C0AA
:10167000312C24FF12C0B70180E390E02C870E9438
:10168000AE0B2C8522FF17C021FF03C088E590E038
:1016900002C088E790E0B7010CC0822F867859F02D
:1016A00021FD02C080E201C08BE227FD8DE2B7017F
:1016B00090E00E94AE0BA51438F4B70180E390E0EF
:1016C0000E94AE0B5A94F7CFAA94F401EA0DF11DD3
:1016D0008081B70190E00E94AE0BA110F5CF3320BE
:1016E00009F451CEB70180E290E00E94AE0B3A942B
:1016F000F6CFF7018681978102C08FEF9FEF2C967E
:101700000FB6F894DEBF0FBECDBFDF91CF911F9112
:101710000F91FF90EF90DF90CF90BF90AF909F9090
:101720008F907F906F905F904F903F902F90089593
:10173000FC010590615070400110D8F7809590959C
:101740008E0F9F1F0895FC016150704001900110A1
:10175000D8F7809590958E0F9F1F08950F931F9334
:10176000CF93DF93182F092FEB018B8181FD03C0ED
:101770008FEF9FEF20C082FF10C04E815F812C81D0
:101780003D81421753077CF4E881F9819F012F5F67
:101790003F4F39832883108306C0E885F985812F60
:1017A0000995892B29F72E813F812F5F3F4F3F837A
:1017B0002E83812F902FDF91CF911F910F9108954C
:1017C000FA01AA27283051F1203181F1E8946F9372
:1017D0006E7F6E5F7F4F8F4F9F4FAF4FB1E03ED018
:1017E000B4E03CD0670F781F891F9A1FA11D680FB6
:1017F000791F8A1F911DA11D6A0F711D811D911DE9
:10180000A11D20D009F468943F912AE0269F11245D
:101810003019305D3193DEF6CF010895462F4770C1
:10182000405D4193B3E00FD0C9F7F6CF462F4F701C
:10183000405D4A3318F0495D31FD4052419302D07A
:10184000A9F7EACFB4E0A695979587957795679520
:10185000BA95C9F700976105710508959B01AC0120
:101860000A2E06945795479537952795BA95C9F747
:10187000620F731F841F951FA01D0895F894FFCF5A
:10188000FFFFFFFFFFFFFFFF092E2E546869732043
:101890006973204949544227732053747564656EF7
:1018A0007420536174656C6C6974652E2E2E0D0066
:1018B0000954686973206973204855535341494E50
:1018C0002773204F42432D4D617374657220636FFF
:1018D00064652E2E2E000D43757272656E7420475E
:1018E0005053207374617465206973203D0900783A
:1018F000203D20256C75200A0079203D20256C753F
:10190000200A007A203D20256C75200A00256C7580
:0819100020002A3030500D00C8
:00000001FF
