:100000000C9446000C9465000C9465000C946500FB
:100010000C9465000C9465000C9465000C946500CC
:100020000C9465000C9465000C9465000C946500BC
:100030000C9465000C9465000C9465000C946500AC
:100040000C9465000C9465000C9465000C9465009C
:100050000C9465000C9465000C9465000C9465008C
:100060000C9465000C9465000C9465000C9465007C
:100070000C9465000C9465000C9465000C9465006C
:100080000C9465000C9465000C94650011241FBE4F
:10009000CFEFD0E1DEBFCDBF11E0A0E0B1E0E8EFEF
:1000A000F0E100E00BBF02C007900D92A637B10748
:1000B000D9F722E0A6E7B1E001C01D92A238B2074D
:1000C000E1F70E940E070C947A080C9400001BB80C
:1000D0001AB8E5E9F0E01082599A8AB188618AB9C4
:1000E00080818E60808387E689B9109290000895A0
:1000F0005F9BFECF8CB108952FEF31E05F9B8BC3E8
:100100005F9BFECF8CB180937701809178019091B5
:100110007901A0917A01B0917B01BA2FA92F982F74
:1001200088278093780190937901A0937A01B09306
:100130007B018091780190917901A0917A01B09131
:100140007B0188278093780190937901A0937A01AD
:10015000B0937B018091780190917901A0917A010F
:10016000B0917B0140917701842B8093780190932B
:100170007901A0937A01B0937B01809107018C30C3
:1001800008F0C7C0809107018430D8F580917E01C6
:1001900090917F01A0918001B0918101892F9A2FC8
:1001A000AB2FBB27A7FDBA9580937E0190937F016B
:1001B000A0938001B093810180917E0190917F0195
:1001C000A0918001B0918101BB2780937E01909323
:1001D0007F01A0938001B093810180917E01909175
:1001E0007F01A0918001B091810140917701B42BF2
:1001F00080937E0190937F01A0938001B093810151
:100200007DC0809107018830D8F58091820190915E
:100210008301A0918401B0918501892F9A2FAB2F82
:10022000BB27A7FDBA958093820190938301A09389
:100230008401B09385018091820190918301A09106
:100240008401B0918501BB27809382019093830143
:10025000A0938401B09385018091820190918301E4
:10026000A0918401B091850140917701B42B8093D6
:10027000820190938301A0938401B09385013EC0D5
:10028000809107018C30D0F5809186019091870193
:10029000A0918801B0918901892F9A2FAB2FBB279C
:1002A000A7FDBA958093860190938701A09388015A
:1002B000B09389018091860190918701A091880176
:1002C000B0918901BB278093860190938701A09309
:1002D0008801B09389018091860190918701A09156
:1002E0008801B091890140917701B42B80938601F8
:1002F00090938701A0938801B093890180910701B1
:100300008F5F80930701809107018C3011F4209357
:100310000701809106018C3008F0C7C0809106016A
:100320008430D8F580918A0190918B01A0918C0145
:10033000B0918D01892F9A2FAB2FBB27A7FDBA95BE
:1003400080938A0190938B01A0938C01B0938D01CF
:1003500080918A0190918B01A0918C01B0918D01C7
:10036000BB2780938A0190938B01A0938C01B0935B
:100370008D0180918A0190918B01A0918C01B091A7
:100380008D0140917701B42B80938A0190938B016A
:10039000A0938C01B0938D017DC0809106018830BF
:1003A000D8F580918E0190918F01A0919001B0912C
:1003B0009101892F9A2FAB2FBB27A7FDBA95809368
:1003C0008E0190938F01A0939001B0939101809141
:1003D0008E0190918F01A0919001B0919101BB2766
:1003E00080938E0190938F01A0939001B09391011F
:1003F00080918E0190918F01A0919001B091910117
:1004000040917701B42B80938E0190938F01A0933C
:100410009001B09391013EC0809106018C30D0F5DF
:100420008091920190919301A0919401B0919501D6
:10043000892F9A2FAB2FBB27A7FDBA9580939201E6
:1004400090939301A0939401B093950180919201B0
:1004500090919301A0919401B0919501BB27809355
:10046000920190939301A0939401B0939501809190
:10047000920190919301A0919401B09195014091C6
:100480007701B42B8093920190939301A0939401F0
:10049000B0939501809106018F5F80930601809152
:1004A00006018C3011F420930601809105018430FF
:1004B00068F5809105018230F0F080910101909102
:1004C0000201892F99279093020180930101809165
:1004D00001019091020199279093020180930101FB
:1004E000809101019091020140917701942B9093AA
:1004F000020180930101809105018F5F80930501C6
:1005000080910501843011F420930501809104014C
:10051000803108F0CCC080910401843008F4BCC064
:10052000809104018830D8F58091960190919701CF
:10053000A0919801B0919901892F9A2FAB2FBB27D9
:10054000A7FDBA958093960190939701A093980187
:10055000B09399018091960190919701A091980193
:10056000B0919901BB278093960190939701A09336
:100570009801B09399018091960190919701A09173
:100580009801B091990140917701B42B8093960125
:1005900090939701A0939801B09399017DC08091A9
:1005A00004018C30D8F580919A0190919B01A09123
:1005B0009C01B0919D01892F9A2FAB2FBB27A7FDDE
:1005C000BA9580939A0190939B01A0939C01B0935C
:1005D0009D0180919A0190919B01A0919C01B09105
:1005E0009D01BB2780939A0190939B01A0939C014E
:1005F000B0939D0180919A0190919B01A0919C01E3
:10060000B0919D0140917701B42B80939A01909312
:100610009B01A0939C01B0939D013EC08091040179
:100620008031D0F580919E0190919F01A091A00111
:10063000B091A101892F9A2FAB2FBB27A7FDBA95A7
:1006400080939E0190939F01A093A001B093A1017C
:1006500080919E0190919F01A091A001B091A10174
:10066000BB2780939E0190939F01A093A001B0931C
:10067000A10180919E0190919F01A091A001B09154
:10068000A10140917701B42B80939E0190939F012B
:10069000A093A001B093A101809104018F5F80938A
:1006A000040180910401803111F4209304018091B0
:1006B0000301873008F05CC080910301811105C0FF
:1006C000809177018093A20146C08091030181301F
:1006D00029F4809177018093A3013DC080910301AB
:1006E000823029F4809177018093A40134C08091F5
:1006F0000301833029F4809177018093A5012BC0F9
:1007000080910301843029F4809177018093A601C0
:1007100022C0809103018530F0F08091A701909173
:10072000A801892F99279093A8018093A701809110
:10073000A7019091A80199279093A8018093A70100
:100740008091A7019091A80140917701942B9093FB
:10075000A8018093A701809103018F5F809303011B
:1007600080910301873021F42093030130937601B7
:100770008091780190917901A0917A01B0917B01EB
:100780008C3A9440AF43BF4329F410927601109203
:100790000701B4CC8091780190917901A0917A0100
:1007A000B0917B018C3A9540AF43BF4319F410924E
:1007B0000601A4CC8091780190917901A0917A01F1
:1007C000B0917B018C3A9B40AF43BF4319F4109228
:1007D000050194CC8091780190917901A0917A01E2
:1007E000B0917B018C3A9E40AF43BF4319F4109205
:1007F000040184CC8091780190917901A0917A01D3
:10080000B0917B018C3A9F40AF43BF4309F076CC57
:100810001092030173CC8091010190910201843FF9
:10082000914008F06BCC8091010190910201892BDD
:1008300009F464CC80917601882309F45FCC81E0CF
:10084000809300018FEF9FEF90930201809301014D
:1008500010927601109278011092790110927A012B
:1008600010927B010895CF93DF93C3ECD1E0BE01DA
:1008700082E20E940E06219681E0CA3CD807B9F7B1
:10088000DF91CF9108956091C30182E20C946306D9
:10089000CF93DF93CBE9D0E01882AAE9B0E01C92B5
:1008A000EDE9F0E010828881826088838C91886114
:1008B0008C9380818660808387E680939900109274
:1008C0009800DF91CF91089580919B0087FFFCCF26
:1008D00080919C000895FC012191CF01222339F0E1
:1008E00030919B0035FFFCCF20939C00F4CF0895FE
:1008F000EF92FF920F931F93CF93DF938FE691E0D8
:100900000E946B040E946404682F70E0F62EEE24AF
:100910000E946404E82A0E946404082F10E0102F4B
:1009200000270E946404082B0E946404C82FD0E0B2
:10093000DC2FCC270E946404C82B0E946404B701FA
:10094000882777FD8095982F0E94E70720E030E602
:100950004AE656E40E947D076093B7017093B801A0
:100960008093B9019093BA01B801882777FD8095EB
:10097000982F0E94E70720E030E64AE656E40E94FE
:100980007D076093BB017093BC018093BD01909380
:10099000BE01BE01882777FD8095982F0E94E7074A
:1009A00020E030E64AE656E40E947D076093BF01EE
:1009B0007093C0018093C1019093C201DF91CF91E8
:1009C0001F910F91FF90EF900895E3ECF1E090817B
:1009D00021E030E001C0220F8A95EAF7922B908344
:1009E0000C944304E3ECF1E0908121E030E001C09D
:1009F000220F8A95EAF72095292320830C9443043B
:100A00000E94A2050C94A5050C94780484B3886315
:100A100084BB82B1886382B9ABE8B0E01C92EAE89B
:100A2000F0E0108210928C008C918A6A8C93808105
:100A3000816180838FEF9FEF90938100809380008E
:100A4000E4E8F0E01182108211821082118210829B
:100A500085B3877C85BB08958091D001882311F0F0
:100A6000AD9A01C0AD988091D101882311F0AC9A64
:100A700001C0AC988091D201882311F0AB9A01C0DB
:100A8000AB988091CA019091CB019093870080939D
:100A900086008091CC019091CD0190938500809348
:100AA00084008091CE019091CF0190938300809338
:100AB000820008951092CB011092CA011092CD01CC
:100AC0001092CC011092CF011092CE011092D00161
:100AD0001092D1011092D2010C942C0587B3807F23
:100AE00087BBBB9A80EC8DB9089517BA86E087BBA7
:100AF00087B3816387BB88B3816388BB83E58DB986
:100B0000089598B3916398BB98B321E030E0082E24
:100B100001C0220F0A94EAF72095292328BB0895E3
:100B2000680F791F8617970739F0FC012191CF01D3
:100B30002FB9779BFECFF6CF08958FB9779BFECF65
:100B40008FB10895BE9AC69A0895DF92EF92FF92F0
:100B50000F931F93CF93DF9300E010E0C598C02F51
:100B6000C695C8618C2F0E949D0598013695322F3D
:100B7000222737952795822F8064D82E0E949D05C5
:100B8000C59A82E08A95F1F700C0C5988C2F0E9423
:100B90009D058D2D0E949D05C59A82E08A95F1F7ED
:100BA00000C0C5988C2F0E949D05282F30E0E801D9
:100BB000CC0FDD1FC258DE4F3EA72DA72DA53EA5A9
:100BC000322F22273EA72DA72DA53EA522273F7015
:100BD0003EA72DA7EDA4FEA48D2D0E949D05E82A19
:100BE000FEA6EDA6C59A82E08A95F1F700C00F5FD8
:100BF0001F4F0630110509F0B1CFC698DF91CF9194
:100C00001F910F91FF90EF90DF9008951092710067
:100C10001092740088E480937000089524EA209371
:100C200074009091740097FFFCCF90917100987FB1
:100C30009833A9F390917100987F903129F09091A9
:100C40007100987F9830C9F5880F8F5F809373008B
:100C500084E8809374008091740087FFFCCF8091BA
:100C60007100887F883401F180917100887F88331A
:100C700039F180917100887F8034E1F485E88A95AC
:100C8000F1F7000084E8809374008091740087FF7E
:100C9000FCCF80917100887F803511F0883551F448
:100CA00080917300FB01808384E98093740081E06C
:100CB00090E0089584E9809374008FEF9FEF08958A
:100CC0008EEF9FEF089524EA2093740090917400B2
:100CD00097FFFCCF90917100987F9833A9F3909182
:100CE0007100987F903129F090917100987F983031
:100CF000A9F5880F8093730084E880937400809135
:100D0000740087FFFCCF80917100887F803201F1F1
:100D100080917100887F883321F180917100887FF4
:100D2000883191F485E88A95F1F7000060937300AB
:100D300084E8809374008091740087FFFCCF8091D9
:100D40007100887F883221F084E98093740006C0A6
:100D500084E98093740081E090E008958FEF9FEF25
:100D600008958EEF9FEF08951BB81AB8E5E9F0E0FB
:100D70001082599A8AB188618AB980818E60808395
:100D800087E689B9109290000895CF93DF93CBE95D
:100D9000D0E01882AAE9B0E01C92EDE9F0E0108200
:100DA0008881826088838C9188618C9380818E6039
:100DB000808387E68093990010929800DF91CF910D
:100DC000089590919B0095FFFCCF80939C0008951F
:100DD0005D9BFECF8CB9089580919B0087FFFCCF6F
:100DE00080919C0008955F9BFECF8CB10895FC011B
:100DF0002191CF01222339F030919B0035FFFCCFA8
:100E000020939C00F4CF0895FC012191CF0122236F
:100E100021F05D9BFECF2CB9F7CF0895CF93DF93E0
:100E2000CDB7DEB7C857D1090FB6F894DEBF0FBEF5
:100E3000CDBF80EF8ABB8BBB2FEF89E698E12150B5
:100E400080409040E1F700C000001BBA2FEF89E618
:100E500098E1215080409040E1F700C0000080EF11
:100E60008BBB2FEF89E698E1215080409040E1F75D
:100E700000C000001BBA2FEF89E698E121508040A6
:100E80009040E1F700C000000E94B4068DE00E948F
:100E9000E8068DE00E94E80688E40E94E80685E600
:100EA0000E94E8068CE60E94E8068CE60E94E806AE
:100EB0008FE60E94E80668E071E0CE018F5A9F4FEE
:100EC0000E947308CE018F5A9F4F0E94040760E36F
:100ED00071E0CE0189960E94730866E571E0CE014B
:100EE00001960E9473080E94670078945F9BFECF72
:100EF0008CB181E40E94E806F9CF0CD0BAC0B2D020
:100F000040F0A9D030F021F45F3F19F09BC051119F
:100F1000E4C09EC0BFD098F39923C9F35523B1F321
:100F2000951B550BBB27AA2762177307840738F058
:100F30009F5F5F4F220F331F441FAA1FA9F333D0B7
:100F40000E2E3AF0E0E830D091505040E695001C6B
:100F5000CAF729D0FE2F27D0660F771F881FBB1F27
:100F6000261737074807AB07B0E809F0BB0B802D01
:100F7000BF01FF2793585F4F2AF09E3F510568F04D
:100F800061C0ABC05F3FECF3983EDCF3869577958C
:100F90006795B795F7959F5FC9F7880F911D96954F
:100FA000879597F90895E1E0660F771F881FBB1FAB
:100FB000621773078407BA0720F0621B730B840B58
:100FC000BA0BEE1F88F7E0950895E89409C097FBE7
:100FD0003EF490958095709561957F4F8F4F9F4F10
:100FE0009923A9F0F92F96E9BB279395F695879554
:100FF00077956795B795F111F8CFFAF4BB0F11F417
:1010000060FF1BC06F5F7F4F8F4F9F4F16C08823BD
:1010100011F096E911C0772321F09EE8872F762FF3
:1010200005C0662371F096E8862F70E060E02AF034
:101030009A95660F771F881FDAF7880F9695879520
:1010400097F9089597F99F6780E870E060E0089548
:101050009FEF80EC089500240A94161617061806D0
:101060000906089500240A941216130614060506AC
:101070000895092E0394000C11F4882352F0BB0F3D
:1010800040F4BF2B11F460FF04C06F5F7F4F8F4FA0
:101090009F4F089557FD9058440F551F59F05F3FDB
:1010A00071F04795880F97FB991F61F09F3F79F08A
:1010B00087950895121613061406551FF2CF46950C
:1010C000F1DF08C0161617061806991FF1CF86958E
:1010D0007105610508940895E894BB276627772772
:1010E000CB0197F90895FB01DC0101900D920020DE
:0810F000E1F70895F894FFCF29
:1010F800FFFFFFFFFFFFFFFF092E2E5468697320D3
:101108006973204949544227732053747564656E86
:101118007420536174656C6C6974652E2E2E0D00F5
:101128000954686973206973204855535341494EDF
:101138002773204F42432D4D617374657220636F8E
:1011480064652E2E2E000D43757272656E742047ED
:101158005053207374617465206973203D09002A17
:061168003030500D0000C4
:00000001FF
